:020000040800F2
:10000000F004002049010008F31A00083D19000817
:10001000F11A0008EB0600082B2000080000000081
:10002000000000000000000000000000F71A0008B7
:10003000ED06000800000000F51A0008F91A000893
:100040006301000863010008630100086301000800
:1000500063010008630100086301000863010008F0
:1000600063010008630100086301000863010008E0
:1000700063010008630100086301000863010008D0
:1000800063010008630100086301000863010008C0
:1000900063010008630100086301000863010008B0
:1000A00063010008630100086301000863010008A0
:1000B00063010008630100085D1B0008630100087C
:1000C0006301000863010008630100086301000880
:1000D0006301000863010008630100086301000870
:1000E0006301000863010008630100086301000860
:1000F0006301000863010008630100086301000850
:10010000630100086301000863010008630100083F
:10011000630100086301000863010008630100082F
:10012000630100086301000863010008630100081F
:10013000DFF810D000F0A6FA004800473129000887
:10014000AFF30080F00400200648804706480047CF
:10015000FEE7FEE7FEE7FEE7FEE7FEE7FEE7FEE777
:10016000FEE7FEE75B1B000831010008202A04DBE4
:10017000203A21FA02F00021704721FA02F3D04020
:10018000C2F120029140084319467047D2B201E003
:1001900000F8012B491EFBD270470022F6E710B58C
:1001A00013460A4604461946FFF7F0FF204610BDE5
:1001B0002DE9F04D81EA030404F0004B21F00045E5
:1001C00014464FF0000A23F0004150EA050220D007
:1001D00054EA01021DD0C5F30A570246C5F31303C2
:1001E000C1F31300C1F30A5640F4801543F48013A1
:1001F000A7EB0608101BD64608F2FD3873EB050086
:1002000002D308F1010801E092185B41B8F1000F38
:1002100003DA00200146BDE8F08D00204FF4801184
:10022000064684460EE0171B73EB050705D3121B29
:1002300063EB050306434CEA010C49084FEA300022
:1002400092185B4150EA0107EDD152EA030012D047
:1002500082EA040083EA0501084305D0101BAB4184
:1002600006D20122002306E000224FF0004302E004
:100270006FF0010253101AEB06004CEB085110EB23
:100280000A0041EB0B01BDE8F04D00F054B80EB58B
:1002900040F2334102910021CDE900110A460B469C
:1002A00000F058F803B000BD30B50B460146002001
:1002B0002022012409E021FA02F59D4205D303FA28
:1002C00002F5491B04FA02F52844151EA2F10102A9
:1002D000F1DC30BD2DE9F05F0546002092469B46DB
:1002E00088460646814640241BE02846414647464C
:1002F0002246FFF73BFF53465A46C01A914110D39E
:1003000011461846224600F0CFF92D1A67EB010876
:100310004F4622460120002100F0C6F917EB0009E4
:100320004E41201EA4F10104DFDC484631462A4636
:100330004346BDE8F09F10B5141E73F1000408DABF
:10034000401C41F1000192185B411A4301D120F099
:10035000010010BD2DE9F04D92469B4611B1B1FA56
:1003600081F202E0B0FA80F22032904600F09CF96F
:1003700004460F4640EA0A0041EA0B0153465A463A
:10038000084313D0114653EA010019D0C8F14002C6
:100390005046FFF7EBFE05460E465046594642468C
:1003A00000F082F9084305D0012004E020463946D8
:1003B000BDE8F08D0020054346EAE0762C43374344
:1003C0000A986305E40AA0EB08000022FD0A44EA4B
:1003D00047540A3002D500200146E9E7010510190B
:1003E0006941DDE9084500196941BDE8F04DA2E722
:1003F0002DE9FE4F804681EA0300C00F0C460090B5
:1004000021F0004123F00045B8EB0200A94105D2DC
:100410004046214690461C460B46024623F00040CB
:10042000104347D0270DC7F30A00C3F30A510290C7
:10043000401A019040286BDAC3F3130040F4801B8C
:100440000098924620B10023D2EB030A63EB0B0B1A
:1004500001985946C0F14002504600F025F9064681
:100460000D4650465946019A00F02DF910EB080050
:100470006141002487EA115284EAE7731A4340D0AD
:10048000009A62B3019A012A4FEA075215DC001B59
:1004900061EB02014FF0004202EA0752CDE900424F
:1004A000001C41F5801132462B46FFF753FF03B085
:1004B000BDE8F08F40462146F9E7001B61EB0201E1
:1004C000001C41F5801300185B412018A2F50017AD
:1004D00047EB030140EAD570B6196D4111E06D0894
:1004E0004FEA360645EAC0754FEA0752001B61EB3A
:1004F0000201001C41F5801149084FEA3000001943
:10050000514132462B4603B0BDE8F04FFFF713BF11
:100510000098012240000023D0EB020263EBE0735D
:10052000009821464FEAE074B8EB000061EB04014B
:10053000E9E783F000435BE781F0004158E72DE9EC
:10054000FE4F81EA030404F0004421F000410094CE
:100550004FF0000B23F0004350EA01045ED052EA52
:1005600003045BD0C3F30A54C1F30A552C44A4F22C
:10057000F3340194A0FB0254C1F3130141F4801140
:10058000C3F3130343F4801301FB024400FB034E47
:10059000840A970A44EA815447EA8357A4FB076810
:1005A00002958D0A05FB07854FEA932C04FB0C543A
:1005B0002705029D4FEA065847EA1637B5EB0805AE
:1005C0006EEB070C870E920E47EA811742EA831200
:1005D000A7FB0201B6EB0B0164EB00042B0D43EA11
:1005E0000C335E1844EB1C50DA465146E7FB02011F
:1005F000C5F313044FEA0B3343EA14534FEA0432B2
:10060000019C43EA0603A4F10C040294009CCDE98A
:1006100000B4FFF79FFE03B0BDE8F08F0020014655
:10062000F9E7C1F30A52C1F3130140F2FF3341F479
:1006300080119A4202DA00200146704740F23343AB
:100640009A42A2F2334202DC5242FFF78FBD00F021
:100650002BB8000030B5041E71F1000404DB4FF02C
:100660000044404264EB0101141E73F1000405DBF9
:100670001C464FF00043524263EB0403994208BF0B
:10068000904230BD064C074D06E0E06840F00103A3
:1006900094E8070098471034AC42F6D3FFF74CFDBE
:1006A000F8290008182A0008202A04DB203A00FA5A
:1006B00002F1002070479140C2F1200320FA03F3B9
:1006C000194390407047202A06DBCB17203A41FAA5
:1006D00002F043EAE07306E041FA02F3D040C2F1CF
:1006E00020029140084319467047FEE7704700001A
:1006F000054810B54088FFF7CAFDBDE8104000224C
:10070000024BFFF755BD00000000002000408F4065
:10071000034804494088B1FBF0F0FFF7B8BD000082
:100720000000002040420F0072B6FEE770B504469C
:1007300000F00AF90546601C02D004480078044421
:1007400000F002F9401BA042FAD370BD0400002063
:100750002DE9F84FDFF8C8910024A9F1040B2346D6
:100760000F2709F1040AABF1040ED1E00125A540E1
:1007700006EA0502AA4276D1DFF8A8C14E68A6EBC8
:100780000C0866452BD00DDC032E34D005DC36B3C7
:10079000012E19D0022E2FD11BE0112E16D0122EB1
:1007A0002AD119E0B8F5881F19D006DCB8F5803FCA
:1007B00015D0B8F5801F1FD111E0B8F5001F0ED07D
:1007C000B8F5041F18D10AE0CB6815E0CB681B1DF3
:1007D00012E0CB6808330FE0CB680C330CE08B6879
:1007E0002BB1012B4FF0080303D0456104E0042333
:1007F00002E0056100E00023FF2A01D8064601E07F
:1008000000F104064FEA840501D9A5F12005D6F8C8
:10081000008007FA05FC28EA0C0803FA05F548EA07
:100820000508C6F800804D68ED0070D53E4DAE69F4
:1008300046F00106AE61AD6924F0030605F001053E
:1008400000953A4D06EB050CDCF80850A607360F6C
:1008500007FA06F825EA0805DFF8D480404503D1F9
:100860004FF0000825E052E0DFF8C880404502D193
:100870004FF001081DE0DFF8C080404502D14FF085
:10088000020816E0DFF8B480404502D14FF00308BB
:100890000FE0DFF8AC80404502D14FF0040808E0DB
:1008A000DFF8A080404502D14FF0050801E04FF08D
:1008B000060808FA06F848EA0508CCF808804D68EA
:1008C000D9F80060ED024D4601D5164300E096438D
:1008D0002E604D68DAF80060AD02554601D516432A
:1008E00000E096432E604D68DBF80060AD035D4686
:1008F00001D5164300E096432E604D68DEF8006097
:10090000ED03754601D5164300E096432E60641C46
:100910000A681646E2407FF429AFBDE8F88F000070
:1009200008040140000011100010024000000140C6
:1009300000080140000C014000100140001401407B
:1009400000180140001C0140014880687047000009
:1009500004000020024881680278114481607047D9
:1009600004000020074810B5016841F01001016043
:10097000032000F075F80F2000F006F800F024F8CE
:10098000002010BD0020024070B50D4D04464FF40C
:100990007A712878B1FBF0F00A490968B1FBF0F0F0
:1009A00000F0DCFA48B9102C07D200222146501E74
:1009B00000F036F800206C6070BD012070BD0000B2
:1009C00004000020100000200C4808B5816941F0A7
:1009D00001018161816901F001010091C16941F06A
:1009E0008051C161C06900F08050009004484168A6
:1009F00021F0E06141F00071416008BD001002404B
:100A000000000140002809DB00F01F020121914095
:100A10004009800000F1E020C0F80011704700009C
:100A2000F0B40E4B1B680C46C3F30223C3F1070559
:100A3000042D00D90425191D072901D2002300E047
:100A4000DB1E012606FA05F1491E214099409E4011
:100A5000761E16403143F0BC01F0F8BA0CED00E010
:100A6000064900F0070208684FF6FF03184040EA05
:100A70000220034A10430860704700000CED00E0BC
:100A80000000FA052DE9F0470F46050061D0434EFE
:100A9000306800F00700B84209D2306820F0070043
:100AA00038433060306800F00700B84251D1286800
:100AB0003B4C810712D5400703D5606840F4E060E5
:100AC00060602878000703D5606840F4605060607B
:100AD0006068A96820F0F000084360602878C007CB
:100AE00028D06868012810D02168022810D0890712
:100AF00000292EDA616821F0030101436160FFF7EC
:100B000023FF804641F288390DE021688903EFE731
:100B10008901EDE7FFF718FFA0EB0801494502D96D
:100B20000320BDE8F0876068696800F00C00B0EB56
:100B3000810FEFD1306800F00700B8420BD9306860
:100B400020F0070038433060306800F00700B842FA
:100B500001D00120E5E72878400705D56068E968FD
:100B600020F4E060084360602878000706D56068DC
:100B7000296920F4605040EAC100606000F038F854
:100B80006168084AC1F30311515CC8400649086016
:100B900006480068FFF7F8FE0020C2E70020024088
:100BA00000100240DE29000810000020080000208C
:100BB0000448054900684968044AC1F30221515CB0
:100BC000C84070471000002000100240EE290008C5
:100BD0000448054900684968044AC1F3C221515CD0
:100BE000C84070471000002000100240EE290008A5
:100BF0000E4A51680E4801F00C03042B11D0082B4B
:100C00000FD10C48C1F38343C903C05C0AD55168B6
:100C1000084AC1F34041921E515C054A5043B0FB63
:100C2000F1F070470449484370470000001002404B
:100C300000127A00CE29000800093D002DE9F84F86
:100C4000040070D02078C04DC00749D06868C0F358
:100C50008100012807D06868C0F38100022809D10B
:100C60006868C00306D52868800339D56068002805
:100C7000E7D035E06068B0F5803F0BD010B1B0F53B
:100C8000A02F11D0286820F480302860286820F434
:100C9000802002E0286840F480302860606890B1CD
:100CA000FFF752FE06460AE0286840F480202860DC
:100CB000F0E700BFFFF748FE801B642873D8286860
:100CC0008003F7D50CE0FFF73FFE064605E000BFC6
:100CD000FFF73AFE801B6428F0D828688003F7D419
:100CE00020789A4E80074FF001094FF0000839D55F
:100CF000686810F00C0F07D06868C0F38100022804
:100D000009D16868C00306D42868800714D5206913
:100D1000012808D110E02069B0B1C6F80090FFF7B3
:100D200013FE074605E00AE1FFF70EFEC01B02288E
:100D3000C4D828688007F7D52868616920F0F800D2
:100D400040EAC10028600DE0C6F80080FFF7FCFD16
:100D5000074604E0FFF7F8FDC01B022823D82868E7
:100D60008007F7D4207800072CD57948A169D9B13C
:100D7000C0F80090FFF7E8FD074604E0FFF7E4FD48
:100D8000C01B02280FD8686A8007F7D571484FF456
:100D9000FA510068B0FBF1F0009000BF0098411ECE
:100DA0000091FAD20EE080E0C0F80080FFF7CCFDA1
:100DB000074604E0FFF7C8FDC01B022875D8686A23
:100DC0008007F7D42078400760D5E8690027C00085
:100DD00008D4E86940F08050E861E869012700F034
:100DE000805000905C480168C90513D401688346AF
:100DF00041F480710160FFF7A7FD824606E000BF65
:100E0000FFF7A2FDA0EB0A0064284ED8DBF8000033
:100E1000C005F5D5E06801280AD008B1052813D02F
:100E2000286A20F001002862286A20F0040002E00D
:100E3000286A40F001002862E06841F2883B98B1DE
:100E4000FFF782FD82460BE0286A40F0040028622A
:100E5000EEE700BFFFF778FDA0EB0A0159455AD82D
:100E6000286A8007F6D50CE0FFF76EFD824605E0A4
:100E7000FFF76AFDA0EB0A0159454CD8286A8007A4
:100E8000F6D41FB1E86920F08050E861E06988B3CA
:100E90006968C1F38101022944D00228C6F8608044
:100EA00004D0FFF751FD044638E034E0FFF74CFD75
:100EB000074604E0FFF748FDC01B02282BD828682E
:100EC0008001F7D4206AB0F5803F05D16868A16839
:100ED00020F4003008436860D4E9080108436968D9
:100EE00021F4741108436860C6F86090FFF72CFD88
:100EF000044606E025E000BFFFF726FD001B0228A0
:100F000009D828688001F7D51BE000BFFFF71CFD5A
:100F1000001B022802D90320BDE8F88F2868800151
:100F2000F4D40EE00128F7D06868226A00F480311A
:100F3000914204D1616A00F47010884201D001200E
:100F4000EAE70020E8E7000000100240000042420B
:100F500080044242100000200070004010B5401E86
:100F6000B0F1807F01D3012010BD4FF0E02460611B
:100F70000F21601701F06AF80020A06107202061AE
:100F8000002010BD7047704770B590F83C20012AD2
:100F90002CD0012480F83C40022280F83D200368D8
:100FA0005A689D6822F070060A6832435A60104BF6
:100FB00002689A420ED00F4B9A420BD0B2F1804F8A
:100FC00008D00D4B9A4205D00C4B9A4202D00C4BE4
:100FD0009A4204D1496825F080031943916080F852
:100FE0003D40002180F83C10084670BD022070BDD5
:100FF000002C014000340140000400400008004083
:10100000000C004010B5040003D094F83D0010B16E
:1010100007E0012010BD002084F83C00204600F0CD
:101020001FF8022084F83D00211D206800F09CFD7F
:10103000012084F8460084F83E0084F83F0084F8DC
:10104000400084F8410084F8420084F8430084F8AA
:10105000440084F8450084F83D00002010BD0000E5
:1010600000B585B000210091019102910391184AC9
:101070000168184891421FD1C16941F00401C16162
:10108000C16901F004010491816941F008018161A5
:101090008069694600F008000490402000900E48E6
:1010A000FFF756FB002211461E20FFF7B9FC1E2059
:1010B000FFF7A8FC05B000BD084A9142FAD1C1690A
:1010C00041F00801C161C06900F008000490F1E737
:1010D0000008004000100240000C0140000C0040DD
:1010E00070B5044690F83C000025012817D0012671
:1010F00084F83C60022084F83D002068826822F079
:10110000770222F47F4282600868502838D00DDCD4
:1011100020284FD005DC90B3102811D14AE00220DE
:1011200070BD302846D040280AD13BE060282FD03F
:1011300070280DD0B0F5805F03D0B0F5005F12D0FD
:10114000012584F83D60002084F83C00284670BDED
:10115000CB68D1E90121206800F061FD2068816839
:1011600041F0770109E0CB68D1E90121206800F066
:1011700056FD2068816841F480418160E1E719E013
:10118000CA684968206800F01FFE5021206806E008
:10119000CA684968206800F05FFE6021206800F09E
:1011A00048FDCEE7CA684968206800F00DFE40217E
:1011B0002068F4E7226801461046F0E70B49026810
:1011C0008A420FD1007F01280CD109480023017801
:1011D000491CC9B20170012905D0022902D1516B05
:1011E0004180037070475362704700000008004060
:1011F000000000202DE9F041054690F83C00002653
:101200000C46012810D0012085F83C0072B1042A58
:101210001CD0082A2CD00C2A50D00126002085F89A
:101220003C003046BDE8F0810220FBE7D4E9001223
:10123000E368286800F0DAFD2868816921F00C0174
:10124000816128688169A26811430FE0D4E9001226
:10125000E368286800F012FE2868816921F4406183
:10126000816128688169A26841EA02218161D5E72C
:101270002868D4E9002C277B036A016A21F4807175
:101280000162C16923F4007321F0030141EA0C01FA
:1012900021F0F00C39074FF400774CEA116107EAAE
:1012A00002221A43C16102622868C16921F00C015F
:1012B000C1612868C169A26811432BE02868D4E99C
:1012C0000021E768036AD0F820C02CF4805CC0F8E5
:1012D00020C0D0F81CC023F400532CF4407C4CEA0E
:1012E000012121F4704C4FF6FF7101EA07314FF4F0
:1012F000005741EA0C0107EA02321A43C161026257
:101300002868C16921F44061C1612868C169A26887
:1013100041EA0221C16181E710B5040003D094F8CD
:101320003D0010B107E0012010BD002084F83C0012
:10133000204600F01EF8022084F83D00211D2068A0
:1013400000F012FC012084F8460084F83E0084F886
:101350003F0084F8400084F8410084F8420084F89B
:10136000430084F8440084F8450084F83D000020E0
:1013700010BD704730B50446002551B104290DD089
:10138000082910D094F8412094F84500012A11D181
:101390000EE094F83E2094F84200F7E794F83F20DE
:1013A00094F84300F2E794F8402094F84400EDE705
:1013B000012801D0012030BD022059B1042912D0EA
:1013C000082919D084F8410084F845000C293ED042
:1013D00001253AE084F83E0084F842002068C268A3
:1013E00042F0020210E084F83F0084F843002068D5
:1013F000C26842F0040207E084F8400084F8440028
:101400002068C26842F00802C2600122206800F031
:10141000F9FB1149206888420ED0104988420BD050
:10142000B0F1804F08D00E49884205D00D4988425E
:1014300002D00D49884204D1816801F007010629D4
:1014400003D0016841F001010160284630BD2068E9
:10145000C26842F01002D7E7002C0140003401407E
:101460000004004000080040000C00402DE9F0415D
:1014700004460068C66805694FF00007A90713D540
:10148000B10711D5F91E016101202077206880691C
:101490008007204602D0FFF791FE04E000F0A2F89A
:1014A000204600F034F92777680716D5700714D561
:1014B00021686FF0040008610220207720688069AD
:1014C00010F4407F204602D0FFF778FE04E000F0E1
:1014D00089F8204600F01BF92777280715D5300733
:1014E00013D521686FF00800086104202077206878
:1014F000C0698007204602D0FFF760FE04E000F0DC
:1015000071F8204600F003F92777E80616D5F006B3
:1015100014D521686FF0100008610820207720683A
:10152000C06910F4407F204602D0FFF747FE04E078
:1015300000F058F8204600F0EAF82777E80708D0CE
:10154000F00706D021686FF001000861204600F026
:1015500039F9280608D5300606D521686FF08000D5
:1015600008612046FFF70EFD680608D5700606D50F
:1015700021686FF040000861204600F024F9A806B9
:101580000AD5B00608D521686FF020000861204612
:10159000BDE8F041FFF7F7BCBDE8F08100B585B0CC
:1015A0000021009101910291039100680A4988424B
:1015B00010D10A48816941F004018161806969465E
:1015C00000F0040004900220009001900390044871
:1015D000FFF7BEF805B000BD000C0040001002404F
:1015E00000080140704770B5044690F83C000026A2
:1015F0000D4601280FD0012084F83C006AB1042A6E
:101600001DD0082A2FD00C2A3FD00126002084F8B4
:101610003C00304670BD022070BD206800F012FB17
:101620002068816941F0080181612068816921F0A9
:1016300004018161206881692A69114311E02068F1
:1016400000F030FB2068816941F40061816120680D
:10165000816921F480618161206881692A6941EA98
:1016600002218161D2E7206800F052FB2068C16945
:1016700041F00801C1612068C16921F00401C16124
:101680002068C1692A69114311E0206800F074FBE9
:101690002068C16941F40061C1612068C16921F419
:1016A0008061C1612068C1692A6941EA0221C16182
:1016B000ACE710B5040003D094F83D0010B107E08A
:1016C000012010BD002084F83C00204600F01EF8E8
:1016D000022084F83D00211D206800F045FA012019
:1016E00084F8460084F83E0084F83F0084F8400007
:1016F00084F8410084F8420084F8430084F84400F0
:1017000084F8450084F83D00002010BD7047704704
:1017100010B50446022249B104290ED0082913D07D
:1017200094F84100012816D0012010BD94F83E0025
:101730000128F9D184F83E200FE094F83F000128F9
:10174000F2D184F83F2008E094F840000128EBD162
:1017500084F8402001E084F841200122206800F054
:1017600051FA13492068134A884201D0904203D1AC
:10177000436C43F400434364206888420DD0904298
:101780000BD0B0F1804F08D00B49884205D00B49EF
:10179000884202D00A49884204D1816801F00701D9
:1017A000062903D0016841F001010160002010BD4D
:1017B000002C0140003401400004004000080040BB
:1017C000000C00407047704770B5040004D094F8D6
:1017D0004100002510B106E0012070BD84F84050A2
:1017E000204600F023F8242084F841002068C168D6
:1017F00021F40051C160204600F082FB206801699D
:1018000021F4904101612068416921F02A01416180
:101810002068C16841F40051C1606564202084F8EB
:10182000410084F842006563002070BD30B585B08A
:10183000002400940194029403940068144988429F
:1018400024D11448816941F480418161816901F4A6
:1018500080410491816941F00401816180690E4DEC
:1018600000F0040004904FF40070009002200190FA
:101870000320039069462846FEF76AFF2815CDE944
:101880000004694628460294FEF762FF05B030BDA9
:101890000038014000100240000801402DE9F843E3
:1018A000044690F84100984616460D46202802D07E
:1018B0000220BDE8F88385B17EB10020606421205C
:1018C00084F84100FFF740F8A6848146E684A068CA
:1018D0002027B0F5805F02D003E00120E9E720690E
:1018E00010B12E4600250EE000260CE08021204697
:1018F00000F062FBA8B9C6B116F8010B2168486078
:10190000E08C401EE084E08C4B464FF00002CDF8A6
:1019100000800028EAD14FF04001204600F04CFB47
:1019200040B184F841700320C3E735F8020BC0F3DF
:101930000800E3E784F841700020BAE7FEE7000002
:101940000D4808B5816941F010018161816901F09C
:1019500010010091816941F004018161816901F008
:1019600004010091816941F008018161806900F002
:101970000800009008BD00000010024010B58AB0B9
:10198000002422480494059406940794089409942A
:101990000094019402941C49039401604721C0E91A
:1019A00001144FF6FF71C0E903148461FFF72AFBAD
:1019B00008B1FEF7B9FE4FF48050049004A9134813
:1019C000FFF78EFB08B1FEF7AFFE1048FFF7A4FC4F
:1019D00008B1FEF7A9FE089408A90C480994FFF77E
:1019E000D3FA08B1FEF7A0FE0120CDE90040029431
:1019F0000022694605480394FFF7FCFB002801D04C
:101A0000FEF792FE0AB010BD00080040180000204A
:101A100030B58DB000250795089509950A950B9569
:101A20001C2168460C95FEF7B8FB224C204820602C
:101A300041F61F40C4E901056320C4E903052046BF
:101A4000A561FFF7DFFA08B1FEF76EFE4FF4805094
:101A5000079007A91748FFF743FB08B1FEF764FE9C
:101A60001448FFF726FE08B1FEF75EFE0B950BA9A2
:101A700010480C95FFF788FA08B1FEF755FE602074
:101A800000901E20CDE9010504200246049069461D
:101A90000848FFF7A8FD08B1FEF746FE20688169F7
:101AA00021F4006181610348FFF778FD0DB030BD7E
:101AB000000C0040600000200C4810B50A4901608D
:101AC0004FF4E1314160002181600C22C160C0E926
:101AD00004128161C161FFF777FE002803D0BDE8E1
:101AE0001040FEF721BE10BD00380140A8000020C4
:101AF000FEE7FEE770477047FEF72CBF30B58FB0AA
:101B000028216846FEF749FB14210AA8FEF745FB89
:101B100001210804CDE9001000240294022504915B
:101B2000CDE907504FF4E01009906846FFF786F8BA
:101B300008B172B6FEE70F20CDE90A054FF48060C8
:101B4000CDE90C4002210AA80E94FEF79BFF002865
:101B500001D072B6FEE70FB030BD70470148FFF705
:101B600085BC000018000020F0B50268204C214D13
:101B7000214E224F224B4FF0804CA04209D0984278
:101B800007D0604505D0A84203D0B04201D0B8428A
:101B900004D122F0700E4A6842EA0E02A04209D037
:101BA000984207D0604505D0A84203D0B04201D08A
:101BB000B84203D122F44075CA682A434D6922F025
:101BC00080022A4302608A68C2620A688262A04276
:101BD00001D0984201D10969016301214161016984
:101BE000C90703D0016921F001010161F0BD0000C6
:101BF000002C01400004004000080040000C0040A0
:101C00000034014010B501F01F030121046A99401E
:101C10008C430462016A9A401143016210BD10B501
:101C2000846842EA032224F47F440A432243826008
:101C300010BD826822F070020A4342F00701816001
:101C400070470000F0B5036A026A22F001020262E6
:101C500042688469124E24F073050C682C4323F00B
:101C600002058B682B430D4DA84201D0B04205D12F
:101C700023F00807CB683B4323F00403A84201D0BC
:101C8000B04205D14D6922F4407215438A692A4356
:101C900042608461496841630362F0BD002C0140E9
:101CA00000340140F0B5026A036A23F010030362B6
:101CB000436884690D6824F4E64444EA05248D6889
:101CC00022F0200242EA05120F4D104EA84201D028
:101CD000B04206D1CF6822F0800242EA071222F019
:101CE0004002A84201D0B04207D14D6923F44063BD
:101CF00043EA85038D6943EA85034360846149684B
:101D000081630262F0BD0000002C014000340140FC
:101D1000F0B5026A036A23F4807303624368C469FE
:101D200022F4007224F073050C68124E2C438D6867
:101D300042EA05220E4DA84201D0B04206D1CF683A
:101D400022F4006242EA072222F48062A84201D013
:101D5000B04207D14D6923F4405343EA05138D691E
:101D600043EA05134360C4614968C1630262F0BD80
:101D7000002C01400034014030B5046A026A22F4AC
:101D8000805202624268C3690D6823F4E64343EA65
:101D900005238D6824F4005444EA0534084DA84214
:101DA00002D0084DA84204D14D6922F4804242EA93
:101DB00085124260C36149680164046230BD00005D
:101DC000002C01400034014010B5036A046A24F07D
:101DD00001040462846924F0F00444EA021423F04C
:101DE0000A020A438461026210BD000070B5056AF0
:101DF000046A24F0010404628469124EB0420ED0D9
:101E0000114EB0420BD0B0F1804F08D00F4EB0420F
:101E100005D00F4EB04202D00E4EB04203D124F096
:101E20000304144301E044F001041A0724F0F00411
:101E300044EA126225F00A0301F00A0119438261A3
:101E4000016270BD002C01400034014000040040DC
:101E500000080040000C004010B5036A046A24F03A
:101E600010040462846923F0A00324F4704444EA5B
:101E7000023243EA01118261016210BD30B5046A89
:101E8000056A25F010050562856925F4407545EA67
:101E9000022222F470454FF6FF7202EA033224F068
:101EA000A0032A43A02404EA0111194382610162BC
:101EB00030BD01680C3151E8002F22F4907241E8E6
:101EC0000023002BF5D10168143151E8002F22F0D6
:101ED000010241E80023002BF5D1016B012909D152
:101EE00001680C3151E8002F22F0100241E8002374
:101EF000002BF5D1202180F84210002101637047AA
:101F000070B5044600680169E26821F4405111434C
:101F100001612169A0680843616908432168CA68B2
:101F200041F20C639A430243CA6020684169A26986
:101F300021F44071114341611E492068884202D159
:101F4000FEF746FE01E0FEF733FE00EBC00101EBB9
:101F50000012606864218000B2FBF0F3B3FBF1F380
:101F60006FF018067343B2FBF0F5B2FBF0F605EB29
:101F70008305322303EB0515B5FBF1F5B6FBF1F64E
:101F800005F0F00505EB0615B2FBF0F6B2FBF0F03C
:101F9000B0FBF1F06FF01802504306EB800003EB4A
:101FA0000010B0FBF1F0216800F00F0028448860B9
:101FB00070BD0000003801402DE9F84398461746EF
:101FC0000D460446089E24E0701C22D0FEF7BCFC9F
:101FD000A0EB0800B0421AD8CEB12068C16849070A
:101FE00017D5802D15D0402D13D00168C94309079E
:101FF0000FD401680025406800902046FFF759FF84
:102000000820606484F840500120BDE8F883032074
:10201000FBE72068006835EA000004D00020B842E1
:10202000D2D00020F1E70120F9E7FEE70FB4054B1D
:1020300010B503A9044A029800F0EAF810BC5DF854
:1020400014FB000019290008140000200907090EDC
:10205000002804DB00F1E02080F80014704700F055
:102060000F0000F1E02080F8141D704702E008C85E
:10207000121F08C1002AFAD170477047002001E002
:1020800001C1121F002AFBD1704700002DE9FF5F3C
:1020900082B00021DDE90430020DDDF840B00343D9
:1020A00018D044F61050A2F2FF3242431514119892
:1020B00001281FD0A5EB0B00401C5FEA000A4FF07F
:1020C00000064E4FDFF83891B046504615D5CAF19C
:1020D000000413E0119801244AA3012801D16FEAFA
:1020E0000B010298119AC0E90031C0E9024206B022
:1020F000BDE8F09FCBF10000DFE704460021404A35
:10210000491842EB0450CDE9001012E0E00707D077
:1021100032463B4640464946FEF711FA804689461C
:1021200032463B4610461946FEF709FA06460F4668
:102130006410002CEAD1DDE90401DDE90023BAF1E5
:10214000000F06DAFEF7FBF942464B46FEF7F7F9B9
:1021500005E0FEF72DF842464B46FEF729F8044607
:102160000E460022284BFEF775FA03D84FF0FF30D9
:10217000014607E00022254B20463146FEF738F99C
:10218000FEF74FFA102409E0002C0ADB0A22002394
:10219000FEF7A0F8039B30321A55641E50EA010284
:1021A000F2D1641C039AC4F111031444119A012A58
:1021B00003D0012208430DD10AE0084304D00020D7
:1021C0004FF0110B119072E7A3EB0B056D1E0DE0A4
:1021D0005B4504DD4FF0000205F1010504E003DA80
:1021E0004FF00002A5F10105002AECD002981199E8
:1021F000C0E90231C0E9004579E700000000144061
:102200000000F03F300000000000F0430000E03F1D
:102210002DE9FF4F95B09A46884606460025EEE127
:10222000252877D100242746F94A0121039400E0AC
:10223000044316F8013F203B01FA03F01042F7D1A6
:1022400030782A2811D06FF02F033078A0F13002B7
:10225000092A16D8039A44F0020402EB820203EB27
:1022600042021044761C0390EFE758F8042B0392C7
:10227000002A03DA504244F40054039044F002046C
:10228000761C30782E2816D116F8010F44F004047D
:102290002A280DD06FF02F023078A0F13003092BDF
:1022A00009D807EB870302EB4303C718761CF3E753
:1022B00058F8047B761C30786C280FD006DC4C284C
:1022C00017D068280DD06A2814D104E0742810D0E3
:1022D0007A280FD10DE044F400140AE044F480148D
:1022E00001E044F440147278824202D104F5801473
:1022F000761C761C307866280BD013DC582877D0F3
:1023000009DC002875D04528F6D04628F4D04728A7
:102310001AD193E118E0632835D0642879D0652874
:1023200012D18BE1702873D008DC6728F1D06928BE
:102330006FD06E280DD06F2806D1ACE073282CD05A
:10234000752874D0782853D05246179990476D1C41
:1023500054E1C4F30250022809D003280DD0D8F864
:10236000001004280DD00D6008F1040846E1D8F8EB
:102370000010EA17C1E90052F6E7D8F800100D8006
:10238000F2E70D70F0E718F8041B8DF8001000203C
:102390008DF80100EB46012003E058F804BB4FF034
:1023A000FF3061074FF0000102D40DE009F1010197
:1023B0008946B9420FDA8145F8DB1BF8091000297C
:1023C000F4D108E009F1010189468142FADB1BF8EA
:1023D00009100029F6D103985346A0EB09072146BE
:1023E0003846179A00F080FA284400EB090507E008
:1023F00044E008E10DE01BF8010B524617999047A5
:10240000B9F10109F7D2534621463846179AF2E04E
:1024100039E00A21C4F302524FF0000B0091022A66
:1024200006D058F8040BC117032A09D00AE023E0AC
:1024300008F1070020F00702F2E80201904605E0EB
:1024400000B2C117042A01D140B2C117002906DA2F
:102450000A460021404261EB02012D2202E02205E2
:1024600004D52B228DF80420012203E0E20701D0DD
:102470002022F7E7914657E00A2100E010214FF0B3
:10248000000B00910BE010214FF0000B44F004040E
:102490000827009103E008204FF0000B0090C4F3E0
:1024A0000252022A05D058F8040B0021032A08D052
:1024B00008E008F1070020F00702F2E80201904668
:1024C00003E080B2042A00D1C0B24FF00009220715
:1024D0002AD53278702A07D0DDF800C08CF0100CB5
:1024E0005CEA0B0C05D00EE040228DF8042001229E
:1024F00008E050EA010306D030238DF804308DF84F
:10250000052002229146009B83F0080353EA0B0347
:102510000AD150EA010201D1620705D530228DF8B7
:1025200004204FF001097F1E3278582A04D039A2C6
:102530000C920CAA02920BE03BA2F9E75B46009AD0
:10254000FDF7C8FE0C9B9B5C029A521E0292137010
:1025500050EA0102F2D1029804A9081A00F1200BF6
:10256000600702D524F4803400E001275F4502DDD6
:10257000A7EB0B0000E0002000EB0B01009003989C
:102580004944401A0390E00306D453462146179A63
:10259000039800F0A9F90544002706E001A8524677
:1025A000C05D179990476D1C7F1C4F45F6DBE0031B
:1025B0000CD553462146179A039800F095F9054427
:1025C00004E030205246179990476D1C0099481E30
:1025D00000900029F5DC08E0029802995246007844
:1025E000491C0291179990476D1CBBF10001ABF19A
:1025F000010BF1DC5BE100F065F90544761C3078F5
:1026000000287FF40DAE19B02846BDE8F08F000019
:1026100009280100303132333435363738396162B8
:10262000636465660000000030313233343536377C
:10263000383941424344454600000000600700D459
:10264000062708F1070020F00700F0E80223804683
:1026500003F0004C5FEA0C0001D097A009E02005D0
:1026600001D596A005E0E00701D095A001E0AFF20A
:102670004C001390307823F0004365280CD006DC22
:10268000452809D046281DD047287FD13BE0662841
:1026900018D067287AD136E00021112F01DB1120F4
:1026A00000E0781CCDE9000104A90CA8FFF7EEFCBE
:1026B000DDE90D010C9A4FF0000B07F101091092B2
:1026C00000914EE04FF000400097CDE9011004A9C1
:1026D0000CA8FFF7DBFCDDE90D020C9B0F994FF016
:1026E000000B91461093009211B9791C00EB01097F
:1026F000B7EB090003D4C0F1FF3B07F10109A9EBD7
:102700000700019042E0012F00DA01270021112F7C
:1027100001DD112000E03846CDE9000104A90CA834
:10272000FFF7B4FCDDE90D010C9A00914FF0000BAE
:10273000B946109221070FD4009A4A4503DA914610
:1027400001E0A9F10109B9F1010F05DD109AA9F124
:102750000101515C3029F4D0B84202DA10F1040FC3
:1027600003DA0121CDE9011010E0002803DC8344E5
:10277000A9EB000102E0411C494500DD8946A0EBC0
:102780000B00401C01904FF000400290200705D440
:102790000198484502DB4FF0FF30019000208DF892
:1027A0004B0002980DF14B07B0F1004F25D00220ED
:1027B0000C902B200D90029800280CDA40420290D9
:1027C0002D200D9007E00A210298FDF76DFD3031B4
:1027D000029007F8011D0C99481E0C900029F2DCAC
:1027E00002980028EFD1791E0D980870307800F01B
:1027F000200040F0450007F8020D11A8C01BC01DC5
:1028000002901398007800B1012000EB09010198B3
:1028100001EBE071029801440398401A401E0390B6
:10282000E00306D453462146179A039800F05CF85B
:1028300005441398007818B15246179990476D1CBB
:10284000E00323D553462146179A039800F04CF82D
:1028500005441BE0BBF1000F07DB0098584504DD81
:102860001098179910F80B0001E017993020524684
:10287000904701980BF1010B401E05F101050190F5
:1028800004D12E205246179990476D1CB9F10001D2
:10289000A9F10109DEDC05E017F8010B5246179992
:1028A00090476D1C0299481E02900029F4DC5346A3
:1028B0002146179A03989EE62D0000002B00000089
:1028C000200000002DE9F041044600251E46174671
:1028D000880404D405E039462020B0476D1C641EEE
:1028E000F9D52846BDE8F0812DE9F04104460025E0
:1028F0001E469046C80301D5302700E020278804F3
:1029000004D505E041463846B0476D1C641EF9D534
:102910002846BDE8F081000013B54FF47A73012218
:1029200069460248FEF7BAFF00981CBDA8000020C7
:102930001CB5FEF717F8FFF7E1F8FFF701F8FFF70E
:102940001DF8FFF765F8FFF7B7F804210E48FEF70A
:10295000DFFE00210D48FEF70DFD0DA0FFF766FB21
:102960004FF47A76FDF7C4FE04460D46FDF7D0FE1F
:10297000CDE9000122462B460EA0FFF757FB30465B
:10298000FDF7D4FEEEE700006000002018000020F4
:10299000BBF1C8A1B6A8CAB1C6F734B5C4D6DCC667
:1029A000DABACDC6B5C2CA68616C2E2E2E210D0AC8
:1029B00000000000743D252E34666D732C20663DAA
:1029C000252E3466487A0D0A000000000102020339
:1029D0000405060708090A0B0C0D0E0F1010000065
:1029E00000000000000001020304060708090000BF
:1029F0000000010203040000182A00080000002063
:102A0000180000006C200008302A00081800002080
:102A1000D80400007C200008000000000100000035
:102A2000100000000000000000127A00000000000A
:0400000508000131BD
:00000001FF
