:020000040800F2
:100000007004002049010008510100085301000854
:1000100055010008570100085901000800000000C0
:100020000000000000000000000000005B0100086C
:100030005D010008000000005F010008A105000844
:100040006301000863010008630100086301000800
:1000500063010008630100086301000863010008F0
:1000600063010008630100086301000863010008E0
:1000700063010008630100086301000863010008D0
:1000800063010008630100086301000863010008C0
:10009000630100086301000863010008E103000830
:1000A00063010008630100086301000863010008A0
:1000B0006301000863010008630100086301000890
:1000C0006301000863010008630100086301000880
:1000D00063010008290600086301000863010008A5
:1000E0009903000863010008630100086301000828
:1000F0006301000863010008630100086301000850
:10010000630100086301000863010008630100083F
:10011000630100086301000863010008630100082F
:10012000630100086301000863010008630100081F
:10013000DFF810D000F030F8004800471D08000834
:10014000AFF300807004002006488047064800474F
:10015000FEE7FEE7FEE7FEE7FEE7FEE7FEE7FEE777
:10016000FEE7FEE7C90500083101000830B50B467F
:10017000014600202022012409E021FA02F59D42D7
:1001800005D303FA02F5491B04FA02F52844151EAB
:10019000A2F10102F1DC30BD064C074D06E0E0683B
:1001A00040F0010394E8070098471034AC42F6D3BE
:1001B000FFF7C2FF600800088008000800B503468A
:1001C00003E04FF47A7000F006F8181EA3F1010165
:1001D0008BB2F6D100BD00EBC001C9004FF0E022A8
:1001E0005161002191610521116100BF4FF0E021B3
:1001F000096901F480310029F8D04FF0E021096944
:1002000021F001014FF0E022116170471348C069ED
:1002100040F000601149C8610846C06940F0805054
:10022000C8610F48006840F480700D4908600B48B1
:10023000006A40F40040094908620846006A20F05C
:10024000010008620846006A20F44070086208460F
:10025000006A40F48070086270470000001002409D
:10026000007000400148008870470000086C0040A2
:100270000B48806940F0040009498861094800681A
:1002800040F0330007490860081D006840F0030093
:10029000091D08600846006820F00C0008607047DF
:1002A0000010024000080140024909680143014A68
:1002B000116070470C080140024909688143014AF6
:1002C000116070470C08014000B5034605480068FE
:1002D000184018B91846FFF7E7FF02E01846FFF785
:1002E000EBFF00BD0808014010B500F093F81F486F
:1002F000008840F020001D4908800846008840F032
:100300001000088003200246194B19684FF6FF03BE
:100310001940184B0B4343EA0221154B196000BFEB
:1003200025200321002808DA0A07140E104A0C328F
:1003300000F00F031B1FD45403E00A07130E0E4AEC
:10034000135400BF252000F01F02012191404209F3
:10035000920002F1E022C2F8001100BF03480088B9
:1003600040F400500149088010BD00000C380140E5
:100370000CED00E00000FA0500E400E000BF0549D4
:10038000098801F080010029F9D00249091D08807F
:10039000704700000038014010B50A48006800F4BA
:1003A000806070B14FF480600649086006480068BC
:1003B00000F4806010B10120FFF786FF03A000F079
:1003C0005BF910BD14040140081C01404558544914
:1003D00031305F49525148616E646C65720D0A009C
:1003E00010B50A48006800F4807070B14FF4807056
:1003F000064908600A20FFF7E1FE0548006800F49E
:10040000807010B90220FFF75FFF10BD1404014097
:10041000081C01402548806940F4804023498861D8
:100420000846806940F0040088612148006840F077
:1004300030001F4908600846006840F080000860EE
:100440000846006820F0400008600846006820F474
:10045000407008600846006840F480600860084604
:10046000006820F40060086040F2712011490880A3
:10047000081D008820F48050091D08800846008867
:1004800020F480600880081D008820F44050091D79
:100490000880081F008840F00400091F08800846F3
:1004A000008840F0080008807047000000100240FB
:1004B000040801400838014010B500F001F810BDF3
:1004C0000CB50020019000903348006840F4803063
:1004D0003149086000BF3048006800F400300090E7
:1004E0000198401C0190009818B90198B0F5A06FD0
:1004F000F1D12948006800F4003010B101200090CB
:1005000001E0002000900098012843D123480068B2
:1005100040F01000214908600846006820F00700FC
:1005200008600846006840F0020008601A48406809
:10053000194948600846406848600846406840F4E9
:10054000806048600846406820F47C104860084697
:10055000406840F4E81048600846006840F0807049
:10056000086000BF0C48006800F000700028F9D057
:100570000948406820F00300074948600846406881
:1005800040F00200486000BF0348406800F00C00E3
:100590000828F9D10CBD00000010024000200240E4
:1005A00010B508480088401C0649088008460088A5
:1005B000B0F57A7F04D1002008800120FFF784FE87
:1005C00010BD00000200002010B51348006840F084
:1005D00001001149086008464068104908400E496A
:1005E0004860084600680E4908400B490860084604
:1005F000006820F4802008600846406820F4FE006F
:1006000048604FF41F008860FFF756FF4FF000600E
:100610000449086010BD0000001002400000FFF80F
:10062000FFFFF6FE08ED00E00F48008800F0200014
:1006300058B10D48001D00880C490D4A12788854A5
:100640000B480078401C0A4908700748008800F0F1
:10065000100038B1044800880348001D00880120BC
:10066000044908707047000000380140080000206D
:1006700000000020010000200FB4054B10B503A9B5
:10068000044A029800F018F810BC5DF814FB000052
:100690000D0800080400002002E008C8121F08C16D
:1006A000002AFAD170477047002001E001C1121FF3
:1006B000002AFBD1704700002DE9FF4F89B09B460F
:1006C0000446002506E025280BD05A460B99904792
:1006D000641C6D1C20780028F5D10DB02846BDE8BB
:1006E000F08F0027B8460122474900E0074314F87D
:1006F000013F203B02FA03F00842F7D120782E2870
:1007000019D114F8010F47F004072A280ED06FF012
:100710002F022078A0F1300109290CD808EB8801BC
:1007200002EB410100EB0108641CF2E70A98641C2B
:1007300050F8048B0A9020780028CED0642808D086
:10074000692806D075281ED05A460B9990476D1C13
:1007500058E00A994FF00A0901C90A91002802DA03
:1007600040422D2102E0390504D52B218DF82010BF
:10077000012103E0F90704D02021F7E78A4608AEFB
:100780000DE00021FAE70A994FF00A0901C90A9120
:10079000F7E74946FFF7EAFC303106F8011D00286B
:1007A000F7D1ADEB060000F12009780701D44FF036
:1007B0000108C84502DDA8EB090000E000208046E2
:1007C000002706E008A85A46C05D0B9990476D1CAB
:1007D0007F1C5745F6DB04E030205A460B999047C2
:1007E0006D1CB8F10001A8F10108F5DC05E016F870
:1007F000010B5A460B9990476D1CB9F10001A9F104
:100800000109F4DC641C65E70928010000B5024613
:100810000B46D0B2FFF7B2FD104600BDFFF764FDF6
:10082000FFF726FD40F20310FFF73EFD4FF4807006
:10083000FFF742FDFFF7EAFCFFF714FD04462146EF
:1008400002A0FFF719FF00BFFEE70000424B502057
:1008500044523120646174613D25640D0A0000003A
:10086000800800080000002008000000980600082A
:10087000880800080800002068040000A806000896
:08088000000000000000000070
:0400000508000131BD
:00000001FF
