:020000040800F2
:100000007004002049010008510100085301000854
:1000100055010008570100085901000800000000C0
:100020000000000000000000000000005B0100086C
:100030005D010008000000005F0100086101000888
:100040006301000863010008630100086301000800
:1000500063010008630100086301000863010008F0
:1000600063010008630100086301000863010008E0
:1000700063010008630100086301000863010008D0
:1000800063010008630100086301000863010008C0
:1000900063010008630100086301000863010008B0
:1000A00063010008630100086301000863010008A0
:1000B0006301000863010008630100086301000890
:1000C0006301000863010008630100086301000880
:1000D00063010008BD060008630100086301000811
:1000E0006301000863010008630100086301000860
:1000F0006301000863010008630100086301000850
:10010000630100086301000863010008630100083F
:10011000630100086301000863010008630100082F
:10012000630100086301000863010008630100081F
:10013000DFF810D000F02CF8004800473108000824
:10014000AFF300807004002006488047064800474F
:10015000FEE7FEE7FEE7FEE7FEE7FEE7FEE7FEE777
:10016000FEE7FEE75D06000831010008D2B201E0BB
:1001700000F8012B491EFBD270470022F6E710B5AC
:1001800013460A4604461946FFF7F0FF204610BD05
:10019000064C074D06E0E06840F0010394E80700D4
:1001A00098471034AC42F6D3FFF7C6FFE4080008C6
:1001B0000409000800B5034603E04FF47A7000F02C
:1001C00006F8181EA3F101018BB2F6D100BD00EBB9
:1001D000C001C9004FF0E022516100219161052169
:1001E000116100BF4FF0E021096901F4803100295D
:1001F000F8D04FF0E021096921F001014FF0E02231
:10020000116170470348008840F48060014908800C
:1002100070470000005800401B48C06940F480004F
:100220001949C8610846806940F00800886117488C
:10023000006840F47F40154908601548008820F0A8
:10024000020013490880081D008840F02400091DA1
:1002500008800F481C30008820F400400C491C31F5
:1002600008800846008840F0B4000880081D008817
:1002700040F02500091D08800548008840F0010075
:10028000034908807047000000100240040C014040
:10029000005800400348008820F48060014908802D
:1002A00070470000005800404FF6FF7101E04A1E01
:1002B00091B2074A128802F040020AB90029F6D129
:1002C00019B1034A121F128800E00022D0B2704711
:1002D0001458004002464FF6FF7101E0481E81B2FB
:1002E0000D48008800F0800008B90029F6D10A48BE
:1002F000001F02804FF6FF7101E0481E81B20648E0
:10030000008800F0040008B90029F6D109B10120E5
:1003100070470020FCE70000145800400B4800889C
:1003200040F48070094A10804FF6FF7101E0481ECA
:1003300081B206481430008800F0010008B9002995
:10034000F5D109B1012070470020FCE700580040BA
:100350000348008840F4007001490880704700009D
:100360000058004000B500F0B3F80348008840F49E
:1003700000500149088000BD0C38014000BF05490C
:10038000098801F080010029F9D00249091D08807F
:10039000704700000038014002464FF6FF7101E04F
:1003A000481E81B20F48008800F0800008B900297B
:1003B000F6D10C48001F02804FF6FF7101E0481E85
:1003C00081B20848008800F0020008B90029F6D17F
:1003D00011B10448001D008809B1012070470020B8
:1003E000FCE700001458004010B5FFF715FF10BDE2
:1003F00070B50446FFF792FFA020FFF7CDFF20461F
:10040000FFF768FFFFF78AFFA120FFF7C5FFFFF79F
:1004100041FFFFF79DFFFFF747FF0546284670BDE8
:100420002DE9F04107460E461546FFF777FFA0205D
:10043000FFF7B2FF3846FFF74DFFFFF76FFFA12030
:10044000FFF7AAFF00240EE0681EA04202DDFFF7BE
:10045000D9FE03E0FFF71EFFFFF77AFFFFF724FF47
:100460003055601CC4B2AC42EEDBBDE8F08170B523
:1004700005460C46FFF752FFA020FFF78DFF2846E8
:10048000FFF728FF2046FFF725FFFFF761FF052054
:10049000FFF790FE70BD2DE9F04107460D46164668
:1004A000FFF73CFFA020FFF777FF3846FFF712FF6A
:1004B000002404E0285DFFF70DFF601CC4B2B442C5
:1004C000F8DBFFF745FF0520FFF774FEBDE8F0817C
:1004D0002548806940F48040234988610846806946
:1004E00040F0040088612148006840F030001F4956
:1004F00008600846006840F0800008600846006810
:1005000020F0400008600846006820F44070086051
:100510000846006840F4806008600846006820F4DF
:100520000060086040F2712011490880081D0088B1
:1005300020F48050091D08800846008820F480605F
:100540000880081D008820F44050091D0880081FFD
:10055000008840F00400091F08800846008840F029
:1005600008000880704700000010024004080140A5
:100570000838014010B500F001F810BD0CB500209E
:10058000019000903348006840F4803031490860A1
:1005900000BF3048006800F4003000900198401C13
:1005A0000190009818B90198B0F5A06FF1D12948D1
:1005B000006800F4003010B10120009001E000203C
:1005C00000900098012843D12348006840F01000B3
:1005D000214908600846006820F0070008600846C6
:1005E000006840F0020008601A48406819494860F5
:1005F0000846406848600846406840F480604860AB
:100600000846406820F47C1048600846406840F482
:10061000E81048600846006840F08070086000BF3D
:100620000C48006800F000700028F9D009484068C4
:1006300020F00300074948600846406840F0020087
:10064000486000BF0348406800F00C000828F9D15A
:100650000CBD0000001002400020024010B51348FD
:10066000006840F0010011490860084640681049E0
:1006700008400E494860084600680E4908400B498A
:1006800008600846006820F480200860084640683A
:1006900020F4FE0048604FF41F008860FFF76AFFF7
:1006A0004FF000600449086010BD000000100240D7
:1006B0000000FFF8FFFFF6FE08ED00E00F4800889D
:1006C00000F0200058B10D48001D00880C490D4A6B
:1006D000127888540B480078401C0A490870074873
:1006E000008800F0100038B1044800880348001D5D
:1006F000008801200449087070470000003801405C
:100700000000002064000020650000200FB4054BAD
:1007100010B503A9044A029800F017F810BC5DF860
:1007200014FB0000210800086800002002E008C84F
:10073000121F08C1002AFAD170477047002001E05B
:1007400001C1121F002AFBD170472DE9F84F9946CD
:10075000924688460546002706E025280AD05146DD
:100760004A4690476D1C7F1C28780028F5D13846F2
:10077000BDE8F88F002315F8011F18462E2915D162
:1007800015F8011F04232A290DD06FF02F022978B4
:10079000A1F13004092C09D800EB800002EB4000E5
:1007A00008446D1CF3E758F8040B6D1C2A78002AE6
:1007B000DDD0632A07D0732A0FD0104651464A462F
:1007C00090477F1C2AE018F8042B8DF800200021A8
:1007D0008DF801106E46012103E058F8046B4FF0CC
:1007E000FF315A074FF0000401D409E0641C844231
:1007F0000BDA8C42FADB325D002AF7D105E0641C8B
:100800008C42FCDB305D0028F9D1274404E016F867
:10081000010B51464A469047641EF8D26D1CA3E76F
:1008200000B502460B46D0B2FFF7A8FD104600BD4A
:10083000C0B0FFF797FDFFF7D7FD1CA0FFF766FFDD
:1008400061210020FFF713FE0020FFF7D1FD0446D1
:1008500021461EA0FFF75AFF06221EA10020FFF727
:100860001AFE0320FFF7C4FD05460520FFF7C0FD73
:100870000646294615A0FFF749FF314613A0FFF7AA
:1008800045FF4FF480716846FFF777FC0322694605
:100890000120FFF7C5FD694610A0FFF737FF4FF4B1
:1008A00080716846FFF769FC00BFFEE748656C6C25
:1008B0006F20737563636573732048617264576159
:1008C000726520493243210D0A00000025630D0A9C
:1008D00000000000313233343536000025730D0A34
:1008E0000000000004090008000000206C00000067
:1008F0002C070008700900086C00002004040000A8
:100900003C0700083000000000000000000000006C
:1009100000000000000000000000000000000000D7
:1009200000000000000000000000000000000000C7
:1009300000000000000000000000000000000000B7
:1009400000000000000000000000000000000000A7
:100950000000000000000000000000000000000097
:100960000000000000000000000000000000000087
:0400000508000131BD
:00000001FF
