:020000040800F2
:10000000A0040020490100089F0E0008BD0D000853
:100010009D0E0008B50100086910000800000000EE
:10002000000000000000000000000000A30E000817
:10003000B701000800000000A10E0008A50E00088E
:100040006301000863010008630100086301000800
:1000500063010008630100086301000863010008F0
:1000600063010008630100086301000863010008E0
:1000700063010008630100086301000863010008D0
:1000800063010008630100086301000863010008C0
:1000900063010008630100086301000863010008B0
:1000A00063010008630100086301000863010008A0
:1000B0006301000863010008630100086301000890
:1000C0006301000863010008630100086301000880
:1000D0006301000863010008630100086301000870
:1000E0006301000863010008630100086301000860
:1000F0006301000863010008630100086301000850
:10010000630100086301000863010008630100083F
:100110006301000863010008090F0008630100087B
:10012000630100086301000863010008630100081F
:10013000DFF810D000F02CF800480047A9100008A4
:10014000AFF30080A004002006488047064800471F
:10015000FEE7FEE7FEE7FEE7FEE7FEE7FEE7FEE777
:10016000FEE7FEE7070F000831010008D2B201E008
:1001700000F8012B491EFBD270470022F6E710B5AC
:1001800013460A4604461946FFF7F0FF204610BD05
:10019000064C074D06E0E06840F0010394E80700D4
:1001A00098471034AC42F6D3FFF7C6FFF4100008AE
:1001B00014110008FEE7704772B6FEE72DE9F84F0C
:1001C000DFF8C8910024A9F1040B23460F2709F199
:1001D000040AABF1040ED1E00125A54006EA0502B0
:1001E000AA4276D1DFF8A8C14E68A6EB0C08664596
:1001F0002BD00DDC032E34D005DC36B3012E19D004
:10020000022E2FD11BE0112E16D0122E2AD119E06A
:10021000B8F5881F19D006DCB8F5803F15D0B8F5C1
:10022000801F1FD111E0B8F5001F0ED0B8F5041FD4
:1002300018D10AE0CB6815E0CB681B1D12E0CB6833
:1002400008330FE0CB680C330CE08B682BB1012B2B
:100250004FF0080303D0456104E0042302E0056188
:1002600000E00023FF2A01D8064601E000F1040661
:100270004FEA840501D9A5F12005D6F8008007FAD8
:1002800005FC28EA0C0803FA05F548EA0508C6F853
:1002900000804D68ED0070D53E4DAE6946F0010618
:1002A000AE61AD6924F0030605F0010500953A4DF5
:1002B00006EB050CDCF80850A607360F07FA06F81F
:1002C00025EA0805DFF8D480404503D14FF0000847
:1002D00025E052E0DFF8C880404502D14FF0010828
:1002E0001DE0DFF8C080404502D14FF0020816E063
:1002F000DFF8B480404502D14FF003080FE0DFF88B
:10030000AC80404502D14FF0040808E0DFF8A0803F
:10031000404502D14FF0050801E04FF0060808FA09
:1003200006F848EA0508CCF808804D68D9F800605E
:10033000ED024D4601D5164300E096432E604D6810
:10034000DAF80060AD02554601D5164300E0964349
:100350002E604D68DBF80060AD035D4601D51643A5
:1003600000E096432E604D68DEF80060ED037546B0
:1003700001D5164300E096432E60641C0A681646B9
:10038000E2407FF429AFBDE8F88F00000804014087
:100390000000111000100240000001400008014060
:1003A000000C014000100140001401400018014001
:1003B000001C0140C26821EA02030A4043EA0241EC
:1003C000016170470AB1016170470904FBE7000051
:1003D00001488068704700000000002002488168E2
:1003E000027811448160704700000020074810B572
:1003F000016841F010010160032000F075F80F2042
:1004000000F006F800F024F8002010BD00200240A3
:1004100070B50D4D04464FF47A712878B1FBF0F0B9
:100420000A490968B1FBF0F000F0DCFA48B9102C79
:1004300007D200222146501E00F036F800206C60E2
:1004400070BD012070BD0000000000200C000020E5
:100450000C4808B5816941F001018161816901F0B1
:1004600001010091C16941F08051C161C06900F092
:10047000805000900448416821F0E06141F0007133
:10048000416008BD0010024000000140002809DB67
:1004900000F01F02012191404009800000F1E0209E
:1004A000C0F8001170470000F0B40E4B1B680C46FA
:1004B000C3F30223C3F10705042D00D90425191D38
:1004C000072901D2002300E0DB1E012606FA05F110
:1004D000491E214099409E40761E16403143F0BC93
:1004E00000F0C3BD0CED00E0064900F0070208680B
:1004F0004FF6FF03184040EA0220034A1043086009
:10050000704700000CED00E00000FA052DE9F0470F
:100510000F46050061D0434E306800F00700B84236
:1005200009D2306820F0070038433060306800F0AE
:100530000700B84251D128683B4C810712D54007CB
:1005400003D5606840F4E06060602878000703D558
:10055000606840F4605060606068A96820F0F00056
:10056000084360602878C00728D06868012810D048
:100570002168022810D0890700292EDA616821F04D
:10058000030101436160FFF723FF804641F2883990
:100590000DE021688903EFE78901EDE7FFF718FF18
:1005A000A0EB0801494502D90320BDE8F087606847
:1005B000696800F00C00B0EB810FEFD1306800F0FB
:1005C0000700B8420BD9306820F00700384330608C
:1005D000306800F00700B84201D00120E5E7287834
:1005E000400705D56068E96820F4E0600843606072
:1005F0002878000706D56068296920F4605040EA31
:10060000C100606000F038F86168084AC1F3031166
:10061000515CC8400649086006480068FFF7F8FECC
:100620000020C2E70020024000100240DA1000085B
:100630000C000020040000200448054900684968B7
:10064000044AC1F30221515CC84070470C000020ED
:1006500000100240EA100008044805490068496893
:10066000044AC1F3C221515CC84070470C0000200D
:1006700000100240EA1000080E4A51680E4801F0CE
:100680000C03042B11D0082B0FD10C48C1F383436A
:10069000C903C05C0AD55168084AC1F34041921EA3
:1006A000515C054A5043B0FBF1F0704704494843A0
:1006B000704700000010024000127A00CA100008C3
:1006C00000093D002DE9F84F040070D02078C04D9E
:1006D000C00749D06868C0F38100012807D0686866
:1006E000C0F38100022809D16868C00306D52868D4
:1006F000800339D560680028E7D035E06068B0F540
:10070000803F0BD010B1B0F5A02F11D0286820F495
:1007100080302860286820F4802002E0286840F4B7
:1007200080302860606890B1FFF752FE06460AE00C
:10073000286840F480202860F0E700BFFFF748FEFB
:10074000801B642873D828688003F7D50CE0FFF776
:100750003FFE064605E000BFFFF73AFE801B642817
:10076000F0D828688003F7D420789A4E80074FF09D
:1007700001094FF0000839D5686810F00C0F07D058
:100780006868C0F38100022809D16868C00306D4F4
:100790002868800714D52069012808D110E0206955
:1007A000B0B1C6F80090FFF713FE074605E00AE176
:1007B000FFF70EFEC01B0228C4D828688007F7D5B3
:1007C0002868616920F0F80040EAC10028600DE067
:1007D000C6F80080FFF7FCFD074604E0FFF7F8FDD0
:1007E000C01B022823D828688007F7D42078000788
:1007F0002CD57948A169D9B1C0F80090FFF7E8FD80
:10080000074604E0FFF7E4FDC01B02280FD8686A22
:100810008007F7D571484FF4FA510068B0FBF1F04A
:10082000009000BF0098411E0091FAD20EE080E0D7
:10083000C0F80080FFF7CCFD074604E0FFF7C8FDD5
:10084000C01B022875D8686A8007F7D42078400753
:1008500060D5E8690027C00008D4E86940F08050FE
:10086000E861E869012700F0805000905C48016869
:10087000C90513D40168834641F480710160FFF714
:10088000A7FD824606E000BFFFF7A2FDA0EB0A002D
:1008900064284ED8DBF80000C005F5D5E0680128D3
:1008A0000AD008B1052813D0286A20F00100286278
:1008B000286A20F0040002E0286A40F00100286263
:1008C000E06841F2883B98B1FFF782FD82460BE079
:1008D000286A40F004002862EEE700BFFFF778FDC9
:1008E000A0EB0A0159455AD8286A8007F6D50CE0D2
:1008F000FFF76EFD824605E0FFF76AFDA0EB0A01F7
:1009000059454CD8286A8007F6D41FB1E86920F011
:100910008050E861E06988B36968C1F38101022908
:1009200044D00228C6F8608004D0FFF751FD044689
:1009300038E034E0FFF74CFD074604E0FFF748FDE0
:10094000C01B02282BD828688001F7D4206AB0F594
:10095000803F05D16868A16820F4003008436860D2
:10096000D4E908010843696821F4741108436860F8
:10097000C6F86090FFF72CFD044606E025E000BFB6
:10098000FFF726FD001B022809D828688001F7D54B
:100990001BE000BFFFF71CFD001B022802D903204B
:1009A000BDE8F88F28688001F4D40EE00128F7D064
:1009B0006868226A00F48031914204D1616A00F4CF
:1009C0007010884201D00120EAE70020E8E700002B
:1009D0000010024000004242800442420C0000200D
:1009E0000070004010B5401EB0F1807F01D301209F
:1009F00010BD4FF0E02460610F21601700F035FB5F
:100A00000020A06107202061002010BD70477047C2
:100A100070B590F83C20012A2CD0012480F83C408D
:100A2000022280F83D2003685A689D6822F0700613
:100A30000A6832435A60104B02689A420ED00F4B3C
:100A40009A420BD0B2F1804F08D00D4B9A4205D09C
:100A50000C4B9A4202D00C4B9A4204D1496825F0C3
:100A600080031943916080F83D40002180F83C10DC
:100A7000084670BD022070BD002C014000340140CA
:100A80000004004000080040000C004010B50400C5
:100A900003D094F83D0010B107E0012010BD002004
:100AA00084F83C00204600F01FF8022084F83D0046
:100AB000211D206800F02EFA012084F8460084F8F9
:100AC0003E0084F83F0084F8400084F8410084F838
:100AD000420084F8430084F8440084F8450084F818
:100AE0003D00002010BD000008B500680B49884299
:100AF00012D10B48C16941F01001C161C0690022E7
:100B000000F01000009011463620FFF7CDFCBDE844
:100B100008403620FFF7BABC08BD000000100040B6
:100B20000010024090F83D10012901D001207047CB
:100B3000022180F83D100168CA6842F00102CA60D3
:100B400000680E4988420ED00D4988420BD0B0F1A2
:100B5000804F08D00B49884205D00B49884202D00B
:100B60000A49884204D1816801F00701062903D0AF
:100B7000016841F00101016000207047002C014034
:100B8000003401400004004000080040000C004018
:100B900070472DE9F04104460068C66805694FF0CA
:100BA0000007A90713D5B10711D5F91E016101206E
:100BB0002077206880698007204602D0FFF7E8FF91
:100BC00004E000F07EF8204600F07CF82777680704
:100BD00016D5700714D521686FF004000861022053
:100BE00020772068806910F4407F204602D0FFF70C
:100BF000CFFF04E000F065F8204600F063F82777A7
:100C0000280715D5300713D521686FF00800086153
:100C1000042020772068C0698007204602D0FFF7B3
:100C2000B7FF04E000F04DF8204600F04BF82777BE
:100C3000E80616D5F00614D521686FF0100008619B
:100C4000082020772068C06910F4407F204602D039
:100C5000FFF79EFF04E000F034F8204600F032F881
:100C60002777E80708D0F00706D021686FF0010069
:100C70000861204600F028F8280608D5300606D579
:100C800021686FF0800008612046FFF7BFFE68060C
:100C900008D5700606D521686FF04000086120462F
:100CA00000F020F8A8060AD5B00608D521686FF034
:100CB000200008612046BDE8F041FFF7A8BEBDE86E
:100CC000F08170477047000000680449884203D1F2
:100CD00001210348FFF76EBB704700000010004081
:100CE00000080140704770B5040004D094F841003A
:100CF000002510B106E0012070BD84F84050204668
:100D000000F024F8242084F841002068C16821F410
:100D10000051C160204600F04BF92068016921F4C0
:100D2000904101612068416921F02A0141612068F8
:100D3000C16841F40051C1606564202084F841001D
:100D400084F842006563002070BD000030B585B0B6
:100D5000002400940194029403940068144988428A
:100D600024D11448816941F480418161816901F491
:100D700080410491816941F00401816180690E4DD7
:100D800000F0040004904FF40070009002200190E5
:100D90000320039069462846FFF710FA2815CDE98D
:100DA0000004694628460294FFF708FA05B030BDF2
:100DB000003801400010024000080140FEE700003A
:100DC00030B585B000241348009401940294039434
:100DD000816941F010018161816901F01001049184
:100DE000816941F00401816180690B4D00F00400CC
:100DF0000122049011462846FFF7E4FA032001215E
:100E000003900091CDE9011469462846FFF7D6F911
:100E100005B030BD00100240000801401CB50024A0
:100E20000F4800940D490194016041F61F41C0E94B
:100E3000011442F20F718461C160FFF727FE08B10F
:100E4000FFF7BAF90094694605480194FFF7E0FD01
:100E5000002801D0FFF7B0F91CBD000000100040D1
:100E6000100000200C4810B50A4901604FF4E13130
:100E70004160002181600C22C160C0E904128161DF
:100E8000C161FFF730FF002803D0BDE81040FFF735
:100E900093B910BD0038014058000020FEE7FEE77E
:100EA00070477047FFF79ABA30B58FB0282168466F
:100EB000FFF763F914210AA8FFF75FF9012108047D
:100EC000CDE900100024029402250491CDE90750D9
:100ED0004FF4E01009906846FFF7F4FB08B172B6D2
:100EE000FEE70F20CDE90A054FF48060CDE90C4004
:100EF00002210AA80E94FFF709FB002801D072B660
:100F0000FEE70FB030BD70470148FFF742BE00005A
:100F100010000020F0B50268204C214D214E224FD8
:100F2000224B4FF0804CA04209D0984207D0604538
:100F300005D0A84203D0B04201D0B84204D122F07B
:100F4000700E4A6842EA0E02A04209D0984207D0C9
:100F5000604505D0A84203D0B04201D0B84203D1C9
:100F600022F44075CA682A434D6922F080022A4360
:100F700002608A68C2620A688262A04201D0984216
:100F800001D109690163012141610169C90703D0E8
:100F9000016921F001010161F0BD0000002C014058
:100FA0000004004000080040000C004000340140F4
:100FB00070B5044600680169E26821F440511143AC
:100FC00001612169A0680843616908432168CA6812
:100FD00041F20C639A430243CA6020684169A269E6
:100FE00021F44071114341611E492068884202D1B9
:100FF000FFF732FB01E0FFF71FFB00EBC00101EB45
:101000000012606864218000B2FBF0F3B3FBF1F3DF
:101010006FF018067343B2FBF0F5B2FBF0F605EB88
:101020008305322303EB0515B5FBF1F5B6FBF1F6AD
:1010300005F0F00505EB0615B2FBF0F6B2FBF0F09B
:10104000B0FBF1F06FF01802504306EB800003EBA9
:101050000010B0FBF1F0216800F00F002844886018
:1010600070BD000000380140FEE70907090E0028A6
:1010700004DB00F1E02080F80014704700F00F005E
:1010800000F1E02080F8141D704702E008C8121F2C
:1010900008C1002AFAD170477047002001E001C161
:1010A000121F002AFBD17047FFF7A0F9FFF7FCFEE3
:1010B000FFF786FEFFF7B2FEFFF7D4FE0148FFF709
:1010C00031FDFEE7100000200102020304050607BF
:1010D00008090A0B0C0D0E0F101000000000000094
:1010E00000000102030406070809000000000102D5
:1010F000030400001411000800000020100000008C
:101100008A1000082411000810000020900400003C
:101110009A1000080100000010000000000000000C
:0411200000127A003F
:0400000508000131BD
:00000001FF
