:020000040800F2
:10000000D8040020490100088D1E0008731D000857
:10001000891E000855080008412100080000000062
:10002000000000000000000000000000BD1E0008ED
:100030008508000800000000911E0008BF1E00088F
:100040006301000863010008630100086301000800
:1000500063010008630100086301000863010008F0
:1000600063010008630100086301000863010008E0
:1000700063010008630100086301000863010008D0
:1000800063010008630100086301000863010008C0
:1000900063010008630100086301000863010008B0
:1000A00063010008630100086301000863010008A0
:1000B0006301000863010008630100086301000890
:1000C0006301000863010008630100086301000880
:1000D0006301000863010008630100086301000870
:1000E0006301000863010008630100086301000860
:1000F0006301000863010008630100086301000850
:10010000630100086301000863010008630100083F
:10011000630100086301000863010008630100082F
:10012000630100086301000863010008630100081F
:10013000DFF810D000F0A6FA00480047652A000852
:10014000AFF30080D80400200648804706480047E7
:10015000FEE7FEE7FEE7FEE7FEE7FEE7FEE7FEE777
:10016000FEE7FEE7491F000831010008202A04DBF2
:10017000203A21FA02F00021704721FA02F3D04020
:10018000C2F120029140084319467047D2B201E003
:1001900000F8012B491EFBD270470022F6E710B58C
:1001A00013460A4604461946FFF7F0FF204610BDE5
:1001B0002DE9FE4F81EA030404F0004421F00041E0
:1001C00000944FF0000B23F0004350EA01045ED08E
:1001D00052EA03045BD0C3F30A54C1F30A552C441A
:1001E000A4F2F3340194A0FB0254C1F3130141F4CF
:1001F0008011C3F3130343F4801301FB024400FB9B
:10020000034E840A970A44EA815447EA8357A4FBC1
:10021000076802958D0A05FB07854FEA932C04FBBE
:100220000C542705029D4FEA065847EA1637B5EBEE
:1002300008056EEB070C870E920E47EA811742EA1B
:100240008312A7FB0201B6EB0B0164EB00042B0D3C
:1002500043EA0C335E1844EB1C50DA465146E7FB88
:100260000201C5F313044FEA0B3343EA14534FEA78
:100270000432019C43EA0603A4F10C040294009C9E
:10028000CDE900B400F0D8F803B0BDE8F08F00204D
:100290000146F9E72DE9F04D81EA030404F0004B33
:1002A00021F0004514464FF0000A23F0004150EAC7
:1002B000050220D054EA01021DD0C5F30A570246B8
:1002C000C5F31303C1F31300C1F30A5640F48015BC
:1002D00043F48013A7EB0608101BD64608F2FD383E
:1002E00073EB050002D308F1010801E092185B41AD
:1002F000B8F1000F03DA00200146BDE8F08D0020C0
:100300004FF48011064684460EE0171B73EB050779
:1003100005D3121B63EB050306434CEA010C4908A5
:100320004FEA300092185B4150EA0107EDD152EAE2
:10033000030012D082EA040083EA0501084305D0D5
:10034000101BAB4106D20122002306E000224FF031
:10035000004302E06FF0010253101AEB06004CEB71
:10036000085110EB0A0041EB0B01BDE8F04D00F025
:1003700054B80EB540F2334102910021CDE900118D
:100380000A460B4600F058F803B000BD30B50B46E6
:10039000014600202022012409E021FA02F59D42B5
:1003A00005D303FA02F5491B04FA02F52844151E89
:1003B000A2F10102F1DC30BD2DE9F05F054600201D
:1003C00092469B4688460646814640241BE02846C6
:1003D000414647462246FFF7C9FE53465A46C01AD1
:1003E000914110D311461846224600F05DF92D1AAE
:1003F00067EB01084F4622460120002100F054F926
:1004000017EB00094E41201EA4F10104DFDC484631
:1004100031462A464346BDE8F09F10B5141E73F1DD
:10042000000408DA401C41F1000192185B411A43B4
:1004300001D120F0010010BD2DE9F04D92469B4600
:1004400011B1B1FA81F202E0B0FA80F220329046A6
:1004500000F02AF904460F4640EA0A0041EA0B017F
:1004600053465A46084313D0114653EA010019D0A7
:10047000C8F140025046FFF779FE05460E46504649
:100480005946424600F010F9084305D0012004E027
:1004900020463946BDE8F08D0020054346EAE07667
:1004A0002C4337430A986305E40AA0EB08000022B6
:1004B000FD0A44EA47540A3002D500200146E9E724
:1004C000010510196941DDE9084500196941BDE8D8
:1004D000F04DA2E72DE9FE4F804681EA0300C00FF0
:1004E0000C46009021F0004123F00045B8EB0200DB
:1004F000A94105D24046214690461C460B4602467D
:1005000023F00040104347D0270DC7F30A00C3F380
:100510000A510290401A019040286BDAC3F313008D
:1005200040F4801B0098924620B10023D2EB030ACE
:1005300063EB0B0B01985946C0F14002504600F0A6
:10054000B3F806460D4650465946019A00F0BBF8EE
:1005500010EB08006141002487EA115284EAE77336
:100560001A4340D0009A62B3019A012A4FEA075217
:1005700015DC001B61EB02014FF0004202EA07525A
:10058000CDE90042001C41F5801132462B46FFF7B1
:1005900053FF03B0BDE8F08F40462146F9E7001B4A
:1005A00061EB0201001C41F5801300185B4120182B
:1005B000A2F5001747EB030140EAD570B6196D416B
:1005C00011E06D084FEA360645EAC0754FEA07525A
:1005D000001B61EB0201001C41F5801149084FEA44
:1005E00030000019514132462B4603B0BDE8F04FB0
:1005F000FFF713BF0098012240000023D0EB020256
:1006000063EBE073009821464FEAE074B8EB00001A
:1006100061EB0401E9E783F000435BE781F000410F
:1006200058E7C1F30A52C1F3130140F2FF3341F41A
:1006300080119A4202DA00200146704740F23343AB
:100640009A42A2F2334202DC5242FFF78FBD00F021
:100650002BB8000030B5041E71F1000404DB4FF02C
:100660000044404264EB0101141E73F1000405DBF9
:100670001C464FF00043524263EB0403994208BF0B
:10068000904230BD064C074D06E0E06840F00103A3
:1006900094E8070098471034AC42F6D3FFF74CFDBE
:1006A0006C2B00088C2B0008202A04DB203A00FA6F
:1006B00002F1002070479140C2F1200320FA03F3B9
:1006C000194390407047202A06DBCB17203A41FAA5
:1006D00002F043EAE07306E041FA02F3D040C2F1CF
:1006E0002002914008431946704770B50446002522
:1006F0002068806800F0010018B32068806820F04E
:1007000001002168886000F085FD054613E000F0D7
:1007100081FD401B02280ED92068806800F001008E
:1007200048B1A06A40F01000A062E06A40F0010009
:10073000E062012070BD2068806800F001000028A0
:10074000E5D10020F6E770B505466C6AA06A00F0B6
:100750005000E0B9A06A40F40070A0622068806890
:1007600000F46020B0F5602F0DD1207B58B9A06A4D
:1007700020F48070A062A06A00F4805018B9A06ACA
:1007800040F00100A062204600F030F903E0206A4A
:10079000016B2846884770BD70B505466C6AA06A33
:1007A00040F04000A062E06A40F00400E0622046B1
:1007B00000F01EF970BD70B50446656A284600F069
:1007C00016F970BD38B50446002500200090206859
:1007D000806800F0010078BB2068806840F001006C
:1007E00021688860194800681949B0FBF1F0009051
:1007F00002E00098401E009000980028F9D100F017
:1008000009FD054619E000F005FD401B022814D93A
:100810002068806800F0010078B9A06A40F01000FC
:10082000A062E06A40F00100E06200BF002084F8AE
:10083000240000BF012038BD05E02068806800F07A
:1008400001000028DFD00020F5E7000014000020A0
:1008500040420F0000BFFEE730B590F84050012441
:10086000AC40C56B6C60046863604468102C04D1B4
:100870000468A2600468E16003E00468A1600468A1
:10088000E26030BD704772B600BFFEE738B5024681
:1008900000230020009000BF92F82400012801D11D
:1008A000022038BD012082F8240000BF48680728D4
:1008B00012D21068406B0C79641E04EB84051F246F
:1008C000AC40A0430D796D1E05EB85050C68AC406E
:1008D00020431468606327E048680D2812D210682E
:1008E000006B0C79E41F04EB84051F24AC40A0438B
:1008F0000D79ED1F05EB85050C68AC4020431468AD
:10090000206311E01068C06A0C790D3C04EB84058B
:100910001F24AC40A0430D790D3D05EB85050C6807
:10092000AC4020431468E06208680A2812D31068BB
:10093000C0680C780A3C04EB44050724AC40A04393
:100940000D780A3D05EB45058C68AC4020431468E2
:10095000E0600FE0106800690C7804EB44050724A0
:10096000AC40A0430D7805EB45058C68AC402043B6
:10097000146820610868102802D00868112827D15F
:10098000174C1068A0421ED11068806800F4000067
:10099000F0B91068806840F400001468A06008682E
:1009A000102815D10F4800680F4CB0FBF4F000EB95
:1009B00080004000009002E00098401E00900098E7
:1009C0000028F9D104E0906A40F0200090620123F1
:1009D00000BF002082F8240000BF184661E7000035
:1009E000002401401400002040420F00704770476F
:1009F000704700002DE9F04104460027002500263D
:100A0000A84614B90120BDE8F081A06810B1207D8E
:100A100000B100BFA06A30B90020E06284F8240071
:100A2000204600F097F82046FFF75FFE0746A06AD1
:100A300000F01000002873D1002F7ED1A06A20F4AE
:100A4000885040F00200A0623F4AD4E90001904281
:100A500008D1E069B0F5402F02D14FF4002002E048
:100A6000E06900E0E0690143207B41EA4000064381
:100A7000A068B0F5807F02D0A068012802D14FF4B1
:100A8000807000E000200543207D012811D1207BEB
:100A900038B9A069401E4FF4006141EA4030054377
:100AA00007E0A06A40F02000A062E06A40F0010088
:100AB000E0622068406820F469402843216848606B
:100AC0002068806821490840304321688860A06818
:100AD000B0F5807F02D0A068012802D14FF4807069
:100AE00000E00020B0F5807F03D1208A401E4FEA4D
:100AF00000582068C06A20F4700040EA08002168AD
:100B0000C8622068806812490840B04209D10020BC
:100B1000E062A06A20F0020040F00100A06211E053
:100B20000BE0A06A20F0020040F01000A062E06A32
:100B300040F00100E062012704E0A06A40F01000EC
:100B4000A062012738465EE7003C0140FDF7E1FF67
:100B5000FE0E1FFF10B586B00446002002900390E1
:100B6000049005902249206888423ED100BF214868
:100B7000806940F400701F4988610846806900F46C
:100B80000070019000BF00BF00BF0846806940F0C0
:100B9000100088610846806900F01000019000BFD5
:100BA00000BF052002900320039002A9124800F024
:100BB00091F912481249086000204860002110484D
:100BC00081608021C160490001618900416120216B
:100BD00081610021C16100F0D5F808B1FFF753FE33
:100BE00000BF07482062446200BF06B010BD00008D
:100BF00000240140001002400010014008000240A3
:100C00004C0000202DE9F04104460D461646002711
:100C100057492068884203D056492068884205D148
:100C20005348001D006800F4702000E000200028F8
:100C30007ED100BF94F82400012802D10220BDE833
:100C4000F081012084F8240000BF2046FFF7BAFDA0
:100C50000746002F6DD1A06A40F60161884340F439
:100C60008070A06243492068884209D14048001D35
:100C7000006800F4702008B9012002E0002000E0C4
:100C8000012078B1A06A20F48010A062206840683A
:100C900000F4806000B3A06A20F4005040F480505B
:100CA000A06219E0A06A40F48010A0623049206878
:100CB000884203D02F492068884205D12C48001D66
:100CC000006800F4806000E0002028B1A06A20F4F1
:100CD000005040F48050A062A06A00F4805020B11F
:100CE000E06A20F00600E06201E00020E06200BF60
:100CF000002084F8240000BF1F48216A88621F4832
:100D0000216AC8621E48216A08636FF002002168E8
:100D100008602068806840F48070216888602268DC
:100D200002F14C0133462A46206A00F071F801E0D6
:100D30001AE014E02068806800F46020B0F5602FAD
:100D400006D12068806840F4A000216888600CE02B
:100D50002068806840F480102168886005E000BF4A
:100D6000002084F8240000E00127384667E70000EF
:100D7000002401400028014047070008B707000889
:100D8000990700080146002209B9012070471E4B4F
:100D9000086898420BD21D4B0868C01A1423B0FB98
:100DA000F3F08000086419480838C8630AE0164B5D
:100DB0000868C01A1423B0FBF3F0800008641248DE
:100DC0000838C863022081F821000868026843F6E9
:100DD000F0708243D1E901031843CB6818430B69D3
:100DE00018434B6918438B691843CB691843024376
:100DF0000868026000208863012081F8210000203B
:100E000081F8200000BFC1E708040240080002404A
:100E10002DE9F04104460D4616461F464FF00008E6
:100E200000BF94F82000012802D10220BDE8F08123
:100E3000012084F8200000BF94F8210001282CD163
:100E4000022084F821000020A0632068006820F0C0
:100E50000100216808603B46324629462046FFF7DC
:100E6000FBFCE06A30B12068006840F00E002168A9
:100E700008600BE02068006820F00400216808602A
:100E80002068006840F00A00216808602068006857
:100E900040F001002168086006E000BF002084F8EF
:100EA000200000BF4FF002084046BFE770B504467F
:100EB00000F0B0F906462546681C10B104480078D9
:100EC000054400BF00F0A6F9801BA842FAD370BD0C
:100ED000100000202DE9F847024600239C467BE1E4
:100EE0004FF0010808FA03F4D1F8008008EA040082
:100EF000A0427DD1DFF8F4A2D1F80480A8EB0A0962
:100F0000D0453AD014DCB8F1030F50D009DCB8F169
:100F1000000F31D0B8F1010F1CD0B8F1020F49D148
:100F200020E0B8F1110F18D0B8F1120F42D11EE035
:100F3000B9F5881F25D006DCB9F5803F20D0B9F57A
:100F4000801F37D11AE0B9F5001F18D0B9F5041F7A
:100F500030D117E0D1F80CC02DE0D1F80C8008F1A9
:100F6000040C28E0D1F80C8008F1080C23E0D1F83B
:100F70000C8008F10C0C1EE000BF00BF00BF00BFDA
:100F800000BF00BFD1F80880B8F1000F02D14FF0C8
:100F9000040C0BE0D1F80880B8F1010F03D14FF039
:100FA000080C146102E04FF0080C546103E04FF0AC
:100FB000000C00E000BF00BFFF2801D8904601E010
:100FC00002F104084646FF2802D84FEA830803E0EE
:100FD000A3F108084FEA88084746D6F800804FF08A
:100FE0000F0909FA07F928EA09080CFA07F900E0DD
:100FF0007AE048EA0908C6F80080D1F8048008F0D1
:101000008058B8F1805F6FD100BFDFF8E481D8F875
:10101000188048F00108DFF8D891C9F81880C84650
:10102000D8F8188008F00108CDF8008000BF00BF94
:101030004FEAB9384FEA930958F829504FEA8378B4
:101040004FEA18794FF00F0808FA09F825EA080561
:10105000DFF8A081424502D14FF0000824E0DFF81C
:101060009881424502D14FF001081DE0DFF88C81E4
:10107000424502D14FF0020816E0DFF88481424574
:1010800002D14FF003080FE0DFF87881424502D12A
:101090004FF0040808E0DFF87081424502D14FF0BC
:1010A000050801E04FF006084FEA83794FEA197905
:1010B00008FA09F848EA0505DFF850814FEA930974
:1010C00048F82950D1F8048008F48018B8F5801F3A
:1010D0000BD1DFF83C81D8F8008048EA0008DFF83F
:1010E0003091C9F800800AE075E0DFF82481D8F873
:1010F000008028EA0008DFF81891C9F80080D1F8CC
:10110000048008F40018B8F5001F0ED1DFF8008144
:1011100008F10408D8F8008048EA0008DFF8F090E9
:1011200009F10409C9F800800DE0DFF8E48008F156
:101130000408D8F8008028EA0008DFF8D49009F104
:101140000409C9F80080D1F8048008F40038B8F523
:10115000003F0ED1DFF8B880A8F10408D8F800806D
:1011600048EA0008DFF8A890A9F10409C9F800804E
:101170000DE0DFF89C80A8F10408D8F8008028EA88
:101180000008DFF88C90A9F10409C9F80080D1F8B3
:10119000048008F48038B8F5803F0ED1DFF8708005
:1011A000A8F10808D8F8008048EA0008DFF8609045
:1011B000A9F10809C9F800800DE0DFF85480A8F112
:1011C0000808D8F8008028EA0008DFF84490A9F160
:1011D0000809C9F800805B1CD1F8008028FA03F8E0
:1011E000B8F1000F7FF47CAEBDE8F8870000111065
:1011F0000010024000080140000C014000100140B6
:101200000014014000180140001C0140080001408A
:1012100008040140014800687047000008000020F1
:101220000348006803490978084401490860704789
:10123000080000201000002010B50848006840F0A9
:10124000100006490860032000F098F80F2000F015
:1012500007F800F02BF8002010BD0000002002402D
:1012600070B504460E4800784FF47A71B1FBF0F087
:101270000C490968B1FBF0F5284600F081FC08B183
:10128000012070BD102C07D200222146501E00F014
:1012900037F80548046001E00120F2E70020F0E79C
:1012A00010000020140000200C00002008B500BF32
:1012B0001148806940F001000F4988610846806943
:1012C00000F00100009000BF00BF00BF0846C069E9
:1012D00040F08050C8610846C06900F0805000901E
:1012E00000BF00BF00BF0549486820F0E06040F043
:1012F0000070486000BF08BD0010024000000140BF
:101300002DE9F05F80460D461646002700F02AFFC3
:10131000074639462A46334601F00700C0F1070A5E
:10132000BAF1040F02D94FF0040A01E0C0F1070A34
:10133000D14600F1040ABAF1070F02D24FF0000AB9
:1013400001E0A0F1030AD4464FF0010A0AFA09FAB3
:10135000AAF1010A0AEA020A0AFA0CFA4FF0010B92
:101360000BFA0CFBABF1010B0BEA030B4AEA0B0483
:101370002146404600F0FEFEBDE8F09F00BF00F0B1
:101380000702064B19684FF6FF031940044B0B4345
:1013900043EA0221014B196000BF70470CED00E0E9
:1013A0000000FA05F8B5044600260025207800F074
:1013B000010000286BD000274348C06900F080502E
:1013C00070B900BF4048C06940F080503E49C861D4
:1013D0000846C06900F08050009000BF00BF0127A0
:1013E0003A48006800F48070B0B93848006840F4AA
:1013F000807036490860FFF70DFF064606E0FFF7EC
:1014000009FF801B642801D90320F8BD2F4800681C
:1014100000F480700028F2D02B48006A00F4407578
:101420002DB3A08800F44070A84220D02648006A5E
:1014300020F44075012026490860002008602248F9
:10144000056205F0010090B1FFF7E4FE064608E0F2
:10145000FFF7E0FE801B41F28831884201D903206A
:10146000D3E71948006A00F002000028F0D01648BF
:10147000006A20F440706168084313490862012F34
:1014800004D10846C06920F08050C86100BF2078B0
:1014900000F00200022807D10B48406820F44040C9
:1014A000A168084308494860207800F0100010281F
:1014B00007D10548406820F480006169084302496B
:1014C00048600020A1E700000010024000700040CA
:1014D0004004424270B504460D460CB9012070BD6F
:1014E0005A48006800F00700A8420ED2574800682A
:1014F00020F007002843554908600846006800F0BE
:101500000700A84201D00120E9E7207800F002009E
:1015100002281DD1207800F00400042805D14C4891
:10152000406840F4E0604A494860207800F00800D4
:10153000082805D14648406840F460504449486056
:101540004348406820F0F000A168084340494860E3
:10155000207800F0010078B36068012806D13C488B
:10156000006800F4003090B90120B8E760680228F4
:1015700006D13748006800F0007040B90120AEE79E
:101580003348006800F0020008B90120A7E730489E
:10159000406820F00300616808432D494860FFF768
:1015A00039FE064609E0FFF735FE801B41F288311F
:1015B000884202D9032092E707E02548406800F0FE
:1015C0000C006168B0EB810FEDD12048006800F09D
:1015D0000700A8420ED91D48006820F007002843E4
:1015E0001A4908600846006800F00700A84201D0C8
:1015F000012074E7207800F00400042807D1144883
:10160000406820F4E060E1680843114948602078B0
:1016100000F00800082808D10D48406820F4605008
:10162000216940EAC1000A49486000F03FF80849D2
:101630004968C1F30311074A515CC8400649086074
:1016400006480068FFF70CFE002048E70020024033
:1016500000100240522B0008140000200C00002053
:1016600001480068704700001400002000B5FFF733
:10167000F7FF04494968C1F30221034A515CC8409D
:1016800000BD000000100240622B000800B5FFF70B
:10169000E7FF04494968C1F3C221034A515CC840CD
:1016A00000BD000000100240622B000870B5002150
:1016B0000022002400230020134D696801F00C056E
:1016C000F5B1042D02D0082D19D101E00F4819E021
:1016D0000F4DC1F38346AB5D01F4803555B10A4D22
:1016E0006D68C5F340450B4E725D084D5D43B5FB1B
:1016F000F2F402E0084D03FB05F4204602E000BFCF
:10170000024800BF00BF70BD0010024000127A0006
:10171000402B0008502B000800093D00F8B5044696
:101720000CB90120F8BD207800F00100002878D025
:10173000F848406800F00C0004280CD0F5484068D8
:1017400000F00C00082811D1F248406800F4803005
:10175000B0F5803F0AD1EF48006800F4003000285F
:101760005FD0606800285CD10120DBE700BF6068C3
:10177000B0F5803F06D1E748006840F48030E54985
:10178000086028E0606858B9E248006820F48030BA
:10179000E04908600846006820F4802008601AE0EC
:1017A0006068B0F5A02F0BD1DA48006840F48020C3
:1017B000D84908600846006840F4803008600AE0B4
:1017C000D448006820F48030D24908600846006898
:1017D00020F48020086000BF606888B1FFF71AFD20
:1017E000054606E0FFF716FD401B642801D90320DB
:1017F00098E7C848006800F400300028F2D010E0F4
:10180000FFF708FD054606E0FFF704FD401B6428CE
:1018100001D9032086E7BF48006800F400300028A3
:10182000F2D1207800F00200022857D1B948406870
:1018300000F00C0050B1B748406800F00C000828D8
:1018400018D1B448406800F4803098B9B1480068B5
:1018500000F0020020B12069012801D0012061E7D9
:10186000AC48006820F0F800616940EAC100A9496D
:10187000086033E02069E8B10120A7490860FFF75C
:10188000C9FC054606E0FFF7C5FC401B022801D94C
:10189000032047E79F48006800F002000028F2D0CC
:1018A0009C48006820F0F800616940EAC10099494D
:1018B000086013E0002098490860FFF7ABFC05467C
:1018C00006E0FFF7A7FC401B022801D9032029E707
:1018D0009048006800F002000028F2D1207800F063
:1018E000080008282DD1A069B8B101208B490860F3
:1018F000FFF790FC054606E0FFF78CFC401B022832
:1019000001D903200EE78348406A00F00200002856
:10191000F2D0012000F0BEFA13E000207F490860F9
:10192000FFF778FC054606E0FFF774FC401B022831
:1019300001D90320F6E67748406A00F0020000284B
:10194000F2D1207800F00400042873D100277148F8
:10195000C06900F0805070B900BF6E48C06940F0A7
:1019600080506C49C8610846C06900F08050009002
:1019700000BF00BF01276A48006800F48070B0B95A
:101980006748006840F4807065490860FFF742FCD2
:10199000054606E0FFF73EFC401B642801D9032002
:1019A000C0E65F48006800F480700028F2D000BFF5
:1019B000E068012806D15748006A40F00100554907
:1019C000086227E0E06858B95248006A20F0010038
:1019D000504908620846006A20F00400086219E0D5
:1019E000E06805280BD14B48006A40F004004949E3
:1019F00008620846006A40F0010008620AE04548B3
:101A0000006A20F00100434908620846006A20F09D
:101A10000400086200BFE068A0B1FFF7FBFB0546C9
:101A200009E0FFF7F7FB401B41F28831884202D9F9
:101A3000032077E622E03748006A00F00200002821
:101A4000EFD012E0FFF7E6FB054608E0FFF7E2FB08
:101A5000401B41F28831884201D9032062E62D48BB
:101A6000006A00F002000028F0D1012F05D12948BA
:101A7000C06920F080502749C86100BFE069C8B341
:101A80002448406800F00C00082860D0E069022873
:101A900048D1002020490866FFF7BCFB054606E058
:101AA000FFF7B8FB401B022801D903203AE619488A
:101AB000006800F000700028F2D1206AB0F5803F85
:101AC00007D11448406820F40030A1680843114948
:101AD0004860D4E9080108430E49496821F47411AB
:101AE00008430C49486001200B490866FFF792FB48
:101AF000054607E03DE0FFF78DFB401B022801D9BA
:101B000003200FE60348006800F000700028F2D0C0
:101B10002FE00000001002400000424280044242D8
:101B200000700040002014490866FFF773FB05466B
:101B300006E0FFF76FFB401B022801D90320F1E507
:101B40000E48006800F000700028F2D111E0E06952
:101B5000012800D1E6E50948466806F48031206A8C
:101B6000814204D106F47011606A814201D00120E3
:101B7000D8E50020D6E500000000424200100240F7
:101B800070B504462546681EB0F1807F01D3012060
:101B90000FE0681E4FF0E02148610F214FF0FF3049
:101BA00000F0E8FA00204FF0E0218861072008618A
:101BB000002070BD10B504460CB9012010BDA0690D
:101BC00000B100E000BF94F8410028B9002084F87B
:101BD0004000204600F02AF8242084F841002068C4
:101BE000C06820F400502168C860204600F0E4F985
:101BF0002068006920F490402168086120684069ED
:101C000020F02A00216848612068C06840F4005034
:101C10002168C86000206064202084F8410084F8B6
:101C200042000020606300BFC8E7000010B586B026
:101C30000446002002900390049005901A49206801
:101C400088422ED100BF1948806940F4804017496E
:101C500088610846806900F48040019000BF00BFA1
:101C600000BF0846806940F004008861084680692A
:101C700000F00400019000BF00BF48150290022050
:101C800003900320059002A90948FFF723F94FF4B8
:101C90008060029000200390049002A90448FFF79E
:101CA00019F906B010BD00000038014000100240D4
:101CB000000801402DE9F84F04460E4617469946A4
:101CC0004FF0000A94F84100202850D106B117B90E
:101CD0000120BDE8F88F00206064212084F84100D5
:101CE000FFF798FA8246A784E784A068B0F5805F82
:101CF00004D1206910B90025B04602E035464FF006
:101D000000081EE05346002280212046CDF80090B6
:101D100000F0D0F920B1202084F841000320D8E75A
:101D200045B9B8F80000C0F308002168486008F120
:101D3000020803E02878216848606D1CE08C401E92
:101D4000E084E08C0028DDD153460022402120466B
:101D5000CDF8009000F0AEF920B1202084F84100C9
:101D60000320B6E7202084F841000020B1E70220DC
:101D7000AFE700BFFEE700000EB500200090019025
:101D800002901848184908608115174881600121A0
:101D90000173002101754FF46021C16100201249D7
:101DA0004860022110480161FEF724FE08B1FEF7E9
:101DB0006AFD0A20009001200190022002906946ED
:101DC0000948FEF763FD08B1FEF75DFD0C200090A9
:101DD0000220019069460448FEF758FD08B1FEF75D
:101DE00052FD0EBD002401401C00002008B500BFBC
:101DF0000648406940F001000449486108464069CE
:101E000000F00100009000BF00BF08BD00100240BC
:101E100008B500BF0D48806940F010000B4988618B
:101E20000846806900F01000009000BF00BF00BFAE
:101E30000846806940F0040088610846806900F027
:101E40000400009000BF00BF08BD00000010024069
:101E500010B50B480B4908604FF4E1304860002191
:101E600008488160C16001610C21416100218161EC
:101E7000C161FFF79FFE08B1FEF705FD10BD000030
:101E8000003801409000002000BFFEE700BFFEE7E1
:101E90007047000008B508490968C9084FF47A720C
:101EA000B1FBF2F14143009100BF00BF00994A1E0F
:101EB00000920029F9D108BD14000020704710B528
:101EC000FFF7AEF910BD00B595B028210BA8FEF7BD
:101ED00064F9142106A8FEF760F918216846FEF798
:101EE0005CF901200B9000040C9000200D90012063
:101EF0000F9002201290C10313914FF4E01114913E
:101F00000BA8FFF70BFC08B1FEF7BDFC0F200690F5
:101F100002200790002008904FF480600990002074
:101F20000A90022106A8FFF7D5FA08B1FEF7ABFC2C
:101F300002200090800302906846FFF733FA08B150
:101F4000FEF7A1FC15B000BD704700BF00BF0268DE
:101F50000C3252E8002F22F4907102680C3242E8F1
:101F60000013002BF3D100BF00BF00BF0268143282
:101F700052E8002F22F001010268143242E80013F7
:101F8000002BF3D100BF016B01290ED100BF00BFB0
:101F900002680C3252E8002F22F0100102680C3265
:101FA00042E80013002BF3D100BF202180F842103B
:101FB000002101637047000070B50446216809697B
:101FC00021F44051E2681143226811612269A1683D
:101FD0001143626941EA02052168C96841F20C6255
:101FE000914329432268D1602168496921F44071F5
:101FF000A2691143226851612D4A2168914202D1A0
:10200000FFF744FB01E0FFF731FB00EBC00101EB00
:10201000001162689200B1FBF2F100EBC00202EB2A
:10202000001263689B00B2FBF3F26423B2FBF3F28D
:1020300002EBC20303EB0212A1EB8201322202EB9C
:1020400001116422B1FBF2F101F0F00100EBC002DA
:1020500002EB001263689B00B2FBF3F26423B2FB55
:10206000F3F201EB021200EBC00101EB0011636817
:102070009B00B1FBF3F100EBC00303EB00136668B8
:10208000B600B3FBF6F36426B3FBF6F303EBC3062B
:1020900006EB0313A1EB8301322303EB011164234D
:1020A000B1FBF3F101F00F0111442268916070BDA2
:1020B000003801402DE9F84304460D46174698467E
:1020C000089E31E0701C70B3FFF7A4F8A0EB080085
:1020D000B04200D816B90320BDE8F8832068C06874
:1020E00000F00400F8B1802D1ED0402D1CD02068D7
:1020F0000068C0F3C000B0B100BF002000902068AD
:102100000068009020684068009000BF00BF204633
:10211000FFF71BFF0820606400BF002084F8400028
:1021200000BF0120D8E7FFE7206800682840A842E8
:1021300001D1012000E00020B842C3D00020CBE74D
:1021400000BFFEE70FB4054B10B503A9044A02987F
:1021500000F0F6F810BC5DF814FB0000492A0008F6
:102160001800002002480068C0F3022070470000F9
:102170000CED00E010B5002804DB0A07130E054A39
:10218000135406E00A07140E034A00F00F031B1F46
:10219000D45410BD00E400E018ED00E002E008C8EF
:1021A000121F08C1002AFAD170477047002001E0D1
:1021B00001C1121F002AFBD1704700002DE9FF5F0B
:1021C00082B00021DDE90430020DDDF840B00343A8
:1021D00018D044F61050A2F2FF3242431514119861
:1021E00001281FD0A5EB0B00401C5FEA000A4FF04E
:1021F00000064E4FDFF83891B046504615D5CAF16B
:10220000000413E0119801244AA3012801D16FEAC8
:102210000B010298119AC0E90031C0E9024206B0F0
:10222000BDE8F09FCBF10000DFE704460021404A03
:10223000491842EB0450CDE9001012E0E00707D046
:1022400032463B4640464946FDF7B2FF8046894646
:1022500032463B4610461946FDF7AAFF06460F4692
:102260006410002CEAD1DDE90401DDE90023BAF1B4
:10227000000F06DAFDF79CFF42464B46FDF798FF3C
:1022800005E0FEF707F842464B46FEF703F8044622
:102290000E460022284BFEF7DDF903D84FF0FF3041
:1022A000014607E00022254B20463146FEF712F991
:1022B000FEF7B7F9102409E0002C0ADB0A220023FC
:1022C000FEF77AF8039B30321A55641E50EA010279
:1022D000F2D1641C039AC4F111031444119A012A27
:1022E00003D0012208430DD10AE0084304D00020A6
:1022F0004FF0110B119072E7A3EB0B056D1E0DE073
:102300005B4504DD4FF0000205F1010504E003DA4E
:102310004FF00002A5F10105002AECD002981199B6
:10232000C0E90231C0E9004579E70000000014402F
:102330000000F03F300000000000F0430000E03FEC
:102340002DE9FF4F95B09A46884606460025EEE1F6
:10235000252877D100242746F94A0121039400E07B
:10236000044316F8013F203B01FA03F01042F7D175
:1023700030782A2811D06FF02F033078A0F1300286
:10238000092A16D8039A44F0020402EB820203EBF6
:1023900042021044761C0390EFE758F8042B039296
:1023A000002A03DA504244F40054039044F002043B
:1023B000761C30782E2816D116F8010F44F004044C
:1023C0002A280DD06FF02F023078A0F13003092BAE
:1023D00009D807EB870302EB4303C718761CF3E722
:1023E00058F8047B761C30786C280FD006DC4C281B
:1023F00017D068280DD06A2814D104E0742810D0B2
:102400007A280FD10DE044F400140AE044F480145B
:1024100001E044F440147278824202D104F5801441
:10242000761C761C307866280BD013DC582877D0C1
:1024300009DC002875D04528F6D04628F4D0472876
:102440001AD193E118E0632835D0642879D0652843
:1024500012D18BE1702873D008DC6728F1D069288D
:102460006FD06E280DD06F2806D1ACE073282CD029
:10247000752874D0782853D05246179990476D1C10
:1024800054E1C4F30250022809D003280DD0D8F833
:10249000001004280DD00D6008F1040846E1D8F8BA
:1024A0000010EA17C1E90052F6E7D8F800100D80D5
:1024B000F2E70D70F0E718F8041B8DF8001000200B
:1024C0008DF80100EB46012003E058F804BB4FF003
:1024D000FF3061074FF0000102D40DE009F1010166
:1024E0008946B9420FDA8145F8DB1BF8091000294B
:1024F000F4D108E009F1010189468142FADB1BF8B9
:1025000009100029F6D103985346A0EB090721468C
:102510003846179A00F080FA284400EB090507E0D6
:1025200044E008E10DE01BF8010B52461799904773
:10253000B9F10109F7D2534621463846179AF2E01D
:1025400039E00A21C4F302524FF0000B0091022A35
:1025500006D058F8040BC117032A09D00AE023E07B
:1025600008F1070020F00702F2E80201904605E0BA
:1025700000B2C117042A01D140B2C117002906DAFE
:102580000A460021404261EB02012D2202E02205B1
:1025900004D52B228DF80420012203E0E20701D0AC
:1025A0002022F7E7914657E00A2100E010214FF082
:1025B000000B00910BE010214FF0000B44F00404DD
:1025C0000827009103E008204FF0000B0090C4F3AF
:1025D0000252022A05D058F8040B0021032A08D021
:1025E00008E008F1070020F00702F2E80201904637
:1025F00003E080B2042A00D1C0B24FF000092207E4
:102600002AD53278702A07D0DDF800C08CF0100C83
:102610005CEA0B0C05D00EE040228DF8042001226C
:1026200008E050EA010306D030238DF804308DF81D
:10263000052002229146009B83F0080353EA0B0316
:102640000AD150EA010201D1620705D530228DF886
:1026500004204FF001097F1E3278582A04D039A295
:102660000C920CAA02920BE03BA2F9E75B46009A9F
:10267000FDF7A2FE0C9B9B5C029A521E0292137005
:1026800050EA0102F2D1029804A9081A00F1200BC5
:10269000600702D524F4803400E001275F4502DDA5
:1026A000A7EB0B0000E0002000EB0B01009003986B
:1026B0004944401A0390E00306D453462146179A32
:1026C000039800F0A9F90544002706E001A8524646
:1026D000C05D179990476D1C7F1C4F45F6DBE003EA
:1026E0000CD553462146179A039800F095F90544F6
:1026F00004E030205246179990476D1C0099481EFF
:1027000000900029F5DC08E0029802995246007812
:10271000491C0291179990476D1CBBF10001ABF168
:10272000010BF1DC5BE100F065F90544761C3078C3
:1027300000287FF40DAE19B02846BDE8F08F0000E8
:102740000928010030313233343536373839616287
:10275000636465660000000030313233343536374B
:10276000383941424344454600000000600700D428
:10277000062708F1070020F00700F0E80223804652
:1027800003F0004C5FEA0C0001D097A009E020059F
:1027900001D596A005E0E00701D095A001E0AFF2D9
:1027A0004C001390307823F0004365280CD006DCF1
:1027B000452809D046281DD047287FD13BE0662810
:1027C00018D067287AD136E00021112F01DB1120C3
:1027D00000E0781CCDE9000104A90CA8FFF7EEFC8D
:1027E000DDE90D010C9A4FF0000B07F10109109281
:1027F00000914EE04FF000400097CDE9011004A990
:102800000CA8FFF7DBFCDDE90D020C9B0F994FF0E4
:10281000000B91461093009211B9791C00EB01094D
:10282000B7EB090003D4C0F1FF3B07F10109A9EBA5
:102830000700019042E0012F00DA01270021112F4B
:1028400001DD112000E03846CDE9000104A90CA803
:10285000FFF7B4FCDDE90D010C9A00914FF0000B7D
:10286000B946109221070FD4009A4A4503DA9146DF
:1028700001E0A9F10109B9F1010F05DD109AA9F1F3
:102880000101515C3029F4D0B84202DA10F1040F92
:1028900003DA0121CDE9011010E0002803DC8344B4
:1028A000A9EB000102E0411C494500DD8946A0EB8F
:1028B0000B00401C01904FF000400290200705D40F
:1028C0000198484502DB4FF0FF30019000208DF861
:1028D0004B0002980DF14B07B0F1004F25D00220BC
:1028E0000C902B200D90029800280CDA40420290A8
:1028F0002D200D9007E00A210298FDF747FD3031A9
:10290000029007F8011D0C99481E0C900029F2DC7A
:1029100002980028EFD1791E0D980870307800F0E9
:10292000200040F0450007F8020D11A8C01BC01D93
:1029300002901398007800B1012000EB0901019882
:1029400001EBE071029801440398401A401E039085
:10295000E00306D453462146179A039800F05CF82A
:1029600005441398007818B15246179990476D1C8A
:10297000E00323D553462146179A039800F04CF8FC
:1029800005441BE0BBF1000F07DB0098584504DD50
:102990001098179910F80B0001E017993020524653
:1029A000904701980BF1010B401E05F101050190C4
:1029B00004D12E205246179990476D1CB9F10001A1
:1029C000A9F10109DEDC05E017F8010B5246179961
:1029D00090476D1C0299481E02900029F4DC534672
:1029E0002146179A03989EE62D0000002B00000058
:1029F000200000002DE9F041044600251E46174640
:102A0000880404D405E039462020B0476D1C641EBC
:102A1000F9D52846BDE8F0812DE9F04104460025AE
:102A20001E469046C80301D5302700E020278804C1
:102A300004D505E041463846B0476D1C641EF9D503
:102A40002846BDE8F081000013B50C464FF47A73B8
:102A5000012269460248FFF72DF900981CBD0000CD
:102A6000900000201CB5FEF7E7FBFFF72CFAFFF7FC
:102A7000CFF9FFF7BBF9FFF77FF9FFF7E9F91B483B
:102A800002781B491B48FEF7BDF81BA0FFF75AFB55
:102A90002BE017494888FDF76CFC06464FF066327C
:102AA0001D4BFDF785FB044600221C4BFDF7F2FB96
:102AB000804689460E490888FDF75BFC06464FF0C4
:102AC0006632154BFDF774FB04460022134BFDF7ED
:102AD000E1FB824652460B4611A0CDE90089FFF783
:102AE00031FB4FF4FA60FEF7E1F9D2E70400002071
:102AF000000000201C000020414443B6E0CDA8B5F2
:102B0000C0D7AABBBBCAB5D1E948616C2E2E2E2E08
:102B10002EB6C1B5E7D1B90066660A4000FEAF40E7
:102B2000BBACB6AFB1E4D7E8C6F73D252E32662C74
:102B3000B5E7D4B4B5E7D1B93D252E32660D0A000C
:102B400002030405060708090A0B0C0D0E0F1010EE
:102B5000010200000000000000000102030406075B
:102B60000809000000000102030400008C2B00088B
:102B7000000000201C0000009C210008A82B000879
:102B80001C000020BC040000AC2100080000000074
:102B90000200000000000000100000000100000022
:082BA00000127A0000000000A1
:0400000508000131BD
:00000001FF
