:020000040800F2
:10000000E80C0020490100085101000853010008D4
:1000100055010008570100085901000800000000C0
:100020000000000000000000000000005B0100086C
:100030005D010008000000005F0100086101000888
:100040006301000863010008630100086301000800
:1000500063010008630100086301000863010008F0
:1000600063010008630100086301000863010008E0
:1000700063010008630100086301000863010008D0
:1000800063010008630100086301000863010008C0
:1000900063010008630100086301000863010008B0
:1000A00063010008630100086301000863010008A0
:1000B0006301000863010008630100086301000890
:1000C0006301000863010008630100086301000880
:1000D00063010008C109000863010008630100080A
:1000E0006301000863010008630100086301000860
:1000F0006301000863010008630100086301000850
:10010000630100086301000863010008630100083F
:10011000630100086301000863010008630100082F
:10012000630100086301000863010008630100081F
:10013000DFF810D000F05EF800480047891300088F
:10014000AFF30080E80C00200648804706480047CF
:10015000FEE7FEE7FEE7FEE7FEE7FEE7FEE7FEE777
:10016000FEE7FEE73D07000831010008D2B201E0DA
:1001700000F8012B491EFBD270470022F6E710B5AC
:1001800013460A4604461946FFF7F0FF204610BD05
:100190002DE9F05F0546002092469B4688460646BC
:1001A000814640241BE0284641464746224600F04F
:1001B00042F853465A46C01A914110D31146184688
:1001C000224600F029F82D1A67EB01084F46224617
:1001D0000120002100F020F817EB00094E41201EFD
:1001E000A4F10104DFDC484631462A464346BDE817
:1001F000F09F0000064C074D06E0E06840F0010368
:1002000094E8070098471034AC42F6D3FFF794FF08
:10021000F4190008141A0008202A04DB203A00FA16
:1002200002F1002070479140C2F1200320FA03F34D
:10023000194390407047202A04DB203A21FA02F04B
:100240000021704721FA02F3D040C2F12002914010
:1002500008431946704700B5034603E04FF47A702F
:1002600000F006F8181EA3F101018BB2F6D100BD13
:1002700000EBC001C9004FF0E02251610021916103
:100280000521116100BF4FF0E021096901F48031BF
:100290000029F8D04FF0E021096921F001014FF069
:1002A000E0221161704700001048806940F48070BE
:1002B0000E4988610E48006840F040500C490860C3
:1002C0000846006820F0404008600846006820F0BA
:1002D000E06008600846006840F00060086008467A
:1002E000C06840F04000C860704700000010024045
:1002F0000020014000B51348806940F00400114916
:1003000088611148006840F033000F4908600846D2
:10031000006820F0CC000860081D006840F0030071
:10032000091D08600846006820F00C0008600120E4
:1003300000F00CF8022000F009F84FF4807000F093
:1003400005F800BD0010024000080140024909689C
:100350000143014A116070470C08014000B500F0EC
:1003600027F90348008840F400500149088000BD87
:100370000C38014000BF0549098801F080010029BF
:10038000F9D00249091D088070470000003801407B
:1003900010B500F001F810BD3048C06940F480404D
:1003A0002E49C8610846806940F4947088612C48E1
:1003B000006820F440402A4908600846006840F47C
:1003C00040500860274800682749084325490860CD
:1003D0000846006825490840224908600846006828
:1003E00020F0306008600846006840F080600860D7
:1003F0001F48008840F004001D4908800846008816
:1004000040F400700880081D008820F00400091DD9
:100410000880081F008840F48070091F0880084683
:10042000008820F0030008800846008820F038008B
:1004300008800846008840F01000088008460088C0
:1004400020F4006008800846008820F080000880C2
:100450000846008840F040000880704700100240C5
:1004600000140140040C01400000B0B0FFFFBFBF0A
:100470000038004010B500F001F810BD03480068D6
:1004800020F0080001490860704700000C1401408A
:1004900010B500F001F810BD0348006840F00800F6
:1004A00001490860704700000C14014010B5044673
:1004B000204600F003F8C0B210BD0000014600BFA6
:1004C0000A48008800F002000028F9D00748001D03
:1004D000018000BF0548008800F001000028F9D025
:1004E0000248001D0088C0B2704700000838004074
:1004F00010B501F0C7F9FFF74BFFFFF7D5FE00F08D
:1005000005F800F04BF800F019F810BD10B50A48D6
:10051000C06820F080000849C8604FF47A70FFF787
:100520009AFE0548C06840F080000349C8604FF457
:10053000FA70FFF790FE10BD0020014008B50422BC
:100540000D494FF4706000F01DFB04220B494FF47D
:10055000A06000F017FB04220949900100F012FB93
:100560000548C0780090044883784278017805A057
:1005700000F04CFB08BD0000C6000020CA000020AF
:10058000CE0000206970B5D8D6B73A2025642E2554
:10059000642E25642E2564200D0A000010B5062265
:1005A00002494FF4106000F0EDFA10BDC0000020C9
:1005B0002548806940F48040234988610846806965
:1005C00040F0040088612148006840F030001F4975
:1005D00008600846006840F080000860084600682F
:1005E00020F0400008600846006820F44070086071
:1005F0000846006840F4806008600846006820F4FF
:100600000060086040F2712011490880081D0088D0
:1006100020F48050091D08800846008820F480607E
:100620000880081D008820F44050091D0880081F1C
:10063000008840F00400091F08800846008840F048
:1006400008000880704700000010024004080140C4
:100650000838014010B500F001F810BD0CB50020BD
:10066000019000903348006840F4803031490860C0
:1006700000BF3048006800F4003000900198401C32
:100680000190009818B90198B0F5A06FF1D12948F0
:10069000006800F4003010B10120009001E000205B
:1006A00000900098012843D12348006840F01000D2
:1006B000214908600846006820F0070008600846E5
:1006C000006840F0020008601A4840681949486014
:1006D0000846406848600846406840F480604860CA
:1006E0000846406820F47C1048600846406840F4A2
:1006F000E81048600846006840F08070086000BF5D
:100700000C48006800F000700028F9D009484068E3
:1007100020F00300074948600846406840F00200A6
:10072000486000BF0348406800F00C000828F9D179
:100730000CBD0000001002400020024010B513481C
:10074000006840F0010011490860084640681049FF
:1007500008400E494860084600680E4908400B49A9
:1007600008600846006820F4802008600846406859
:1007700020F4FE0048604FF41F008860FFF76AFF16
:100780004FF000600449086010BD000000100240F6
:100790000000FFF8FFFFF6FE08ED00E070B544A092
:1007A00000F034FA4FF4427000F032F9044621466A
:1007B00049A000F02BFA002C64D0132C02D0172C87
:1007C00071D117E04948008882B24949002000F001
:1007D000B9FC4849087008460078012803D146A0B2
:1007E00000F014FA05E0002000F05CFC48A000F0E6
:1007F0000DFA59E007224CA1002000F0B9FE40E0BC
:100800000CE04FF4427000F003F9172806D048A01E
:1008100000F0FCF9002000F045FC70BD4FF40270C0
:1008200000F0F6F800F004000028EAD04FF402705F
:1008300000F0EEF800F0040529464FF4027000F0D5
:1008400067F9002000F034FD44490880084600881C
:10085000002816DD084602884149002000F0B6FD58
:100860003F4A3E4801883FA000F0D0F93B4802884B
:100870003B49002000F07CFE4FF400613848FFF750
:100880007CFCBDE7202341F690720121002000F09E
:100890002FFF18B93CA000F0B9F902E041A000F028
:1008A000B5F901E0FFE700BF00BF00BFB5E70000FA
:1008B0002D2D2D2D2D54435020436C69656E7420D1
:1008C000536F636B65743020D7B4CCACB2E9D1AF51
:1008D0002D2D2D2D2D0A0000736F636B65745374DD
:1008E000617475733D307825580A0000BC00002003
:1008F000B8000020A8000020C1ACBDD3B7FECEF1E7
:10090000C6F7B3C9B9A62E2E2E2E0D0A0000000080
:10091000C1ACBDD3B7FECEF1C6F7CAA7B0DC2E2E50
:100920002E2E0D0A0000000048656C6C6F0D0A0049
:10093000736F636B65742030B7A2C9FAD2E2CDE25F
:100940002C20BDABD6D8D0C2B4F2BFAA736F636BF4
:1009500065742030202E2E2E0D0A0000AA000020E3
:10096000E8000020BDD3CAD5B5BDB5C4CAFDBEDD03
:10097000B3A4B6C8CAC7A3BA25642CC4DAC8DDCAF2
:10098000C7A3BA2573000000736F636B65742030D2
:1009900020B4F2BFAAB3C9B9A6212E2E2E200D0A6B
:1009A00000000000736F636B6574203020B4F2BFE9
:1009B000AACAA7B0DC212E2E2E200D0A00000000AE
:1009C0000F48008800F0200058B10D48001D008835
:1009D0000C490D4A127888540B480078401C0A498B
:1009E00008700748008800F0100038B104480088FB
:1009F0000348001D0088012004490870704700006A
:100A00000038014000000020640000206500002044
:100A100038B504461A49C86880471949486980476B
:100A200000BF1748406A10B11548806A70B9144871
:100A3000016AC4F3074088471148016AC4F30720DC
:100A40008847E0B20E4A116A88470DE0200C8DF805
:100A50000000200A8DF80100E0B28DF8020008487D
:100A60000321826A684690470549C8698047054660
:100A7000034988698047024908698047284638BD8C
:100A800074000020F8B504460E4617461F49C86892
:100A900080471E494869804700BF1C48406A10B122
:100AA0001A48806AC0B91948016AC4F307408847E8
:100AB0001648016AC4F307208847E0B2134A116A56
:100AC0008847002505E01149C86980477055681CB2
:100AD00085B2BD42F7DB12E0200C8DF80000200A41
:100AE0008DF80100E0B28DF8020008480321826A07
:100AF0006846904705483946426A30469047034960
:100B000088698047014908698047F8BD7400002062
:100B100038B504460D461A49C868804718494869DF
:100B2000804744F004041648806A90B91448016A6A
:100B3000C4F3074088471248016AC4F30720884776
:100B4000E0B20F4A116A88470D48016A2846884773
:100B50000FE0200C8DF80000200A8DF80100E0B2B3
:100B60008DF802008DF8035005480421826A68461A
:100B7000904703498869804701490869804738BD23
:100B800074000020F8B504460E4617461E49C86892
:100B900080471D494869804744F004041A48806A28
:100BA000C0B91948016AC4F3074088471648016A6A
:100BB000C4F307208847E0B2134A116A884700252A
:100BC00005E0705D104A116A8847681C85B2BD4215
:100BD000F7DB12E0200C8DF80000200A8DF80100F0
:100BE000E0B28DF8020008480321826A6846904707
:100BF00005483946826A30469047034988698047EC
:100C0000014908698047F8BD740000200FB4054B06
:100C100010B503A9044A029800F018F810BC5DF85A
:100C200014FB0000A1120008D400002002E008C854
:100C3000121F08C1002AFAD170477047002001E056
:100C400001C1121F002AFBD1704700002DE9FF4FA0
:100C50008DB00F460546002606E025280BD0DDE9BD
:100C60000F1290476D1C761C28780028F5D111B022
:100C70003046BDE8F08F0024A246A1460122E94992
:100C800000E0044315F8013F203B02FA03F008425C
:100C9000F7D128782A2810D06FF02F022878A0F1F9
:100CA0003001092914D80AEB8A0102EB410144F012
:100CB000020400EB010A6D1CF0E701CF5FEA000AB5
:100CC00003D544F40054CAF1000A44F002046D1C38
:100CD00028782E2817D115F8010F44F004042A288B
:100CE0000ED06FF02F022878A0F1300109290AD820
:100CF00009EB890102EB410100EB01096D1CF2E7F0
:100D000057F8049B6D1C28786C280FD006DC4C2803
:100D100017D068280DD06A2814D104E0742810D0A8
:100D20007A280FD10DE044F400140AE044F4801452
:100D300001E044F440146978814202D104F5801442
:100D40006D1C6D1C28786E281ED00CDC632830D0FA
:100D500004DC00288BD0582811D19FE0642867D08C
:100D600069280CD164E073282DD004DC6F2872D080
:100D7000702804D194E075286ED078286DD0DDE914
:100D80000F129047761C4BE1C4F30250022806D0A4
:100D9000032809D0042801CF09D0066040E101CF23
:100DA000F117C0E900613BE101CF068038E1067030
:100DB00036E117F8040B8DF8000000208DF80100D3
:100DC000EB46012003E057F804BB4FF0FF3061070A
:100DD0004FF0000102D40DE008F1010188464945B9
:100DE0000FDA8045F8DB1BF808100029F4D108E081
:100DF00008F1010188468142FADB1BF8081000293E
:100E0000F6D1DDE90F23AAEB08008146214600F068
:100E100031F9304400EB080604E0DDE90F121BF85D
:100E2000010B9047B8F10108F7D221464846F2E09D
:100E30000A21C4F302524FF0000B0891022A04D099
:100E400001CFC117032A09D00AE0FF1D27F00707C9
:100E5000F7E8020108E02CE01EE01FE000B2C11735
:100E6000042A01D140B2C117021E71F1000206DA54
:100E70000023D0EB030063EB01012D2202E02205E9
:100E800004D52B228DF82420012203E0E20701D0B3
:100E90002022F7E7904653E00A210BE0102109E0F9
:100EA00010214FF0000B44F004044FF008090891A2
:100EB00003E008214FF0000B0891C4F30252022A0C
:100EC00004D001CF0021032A06D006E0FF1D27F041
:100ED0000707F7E8020103E080B2042A00D1C0B29C
:100EE0004FF0000822072BD52A78702A07D0DDF8AA
:100EF00020C08CF0100C5CEA0B0C05D00EE04022F8
:100F00008DF82420012208E050EA010306D03023A6
:100F10008DF824308DF8252002229046089B83F01E
:100F2000080353EA0B030BD150EA010201D1620717
:100F300006D530228DF824204FF00108A9F10109CF
:100F40002A78582A04D038A20B9208AA0A920BE0F9
:100F50003AA2F9E75B46089AFFF71AF90B9B9B5CEC
:100F60000A9A521E0A92137050EA0102F2D10A98AC
:100F7000ADEB000000F1200B600702D524F48034B3
:100F800001E04FF00109D94502DDA9EB0B0000E0BB
:100F9000002000EB0B0141440890AAEB010AE0039A
:100FA00006D4DDE90F232146504600F063F80644DD
:100FB0004FF0000908E009A911F80900DDE90F1256
:100FC000904709F10109761CC145F4DBE0030CD51B
:100FD000DDE90F232146504600F04CF8064404E0BA
:100FE000DDE90F1230209047761C0899481E0890C2
:100FF0000029F5DC08E00A980A990078491C0A9152
:10100000DDE90F129047761CBBF10001ABF1010B3B
:10101000F1DC21465046DDE90F2300F019F80644C3
:101020006D1C21E609280100303132333435363762
:101030003839616263646566000000003031323324
:1010400034353637383941424344454600000000C4
:101050002DE9F041044600251E461746880404D4B5
:1010600005E039462020B0476D1C641EF9D528469E
:10107000BDE8F0812DE9F041044600251E4690466A
:10108000C80301D5302700E02027880404D505E0F7
:1010900041463846B0476D1C641EF9D52846BDE868
:1010A000F081000010B5044600BF082C02DD4FF0AF
:1010B000FF3010BD00BFA100491C4FF4807202EB4D
:1010C000C1001021FFF724FD00BFA100491C4FF40F
:1010D000807202EBC100FFF79BFC0028F5D1A10054
:1010E000491C4FF4007202EBC1001F21FFF710FDF5
:1010F0000120A0400F49098881430E48018001204A
:10110000A0400D49098881430B48018000200B490C
:1011100021F814000A49085500BFA100491C4FF4EA
:10112000407202EBC100FFF773FC0028F5D10120EB
:10113000BFE70000680000206A000020D8000020FF
:101140006C00002070B504460D46164600BF082C02
:1011500002DD4FF0FF3070BD00BF00BFA100491C91
:10116000002202EBC100FFF753FC00F00F00012842
:1011700002D06FF00400EEE700BF00BFA100491CE1
:101180004FF4407202EBC100FFF742FC132802D07B
:101190006FF00200DFE700BF2978687861F31F2055
:1011A0000146A87861F31F200146E87861F31F200B
:1011B0000146481C00B111B96FF00B00CBE716B91E
:1011C0006FF00A00C7E7A100491C4FF4406202EB30
:1011D000C10004222946FFF7D5FC3112A200521C9F
:1011E0004FF4805303EBC200FFF792FCF1B2A20070
:1011F000521C4FF4805303EBC20202F58070FFF7DC
:1012000087FCA100491C4FF4807202EBC10004214D
:10121000FFF77EFC00BFA100491C4FF4807202EB77
:10122000C100FFF7F5FB0028F5D10120A0401B49C4
:101230000988084008B100208DE722E0A100491C80
:101240004FF4007202EBC100FFF7E2FB00F0080070
:1012500058B1A100491C4FF4007202EBC1000821F3
:10126000FFF756FC6FF00C0075E7A100491C4FF426
:10127000407202EBC100FFF7CBFB10B96FF0030027
:1012800069E7A100491C4FF4407202EBC100FFF76F
:10129000BFFB1728D2D101205DE7000068000020C5
:1012A00000B502460B46D0B2FFF764F8104600BD09
:1012B00070B504460025002600BFA100491C4FF46C
:1012C000185202EBC100FFF7A3FB0646A100491C20
:1012D0004FF4185202EBC10101F58070FFF798FB43
:1012E00000EB062086B2AEB1A100491C4FF41852A3
:1012F00002EBC100FFF78CFB0546A100491C4FF42F
:10130000185202EBC10101F58070FFF781FB00EB81
:10131000052085B2B542D0D1284670BD70B50446CF
:101320000025002600BFA100491C4FF4005202EB2B
:10133000C100FFF76DFB0646A100491C4FF40052A7
:1013400002EBC10101F58070FFF762FB00EB0620A4
:1013500086B2AEB1A100491C4FF4005202EBC100AD
:10136000FFF756FB0546A100491C4FF4005202EB63
:10137000C10101F58070FFF74BFB00EB052085B242
:10138000B542D0D1284670BDFEF7E8FFFEF7B2FFA8
:1013900005A0FFF73BFCFFF7ABF800F073FA01E0A4
:1013A000FFF7FCF9FCE700004E6574576F726B2085
:1013B00054637020436C69656E7420746573742087
:1013C0002E2E2E2E2E2E2E0D0A0000002DE9F04777
:1013D0000446884616460027002500BF082C02DD7B
:1013E000681EBDE8F08700BF00BFA100491C0022B5
:1013F00002EBC100FFF70CFB00F00F00012802D048
:101400006FF00400EDE700BF00BF16B96FF00D00EC
:10141000E7E700BFA100491C4FF4F05202EBC10006
:10142000FFF7F6FA4FF6FF7101EA8025B54200DAC0
:101430002E4638E02046FFF73BFF0546A100491C39
:101440004FF4407202EBC100FFF7E2FA0746172F94
:101450001ED01C2F16D105B126E02046FFF75EFFF7
:101460008146A100491C4FF4F85202EBC100FFF77E
:10147000CFFAB9EB802F0BD12046FFF713FE6FF0A8
:101480000600AEE72046FFF70DFE6FF00600A8E766
:101490000120A04014490988084010B10DB900206E
:1014A0009FE705B100E0C5E700BFB54200DA2E4670
:1014B00032464146204600F0FFF9A100491C4FF496
:1014C000807202EBC1004021FFF722FB00BFA100A8
:1014D000491C4FF4807202EBC100FFF799FA002813
:1014E000F5D130467DE700006800002000B131B939
:1014F000054A064BDA60064B044A136102E0034AD0
:10150000D060116170470000CB1900087400002002
:10151000CD19000800B131B9054A064B5A61064B96
:10152000044A936102E0034A5061916170470000F0
:10153000D719000874000020CF19000800BF094A1D
:10154000128802F40072002AF9D000B131B9064ABB
:10155000044BDA61054B034A136202E0014AD06191
:101560001162704774000020DF190008E9190008B3
:101570002DE9F0410446884615460026002700BFA5
:10158000082C02DD701EBDE8F08100BF00BFA10085
:10159000491C002202EBC100FFF73AFA00F00F00ED
:1015A000012802D06FF00400EDE700BF00BF15B9BD
:1015B0006FF00D00E7E700BFA100491C4FF4407237
:1015C00002EBC100FFF724FA0646172E04D01C2EAA
:1015D00002D06FF00600D6E70120A04042490988FA
:1015E000084040B3A100491C4FF4007202EBC10057
:1015F000FFF70EFA00F01F0606F0100080B1A10000
:10160000491C4FF4007202EBC1001021FFF780FA71
:101610000120A040344909888143334801800AE011
:1016200006F0080028B12046FFF73CFD6FF00C00E3
:10163000A9E70020A7E7A100491C4FF4F85202EBEC
:10164000C100FFF7E5F94FF6FF7101EA8027BD42BF
:1016500000DD3D4623E02046FFF760FE0746A1007F
:10166000491C4FF4407202EBC100FFF7D1F9064666
:10167000172E07D01C2E05D02046FFF713FD6FF064
:10168000060080E70120A04018490988084018B1E9
:10169000BD4201DD002076E7BD4200DC00E0DAE774
:1016A00000BF2A464146204600F048F9A100491CE7
:1016B0004FF4807202EBC1002021FFF729FA00BF2E
:1016C000A100491C4FF4807202EBC100FFF7A0F9A2
:1016D0000028F5D10120A0400349098808430249A8
:1016E000088028464FE700006A00002068000020BC
:1016F000F8B504460E4617461D4600BF082C02DD0D
:101700004FF0FF30F8BD00BF012E06D0022E10D0E2
:10171000032E10D0042E0FD10CE0042269464FF4A2
:101720007060FFF7AFF9009810B96FF00200E9E7B9
:1017300005E000BF00BF02E06FF00400E2E700BF79
:1017400005F0040010B16FF00500DBE705B3012ED2
:1017500002D0022E1AD106E005F0210010B96FF078
:101760000500CFE713E005F0200028B105F0800068
:1017700010B96FF00500C5E705F0100028B105F0BD
:10178000800010B96FF00500BCE700E000BF00BFAB
:101790002046FFF787FC05F0F00242EA0601A200AE
:1017A000521C002303EBC200FFF7B2F97FB93048A7
:1017B00007880088401C2E490880084600884FF69C
:1017C000F071884203D14FF4404029490880391212
:1017D000A200521C4FF4806303EBC200FFF798F99C
:1017E000F9B2A200521C4FF4806303EBC20202F56F
:1017F0008070FFF78DF9A100491C4FF4807202EB55
:10180000C1000121FFF784F900BFA100491C4FF47A
:10181000807202EBC100FFF7FBF80028F5D1012030
:10182000A0401449098881431248018005F0010055
:10183000A0401049098808430E4908800120A040B3
:101840000D49098881430C48018000200B4921F88B
:1018500014000B49085500BFA100491C4FF4407209
:1018600002EBC100FFF7D4F80028F5D060B249E7D9
:1018700066000020680000206A000020D8000020D8
:101880006C00002000B506490648FFF72FFE064908
:101890000648FFF73FFE06490648FFF74FFE00BD2A
:1018A000CD190008CB190008CF190008D719000876
:1018B000E9190008DF1900082DE9F04704460F4632
:1018C00016460025A8460EB9BDE8F087A100491CC0
:1018D0004FF4205202EBC10101F58070FFF798F838
:1018E0008146A100491C4FF4205202EBC100FFF7D2
:1018F0008FF809EB002085B22902A000C01C01EB83
:10190000C008324639464046FFF7BCF8A81985B2F0
:101910002912A200521C4FF4205303EBC200FFF720
:10192000F7F8E9B2A200521C4FF4205303EBC202B5
:1019300002F58070FFF7ECF800BFC5E72DE9F0472E
:1019400004460F4616460025A8460EB9BDE8F087A6
:10195000A100491C4FF4105202EBC10101F5807047
:10196000FFF756F88146A100491C4FF4105202EBD4
:10197000C100FFF74DF809EB002085B22902A00055
:10198000801C01EBC008324639464046FFF7FAF8A2
:10199000A81985B22912A200521C4FF4105303EB70
:1019A000C200FFF7B5F8E9B2A200521C4FF4105381
:1019B00003EBC20202F58070FFF7AAF800BFC5E78B
:1019C000014608787047017070477047704710B53E
:1019D000FEF75EFD10BD10B5FEF74CFD10BD10B555
:1019E000FF20FEF763FD10BD10B504462046FEF74C
:1019F0005DFD10BD141A000800000020D800000092
:101A00002C0C0008EC1A0008D8000020100C000074
:101A10003C0C000830000000000000000000000046
:101A200000000000000000000000000000000000B6
:101A300000000000000000000000000000000000A6
:101A40000000000000000000000000000000000096
:101A50000000000000000000000000000000000086
:101A60000000000000000000000000000000000076
:101A70000000000000000000000000C000000000A6
:101A80000000000000000000010257353530300032
:101A900000000000CB190008CD190008D719000874
:101AA000CF190008C1190008C7190008000000007C
:101AB0000000000000000000000000000000000026
:101AC000000000000000000000000000C0A8016449
:101AD000911F00006E78828C96A0C0A8015AFFFF6B
:0C1AE000FF00C0A8010100000000000091
:0400000508000131BD
:00000001FF
