:020000040800F2
:10000000700400204901000853160008711500080B
:1000100051160008570200084D1B000800000000A0
:100020000000000000000000000000006B18000845
:100030005902000800000000551600086D1800085D
:100040006301000863010008630100086301000800
:1000500063010008630100086301000863010008F0
:1000600063010008630100086301000863010008E0
:1000700063010008630100086301000863010008D0
:1000800063010008630100086301000863010008C0
:1000900063010008630100086301000863010008B0
:1000A00063010008630100086301000863010008A0
:1000B0006301000863010008630100086301000890
:1000C0006301000863010008630100086301000880
:1000D00063010008411B0008630100086301000878
:1000E0006301000863010008630100086301000860
:1000F0006301000863010008630100086301000850
:10010000630100086301000863010008630100083F
:10011000630100086301000863010008630100082F
:10012000630100086301000863010008630100081F
:10013000DFF810D000F06EF80048004721200008DA
:10014000AFF300807004002006488047064800474F
:10015000FEE7FEE7FEE7FEE7FEE7FEE7FEE7FEE777
:10016000FEE7FEE7F118000831010008202A04DB51
:10017000203A21FA02F00021704721FA02F3D04020
:10018000C2F120029140084319467047D2B201E003
:1001900000F8012B491EFBD270470022F6E710B58C
:1001A00013460A4604461946FFF7F0FF204610BDE5
:1001B0002DE9F05F0546002092469B46884606469C
:1001C000814640241BE02846414647462246FFF729
:1001D000CDFF53465A46C01A914110D311461846D6
:1001E000224600F029F82D1A67EB01084F462246F7
:1001F0000120002100F020F817EB00094E41201EDD
:10020000A4F10104DFDC484631462A464346BDE8F6
:10021000F09F0000064C074D06E0E06840F0010347
:1002200094E8070098471034AC42F6D3FFF784FFF8
:10023000E820000808210008202A04DB203A00FA00
:1002400002F1002070479140C2F1200320FA03F32D
:10025000194390407047FEE7704772B6FEE710B54D
:1002600090F821100022022905D00421816380F832
:100270002020012010BD01680B6823F00E030B60E5
:1002800001680B6823F001030B6090F84030C46BE9
:10029000012101FA03F3636080F8211080F8202027
:1002A000104610BD2DE9F05F90F8211000240229BE
:1002B00003D004218163012485E001680A6822F0EB
:1002C0000E020A6001680A6822F001020A603F4ECD
:1002D0003E4FB215DFF8F4C0DFF8F090DFF8ECA085
:1002E000DFF8E8B0DFF8E4E00168783F13011502B9
:1002F000ACF1640CA9F15009AAF13C0AABF1280B4E
:10030000AEF1140E4FF48018B14227D9B9420ED085
:10031000614512D049451DD0514518D0594518D0D6
:10032000714501D1424615E0294EB14201D1012269
:1003300010E0274E1436B14201D110220AE0244EBB
:100340002836B14206D0224A3C32914201D11A46A7
:1003500000E02A461E49091F0A602BE0B94213D06B
:10036000614517D0494522D051451DD059451DD072
:10037000714501D142461AE0B14202D14FF080727C
:1003800015E0134EB14201D1012210E0104E143697
:10039000B14201D110220AE00D4E2836B14206D0FA
:1003A0000B4A3C32914201D11A4600E02A460749E5
:1003B00080394A60012180F82110002180F8201046
:1003C000416B01B188472046BDE8F09F80000240A4
:1003D0000804024070B5044600F00AF90546601CA6
:1003E00002D004480078044400F002F9401BA04207
:1003F000FAD370BD000000202DE9F84FDFF8C89156
:100400000024A9F1040B23460F2709F1040AABF1DC
:10041000040ED1E00125A54006EA0502AA4276D1E4
:10042000DFF8A8C14E68A6EB0C0866452BD00DDCA2
:10043000032E34D005DC36B3012E19D0022E2FD175
:100440001BE0112E16D0122E2AD119E0B8F5881F04
:1004500019D006DCB8F5803F15D0B8F5801F1FD144
:1004600011E0B8F5001F0ED0B8F5041F18D10AE04E
:10047000CB6815E0CB681B1D12E0CB6808330FE09A
:10048000CB680C330CE08B682BB1012B4FF00803C9
:1004900003D0456104E0042302E0056100E000238D
:1004A000FF2A01D8064601E000F104064FEA840560
:1004B00001D9A5F12005D6F8008007FA05FC28EA45
:1004C0000C0803FA05F548EA0508C6F800804D68EF
:1004D000ED0070D53E4DAE6946F00106AE61AD69E6
:1004E00024F0030605F0010500953A4D06EB050CD6
:1004F000DCF80850A607360F07FA06F825EA0805C3
:10050000DFF8D480404503D14FF0000825E052E0E9
:10051000DFF8C880404502D14FF001081DE0DFF848
:10052000C080404502D14FF0020816E0DFF8B480E9
:10053000404502D14FF003080FE0DFF8AC804045A2
:1005400002D14FF0040808E0DFF8A080404502D156
:100550004FF0050801E04FF0060808FA06F848EAEF
:100560000508CCF808804D68D9F80060ED024D46CA
:1005700001D5164300E096432E604D68DAF800601E
:10058000AD02554601D5164300E096432E604D68F6
:10059000DBF80060AD035D4601D5164300E09643ED
:1005A0002E604D68DEF80060ED03754601D51643F8
:1005B00000E096432E60641C0A681646E2407FF411
:1005C00029AFBDE8F88F00000804014000001110B9
:1005D000001002400000014000080140000C0140F2
:1005E000001001400014014000180140001C0140AF
:1005F00001488068704700000000002002488168C0
:10060000027811448160704700000020074810B54F
:10061000016841F010010160032000F075F80F201F
:1006200000F006F800F024F8002010BD0020024081
:1006300070B50D4D04464FF47A712878B1FBF0F097
:100640000A490968B1FBF0F000F081FD48B9102CAF
:1006500007D200222146501E00F036F800206C60C0
:1006600070BD012070BD0000000000200C000020C3
:100670000C4808B5816941F001018161816901F08F
:1006800001010091C16941F08051C161C06900F070
:10069000805000900448416821F0E06141F0007111
:1006A000416008BD0010024000000140002809DB45
:1006B00000F01F02012191404009800000F1E0207C
:1006C000C0F8001170470000F0B40E4B1B680C46D8
:1006D000C3F30223C3F10705042D00D90425191D16
:1006E000072901D2002300E0DB1E012606FA05F1EE
:1006F000491E214099409E40761E16403143F0BC71
:1007000001F036BA0CED00E0064900F00702086877
:100710004FF6FF03184040EA0220034A10430860E6
:10072000704700000CED00E00000FA0501490120CF
:100730000862704700000E4210B501460020284CA8
:1007400004292FD00BDC012930D0022929D100F057
:100750006BF96168C1F38131491C49001FE0082928
:1007600020D010291DD161682268D20119D51D48F9
:10077000C1F38342C903805C0AD56168194AC1F399
:100780004041921E515C184AB2FBF1F1484301E02E
:10079000164948436168490203D440000321B0FB75
:1007A000F1F010BDBDE8104000F04EB9226AC2F36E
:1007B0000121012903D1920701D5C80310BD0229E7
:1007C00005D1626A920702D549F6404010BD03295F
:1007D000FCD121688903F9D54FF2244010BD0000F7
:1007E00000100240C020000800127A0000093D00FD
:1007F0002DE9F84305460078354CC00754D0E06930
:100800000026C00008D4E06940F08050E061E06953
:10081000012600F0805000902E480168C90512D4CE
:100820000168804641F480710160FFF7E1FE0746F0
:1008300005E000BFFFF7DCFEC01B642823D8D8F812
:100840000000C005F6D5206A10F4407021D0A988B8
:1008500001F4407181421CD0206A1F49012220F41A
:1008600040700A6000220A602062C00711D0FFF7C2
:10087000BFFE074641F2883808E000BFFFF7B8FE28
:10088000C11B414502D90320BDE8F883206A8007D7
:10089000F4D5206A696820F44070084320621EB1D4
:1008A000E06920F08050E0612878800705D5606815
:1008B000A96820F44040084360602878C00605D548
:1008C0006068696920F48000084360600020DBE70D
:1008D0000010024000700040400442422DE9F04701
:1008E0000F46050061D0434E306800F00700B84263
:1008F00009D2306820F0070038433060306800F0DB
:100900000700B84251D128683B4C810712D54007F7
:1009100003D5606840F4E06060602878000703D584
:10092000606840F4605060606068A96820F0F00082
:10093000084360602878C00728D06868012810D074
:100940002168022810D0890700292EDA616821F079
:10095000030101436160FFF74BFE804641F2883995
:100960000DE021688903EFE78901EDE7FFF740FE1D
:10097000A0EB0801494502D90320BDE8F087606873
:10098000696800F00C00B0EB810FEFD1306800F027
:100990000700B8420BD9306820F0070038433060B8
:1009A000306800F00700B84201D00120E5E7287860
:1009B000400705D56068E96820F4E060084360609E
:1009C0002878000706D56068296920F4605040EA5D
:1009D000C100606000F038F86168084AC1F3031193
:1009E000515CC8400649086006480068FFF720FED1
:1009F0000020C2E70020024000100240D020000882
:100A00000C000020040000200448054900684968E3
:100A1000044AC1F30221515CC84070470C00002019
:100A200000100240E02000080448054900684968B9
:100A3000044AC1F3C221515CC84070470C00002039
:100A400000100240E02000080E4A51680E4801F0F4
:100A50000C03042B11D0082B0FD10C48C1F3834396
:100A6000C903C05C0AD55168084AC1F34041921ECF
:100A7000515C054A5043B0FBF1F0704704494843CC
:100A8000704700000010024000127A00AE200008FB
:100A900000093D002DE9F84F040070D02078C04DCA
:100AA000C00749D06868C0F38100012807D0686892
:100AB000C0F38100022809D16868C00306D5286800
:100AC000800339D560680028E7D035E06068B0F56C
:100AD000803F0BD010B1B0F5A02F11D0286820F4C2
:100AE00080302860286820F4802002E0286840F4E4
:100AF00080302860606890B1FFF77AFD06460AE012
:100B0000286840F480202860F0E700BFFFF770FD00
:100B1000801B642873D828688003F7D50CE0FFF7A2
:100B200067FD064605E000BFFFF762FD801B6428F5
:100B3000F0D828688003F7D420789A4E80074FF0C9
:100B400001094FF0000839D5686810F00C0F07D084
:100B50006868C0F38100022809D16868C00306D420
:100B60002868800714D52069012808D110E0206981
:100B7000B0B1C6F80090FFF73BFD074605E00AE17B
:100B8000FFF736FDC01B0228C4D828688007F7D5B8
:100B90002868616920F0F80040EAC10028600DE093
:100BA000C6F80080FFF724FD074604E0FFF720FDAC
:100BB000C01B022823D828688007F7D420780007B4
:100BC0002CD57948A169D9B1C0F80090FFF710FD84
:100BD000074604E0FFF70CFDC01B02280FD8686A27
:100BE0008007F7D571484FF4FA510068B0FBF1F077
:100BF000009000BF0098411E0091FAD20EE080E004
:100C0000C0F80080FFF7F4FC074604E0FFF7F0FCB3
:100C1000C01B022875D8686A8007F7D4207840077F
:100C200060D5E8690027C00008D4E86940F080502A
:100C3000E861E869012700F0805000905C48016895
:100C4000C90513D40168834641F480710160FFF740
:100C5000CFFC824606E000BFFFF7CAFCA0EB0A000B
:100C600064284ED8DBF80000C005F5D5E0680128FF
:100C70000AD008B1052813D0286A20F001002862A4
:100C8000286A20F0040002E0286A40F0010028628F
:100C9000E06841F2883B98B1FFF7AAFC82460BE07E
:100CA000286A40F004002862EEE700BFFFF7A0FCCE
:100CB000A0EB0A0159455AD8286A8007F6D50CE0FE
:100CC000FFF796FC824605E0FFF792FCA0EB0A01D5
:100CD00059454CD8286A8007F6D41FB1E86920F03E
:100CE0008050E861E06988B36968C1F38101022935
:100CF00044D00228C6F8608004D0FFF779FC04468F
:100D000038E034E0FFF774FC074604E0FFF770FCBE
:100D1000C01B02282BD828688001F7D4206AB0F5C0
:100D2000803F05D16868A16820F4003008436860FE
:100D3000D4E908010843696821F474110843686024
:100D4000C6F86090FFF754FC044606E025E000BFBB
:100D5000FFF74EFC001B022809D828688001F7D550
:100D60001BE000BFFFF744FC001B022802D9032050
:100D7000BDE8F88F28688001F4D40EE00128F7D090
:100D80006868226A00F48031914204D1616A00F4FB
:100D90007010884201D00120EAE70020E8E7000057
:100DA0000010024000004242800442420C00002039
:100DB00000700040F8B505004FF0000016460C46E4
:100DC000009006D02CB100226946284600F019F8A0
:100DD00008B10120F8BD287B2070E87BE070697BBA
:100DE0006170A97BA17056B100F03EFCE0706078A4
:100DF00000F03AFC6070A07800F036FCA070002093
:100E0000F8BD2DE9F04791460C465FEA00084AD04C
:100E100084B3D8F800004068400744D4404600F04E
:100E2000C1FC4FF461620546B0FBF2F1B0FBF2F396
:100E300002FB13503C23B0FBF3F0B5FBF2F66070FD
:100E400002FB1650B0FBF3F203FB1200A07018294E
:100E500031D31820B1FBF0F7B1FBF0F200FB121018
:100E60002070404600F097FC411C04D0A84202D9F3
:100E7000461B02E017E04FF0FF36A7EB071000EB30
:100E80004000C0EB001005EBC0152946404600F0BD
:100E9000D8FC40B9701C01D0711900E031464046C1
:100EA00000F0BBFC10B10120BDE8F0873946404698
:100EB00000F0E5FB00E02170B9F1000F0BD02078C5
:100EC00000F0D2FB2070607800F0CEFB6070A0785C
:100ED00000F0CAFBA0700020E6E7000070B5040037
:100EE00003D0607C002610B105E0012070BD26749F
:100EF000204600F03DF802206074204600F00AF918
:100F0000042550BB204600F011FC30BB206841682E
:100F100021F007014160A06820B11448016821F068
:100F2000010101601148001F0168A26821F460718D
:100F3000114301606068411C04D10120FFF7FCFBF4
:100F400058B1401E2268C0F303419160216880B20D
:100F5000C860204600F004FC08B16574C5E7E6737C
:100F600001206073A0736074002070BD306C00407D
:100F700008B50068084988420DD1FFF7D7FB07483C
:100F8000C16941F00061C161C069054900F00060BC
:100F900000900120086008BD0028004000100240B9
:100FA0003C0442422DE9F0410D4604003BD0C5B35C
:100FB000207C01283AD04FF0010884F810800220EC
:100FC0006074E87872B300F046FBE073687800F074
:100FD00042FB6073A87800F03EFBA073C2B2617B55
:100FE000E07B00F0EFFB20732870204600F0DAFB76
:100FF0004FF46161B0FBF1F1002518292DD91822B9
:10100000B1FBF2F1A1EB011101EB4101C1EB0111C7
:1010100000EBC1163146204600F013FC0427C8B986
:101020000BE000E004E00120BDE8F0810220FBE7D6
:10103000E07368786073A878CFE7204600F0ABFBD8
:10104000411C0AD0B04208D206490144204600F0B3
:10105000E4FB10B167742574E5E784F8118025740A
:101060000020E1E7805101002DE9F0410D46040028
:1010700024D01DB3207C012823D04FF0010884F830
:101080001080022060742878EAB100F0E4FA4FF48E
:10109000616100FB01F6687800F0DDFAC0EB00103A
:1010A00006EB8006A87800F0D6FA351829462046C7
:1010B00000F0C7FB0026042710BB0FE00120BDE8AD
:1010C000F0810220FBE74FF4616148436978C1EB8E
:1010D000011100EB8100A9784518E7E72068416815
:1010E00021F005014160204600F055FB411C0AD06B
:1010F000A84208D206490144204600F08EFB10B1F8
:1011000067742674DAE784F8118026740020D6E725
:101110008051010070B504000AD02068416821F0B8
:1011200008014160FFF764FA05464FF47A7608E05B
:10113000012070BDFFF75CFA401BB04201D90320CB
:1011400070BD206840680007F4D5002070BD10B560
:10115000401EB0F1807F01D3012010BD4FF0E0248C
:1011600060610F21601700F003FD0020A0610720DF
:101170002061002010BD704770470000F8B501687D
:1011800004460868CA684B6910F00F0F4FF000055D
:1011900059D003F0010602F49077374365D0C107B8
:1011A00005D0D10503D5616C41F0010161644107AF
:1011B00005D5D90703D0616C41F002016164810754
:1011C00005D5D90703D0616C41F0040161640107C2
:1011D00007D502F02001314303D0616C41F00801D2
:1011E0006164616C00293AD0800604D5900602D56E
:1011F000204600F0ADFB20684069616CC0F38010B0
:10120000090700D460B3204600F07BFB20684069EA
:10121000400621D52068143050E8001F21F040011D
:1012200040E80012002AF5D1E06BA8B16D49416396
:10123000E06BFFF737F8002811D0E06B416B01B08D
:10124000BDE8F040084783060FD593060DD520462C
:10125000BDE8F84000F07CBB2046FFF78DFFF8BDED
:101260002046FFF789FF6564F8BD266B2023012E19
:101270007CD1C6067AD5D60678D50868486800902D
:1012800048694FF00206400640D5E16B08684068A7
:101290000004000CE8D0A28D8242E5D9E08588697F
:1012A00020282DD020680C3050E8001F21F48071D8
:1012B00040E80012002AF5D12068143050E8001FE1
:1012C00021F0010140E80012002AF5D12068143015
:1012D00050E8001F21F0400140E80012002AF5D13B
:1012E00084F84230256320680C3050E8001F21F05C
:1012F000100140E80012002AF5D1E06BFEF7AFFFC5
:101300006663A08DE18D401A81B22AE0A08DE18D47
:10131000401A81B2E08D0028A6D00029A4D022680E
:101320000C3252E8000F20F4907042E80007002FC2
:10133000F5D12068143050E8002F22F0010240E877
:101340000027002FF5D184F84230256320680C3047
:1013500050E8002F22F0100240E80023002BF5D1C6
:1013600066632046FFF707FFF8BDFFE705062BD5AC
:10137000150629D594F841002128F5D1A068B0F5CB
:10138000805F01D12069B0B1206A411C21622168CF
:1013900000784860E08C401E0004000CE084E3D13B
:1013A0002068C16821F08001C1602068C16841F0F7
:1013B0004001C160D8E7206A0088C0F30800486097
:1013C000206A801C2062E5E74006CDD55006CBD5CB
:1013D000CA68204622F04002CA6084F8413000F01A
:1013E000C6F8C1E7F318000870B5040004D094F8FB
:1013F0004100002510B106E0012070BD84F8405086
:10140000204600F023F8242084F841002068C168B9
:1014100021F40051C160204600F0FCFA2068016907
:1014200021F4904101612068416921F02A01416164
:101430002068C16841F40051C1606564202084F8CF
:10144000410084F842006563002070BD30B585B06E
:10145000002400940194029403940068184988427F
:101460002CD11848816941F480418161816901F47E
:1014700080410491816941F0040181618069124DCC
:1014800000F0040004904FF40070009002200190DE
:101490000320039069462846FEF7AEFF2815CDE9E4
:1014A0000004694628460294FEF7A6FF0022114672
:1014B0002520FFF709F92520FFF7F8F805B030BD22
:1014C00000380140001002400008014070472DE93B
:1014D000F843044690F84100984616460D462028E9
:1014E00002D00220BDE8F88385B17EB1002060649F
:1014F000212084F84100FFF77BF8A6848146E6842A
:10150000A0682027B0F5805F02D003E00120E9E762
:10151000206910B12E4600250EE000260CE0802147
:10152000204600F0D3FAA8B9C6B116F8010B21681D
:101530004860E08C401EE084E08C4B464FF0000297
:10154000CDF800800028EAD14FF04001204600F09D
:10155000BDFA40B184F841700320C3E735F8020BAF
:10156000C0F30800E3E784F841700020BAE7704751
:10157000FEE70000094808B5816941F0100181616A
:10158000816901F010010091816941F004018161DC
:10159000806900F00400009008BD000000100240C7
:1015A0001CB50020019000901A48194901604FF0C5
:1015B000FF3141604FF480718160FFF78FFC08B10B
:1015C000FEF74BFE10208DF804008DF805008DF815
:1015D0000600012201A90F48FFF746FD08B1FEF7FA
:1015E0003CFE01208DF8000011208DF80100242020
:1015F0008DF8020025208DF8030001226946054878
:10160000FFF7D0FC002801D0FEF727FE1CBD00002C
:1016100000280040140000200C4810B50A49016061
:101620004FF4E1314160002181600C22C160C0E9CA
:1016300004128161C161FFF7D7FE002803D0BDE825
:101640001040FEF70ABE10BD0038014028000020FF
:10165000FEE7FEE77047010901EB810100F00F0092
:1016600000EB4100C0B27047002102E00A38C0B26E
:10167000491C0A28FAD2090740EA116070472DE98F
:10168000F04104460025C07B627BA37B42E0012A37
:1016900016D0032A14D0052A12D0072A10D0082AFF
:1016A0000ED00A2A0CD00C2A0AD0042A10D0062AFE
:1016B0000ED0092A0CD00B2A0AD0022A0DD028E01D
:1016C0001F2B0CD30C2A05D101221346401C20E00D
:1016D0001E2B04D30123521C1BE01C2B02D203F14E
:1016E000010316E011D183B29E0710D16426B3FB2B
:1016F000F6F706FB173636B94FF4C876B3FBF6F7A4
:1017000006FB17331BB91D2303E01D2B01D1032258
:1017100001236D1C8D42BAD3D1B2E0736173DAB28A
:10172000A27300F04FF82073BDE8F08170B5044655
:10173000FEF75EFF05464FF47A7606E0FEF758FFA7
:10174000401BB04201D9032070BD2068406880066C
:10175000F4D52068416841F010014160002070BD5F
:1017600070B504460068416821F010014160FEF741
:101770003FFF05464FF47A7607E000BFFEF738FFDB
:10178000401BB04201D9032070BD2068406880062C
:10179000F4D5002070BD0168086A496A89B241EA3F
:1017A00000407047006881698AB2C1698BB2816963
:1017B00089B28A4203D0C06961F31F40704743EA8F
:1017C00002407047F0B56424C1EBC1030927A500AE
:1017D000072603EB01130329B3FBF7F100F5FA60C9
:1017E000114401440AD2401EB0FBF4F201EB900117
:1017F000B0FBF5F0891A0844001D08E0B0FBF4F2D4
:1018000001EB9001B0FBF5F0891A0844801CB0FB95
:10181000F6F106FB1100C0B2F0BD70B50D460646EC
:101820000024FFF783FF48B93168280C086231684B
:10183000A8B248623046FFF793FF00B1012420466A
:1018400070BD70B50D4606460024FFF76FFF48B91E
:101850003168280C88613168A8B2C8613046FFF74A
:101860007FFF00B10124204670BD7047FEF7C6BE61
:1018700070B596B028216846FEF78FFC14210AA89F
:10188000FEF78BFC18210FA8FEF787FC012405202A
:1018900000250090CDE902544FF4803001900226DB
:1018A0000494CDE907604FF4E01009906846FFF713
:1018B000F1F808B172B6FEE70F20CDE90A064FF441
:1018C0008060CDE90C5002210AA80E95FFF706F8BA
:1018D00008B172B6FEE74FF48070CDE90F400FA853
:1018E000FEF786FF002801D072B6FEE716B070BD85
:1018F000704710B5406A0021C185C184FFF73CFCE8
:1019000010BD01680C3151E8002F22F4907241E8BB
:101910000023002BF5D10168143151E8002F22F08B
:10192000010241E80023002BF5D1016B012909D107
:1019300001680C3151E8002F22F0100241E8002329
:10194000002BF5D1202180F842100021016370475F
:1019500008B590F84210222901D0022008BD826803
:101960004FF480539A4201D1016921B1816A9A42B0
:101970001BD04AB10AE00268816A5268C2F30802C9
:101980000A80816A891C08E0026972B102685268A3
:1019900002F07F020A70816A491C8162C18D491E72
:1019A0000904090CC18503D01BE002685268F1E705
:1019B0000168CA6822F02002CA600168CA6822F47D
:1019C0008072CA6001684A6922F001024A612021DE
:1019D00080F8421000214163026B012A03D0FFF717
:1019E00075FD002008BD016301680C3151E8002F2E
:1019F00022F0100241E80023002BF5D101680A68AB
:101A0000D20602D50A6849680091818DFFF7B3FBC1
:101A1000E7E7000070B5044600680169E26821F458
:101A20004051114301612169A0680843616908437D
:101A30002168CA6841F20C639A430243CA60206875
:101A40004169A26921F44071114341611E49206836
:101A5000884202D1FEF7E8FF01E0FEF7D5FF00EB78
:101A6000C00101EB0012606864218000B2FBF0F35A
:101A7000B3FBF1F36FF018067343B2FBF0F5B2FB62
:101A8000F0F605EB8305322303EB0515B5FBF1F505
:101A9000B6FBF1F605F0F00505EB0615B2FBF0F626
:101AA000B2FBF0F0B0FBF1F06FF01802504306EB20
:101AB000800003EB0010B0FBF1F0216800F00F0094
:101AC0002844886070BD0000003801402DE9F843CB
:101AD000984617460D460446089E24E0701C22D006
:101AE000FEF786FDA0EB0800B0421AD8CEB1206800
:101AF000C168490717D5802D15D0402D13D0016836
:101B0000C94309070FD401680025406800902046AA
:101B1000FFF7F7FE0820606484F840500120BDE81C
:101B2000F8830320FBE72068006835EA000004D052
:101B30000020B842D2D00020F1E70120F9E70000F0
:101B40000148FFF71BBB000028000020FEE7000053
:101B50000FB4054B10B503A9044A029800F028F809
:101B600010BC5DF814FB00000920000810000020E4
:101B70000907090E002804DB00F1E02080F80014BA
:101B8000704700F00F0000F1E02080F8141D70474E
:101B900002E008C8121F08C1002AFAD17047704736
:101BA000002001E001C1121F002AFBD17047000094
:101BB0002DE9FF4F8DB00F460546002606E025288B
:101BC0000BD0DDE90F1290476D1C761C2878002899
:101BD000F5D111B03046BDE8F08F0024A246A146F1
:101BE0000122E94900E0044315F8013F203B02FAD5
:101BF00003F00842F7D128782A2810D06FF02F027E
:101C00002878A0F13001092914D80AEB8A0102EBE7
:101C1000410144F0020400EB010A6D1CF0E701CF22
:101C20005FEA000A03D544F40054CAF1000A44F004
:101C300002046D1C28782E2817D115F8010F44F0E6
:101C400004042A280ED06FF02F022878A0F130016A
:101C500009290AD809EB890102EB410100EB0109CE
:101C60006D1CF2E757F8049B6D1C28786C280FD088
:101C700006DC4C2817D068280DD06A2814D104E05F
:101C8000742810D07A280FD10DE044F400140AE033
:101C900044F4801401E044F440146978814202D194
:101CA00004F580146D1C6D1C28786E281ED00CDC89
:101CB000632830D004DC00288BD0582811D19FE055
:101CC000642867D069280CD164E073282DD004DC27
:101CD0006F2872D0702804D194E075286ED07828CF
:101CE0006DD0DDE90F129047761C4BE1C4F3025032
:101CF000022806D0032809D0042801CF09D00660A5
:101D000040E101CFF117C0E900613BE101CF06805E
:101D100038E1067036E117F8040B8DF8000000205A
:101D20008DF80100EB46012003E057F804BB4FF0AB
:101D3000FF3061074FF0000102D40DE008F101010E
:101D4000884649450FDA8045F8DB1BF80810002962
:101D5000F4D108E008F1010188468142FADB1BF862
:101D600008100029F6D1DDE90F23AAEB080081460F
:101D7000214600F031F9304400EB080604E0DDE9CB
:101D80000F121BF8010B9047B8F10108F7D221465A
:101D90004846F2E00A21C4F302524FF0000B0891CA
:101DA000022A04D001CFC117032A09D00AE0FF1D7F
:101DB00027F00707F7E8020108E02CE01EE01FE02B
:101DC00000B2C117042A01D140B2C117021E71F13D
:101DD000000206DA0023D0EB030063EB01012D22A1
:101DE00002E0220504D52B228DF82420012203E0F5
:101DF000E20701D02022F7E7904653E00A210BE0EA
:101E0000102109E010214FF0000B44F004044FF0C2
:101E10000809089103E008214FF0000B0891C4F372
:101E20000252022A04D001CF0021032A06D006E084
:101E3000FF1D27F00707F7E8020103E080B2042A3C
:101E400000D1C0B24FF0000822072BD52A78702AA3
:101E500007D0DDF820C08CF0100C5CEA0B0C05D02C
:101E60000EE040228DF82420012208E050EA010310
:101E700006D030238DF824308DF82520022290469C
:101E8000089B83F0080353EA0B030BD150EA0102CD
:101E900001D1620706D530228DF824204FF00108C9
:101EA000A9F101092A78582A04D038A20B9208AA6D
:101EB0000A920BE03AA2F9E75B46089AFEF778F936
:101EC0000B9B9B5C0A9A521E0A92137050EA010205
:101ED000F2D10A98ADEB000000F1200B600702D5AB
:101EE00024F4803401E04FF00109D94502DDA9EB6B
:101EF0000B0000E0002000EB0B0141440890AAEB2E
:101F0000010AE00306D4DDE90F232146504600F024
:101F100063F806444FF0000908E009A911F8090028
:101F2000DDE90F12904709F10109761CC145F4DB88
:101F3000E0030CD5DDE90F232146504600F04CF8B4
:101F4000064404E0DDE90F1230209047761C089922
:101F5000481E08900029F5DC08E00A980A990078E4
:101F6000491C0A91DDE90F129047761CBBF1000174
:101F7000ABF1010BF1DC21465046DDE90F2300F007
:101F800019F806446D1C21E609280100303132336E
:101F900034353637383961626364656600000000A5
:101FA000303132333435363738394142434445468F
:101FB000000000002DE9F041044600251E461746AA
:101FC000880404D405E039462020B0476D1C641E07
:101FD000F9D52846BDE8F0812DE9F04104460025F9
:101FE0001E469046C80301D5302700E0202788040C
:101FF00004D505E041463846B0476D1C641EF9D54E
:102000002846BDE8F081000013B54FF47A73012231
:1020100069460248FFF75BFA00981CBD28000020C3
:1020200086B0FEF7F3FAFFF723FCFFF7A3FAFFF7FA
:10203000B7FAFFF7F1FA4FF47A74012203A90E48B8
:10204000FEF7DFFE012204A90B48FEF7B3FE9DF860
:1020500012009DF813209DF811108DE807009DF8DF
:102060000E309DF80D209DF80C1004A0FFF770FDB8
:102070002046FEF7AFF9E0E71400002054696D65D3
:102080003A20253032783A253032783A2530327885
:1020900020446174653A20253032782F253032781B
:1020A0002F3230253032780D0A0000000102020381
:1020B0000405060708090A0B0C0D0E0F101001028B
:1020C00002030405060708090A0B0C0D0E0F101079
:1020D00000000000000000000102030406070809D8
:1020E0000000000001020304082100080000002095
:1020F00014000000901B00081C21000814000020A0
:102100005C040000A01B000801000000100000009B
:0C2110000000000000127A000000000037
:0400000508000131BD
:00000001FF
