:020000040800F2
:10000000A004002049010008F11700087516000837
:10001000ED170008B5010008A11C00080000000051
:10002000000000000000000000000000211800088F
:10003000B901000800000000F517000823180008A7
:100040006301000863010008630100086301000800
:1000500063010008630100086301000863010008F0
:1000600063010008630100086301000863010008E0
:1000700063010008630100086301000863010008D0
:1000800063010008630100086301000863010008C0
:1000900063010008630100086301000863010008B0
:1000A0006301000895180008630100086301000857
:1000B0006301000863010008630100086301000890
:1000C0006301000863010008630100086301000880
:1000D0006301000863010008630100086301000870
:1000E0006301000863010008630100086301000860
:1000F0006301000863010008630100086301000850
:10010000630100086301000863010008630100083F
:10011000630100086301000863010008630100082F
:10012000630100086301000863010008630100081F
:10013000DFF810D000F02CF800480047FD1C000844
:10014000AFF30080A004002006488047064800471F
:10015000FEE7FEE7FEE7FEE7FEE7FEE7FEE7FEE777
:10016000FEE7FEE79118000831010008D2B201E075
:1001700000F8012B491EFBD270470022F6E710B5AC
:1001800013460A4604461946FFF7F0FF204610BD05
:10019000064C074D06E0E06840F0010394E80700D4
:1001A00098471034AC42F6D3FFF7C6FF681D00082D
:1001B000881D000800BFFEE7704772B600BFFEE76B
:1001C0002DE9F847024600239C467BE14FF00108E9
:1001D00008FA03F4D1F8008008EA0400A0427DD1B7
:1001E000DFF8F4A2D1F80480A8EB0A09D0453AD090
:1001F00014DCB8F1030F50D009DCB8F1000F31D096
:10020000B8F1010F1CD0B8F1020F49D120E0B8F1CC
:10021000110F18D0B8F1120F42D11EE0B9F5881FA6
:1002200025D006DCB9F5803F20D0B9F5801F37D145
:100230001AE0B9F5001F18D0B9F5041F30D117E046
:10024000D1F80CC02DE0D1F80C8008F1040C28E0A6
:10025000D1F80C8008F1080C23E0D1F80C8008F1EB
:100260000C0C1EE000BF00BF00BF00BF00BF00BFFE
:10027000D1F80880B8F1000F02D14FF0040C0BE068
:10028000D1F80880B8F1010F03D14FF0080C1461C8
:1002900002E04FF0080C546103E04FF0000C00E066
:1002A00000BF00BFFF2801D8904601E002F104081A
:1002B0004646FF2802D84FEA830803E0A3F1080866
:1002C0004FEA88084746D6F800804FF00F0909FA30
:1002D00007F928EA09080CFA07F900E07AE048EA89
:1002E0000908C6F80080D1F8048008F08058B8F1F9
:1002F000805F6FD100BFDFF8E481D8F8188048F044
:100300000108DFF8D891C9F81880C846D8F81880D5
:1003100008F00108CDF8008000BF00BF4FEAB938EF
:100320004FEA930958F829504FEA83784FEA187931
:100330004FF00F0808FA09F825EA0805DFF8A08150
:10034000424502D14FF0000824E0DFF89881424591
:1003500002D14FF001081DE0DFF88C81424502D147
:100360004FF0020816E0DFF88481424502D14FF0D9
:1003700003080FE0DFF87881424502D14FF004080E
:1003800008E0DFF87081424502D14FF0050801E036
:100390004FF006084FEA83794FEA197908FA09F80D
:1003A00048EA0505DFF850814FEA930948F82950DB
:1003B000D1F8048008F48018B8F5801F0BD1DFF85D
:1003C0003C81D8F8008048EA0008DFF83091C9F88D
:1003D00000800AE075E0DFF82481D8F8008028EA80
:1003E0000008DFF81891C9F80080D1F8048008F4FB
:1003F0000018B8F5001F0ED1DFF8008108F10408DD
:10040000D8F8008048EA0008DFF8F09009F1040904
:10041000C9F800800DE0DFF8E48008F10408D8F89E
:10042000008028EA0008DFF8D49009F10409C9F82F
:100430000080D1F8048008F40038B8F5003F0ED1F0
:10044000DFF8B880A8F10408D8F8008048EA00086E
:10045000DFF8A890A9F10409C9F800800DE0DFF8E1
:100460009C80A8F10408D8F8008028EA0008DFF88A
:100470008C90A9F10409C9F80080D1F8048008F42F
:100480008038B8F5803F0ED1DFF87080A8F10808F9
:10049000D8F8008048EA0008DFF86090A9F1080960
:1004A000C9F800800DE0DFF85480A8F10808D8F8FA
:1004B000008028EA0008DFF84490A9F10809C9F88B
:1004C00000805B1CD1F8008028FA03F8B8F1000F17
:1004D0007FF47CAEBDE8F8870000111000100240E8
:1004E00000080140000C01400010014000140140D0
:1004F00000180140001C01400800014008040140B0
:1005000001480068704700000000002003480068B0
:100510000349097808440149086070470000002039
:100520000800002010B50848006840F01000064997
:100530000860032000F0ACF80F2000F007F800F08E
:100540002BF8002010BD00000020024070B50446CA
:100550000E4800784FF47A71B1FBF0F00C4909684D
:10056000B1FBF0F5284600F0FDFB08B1012070BD9D
:10057000102C07D200222146501E00F04BF80548EF
:10058000046001E00120F2E70020F0E7080000200D
:100590000C0000200400002008B500BF114880694D
:1005A00040F001000F4988610846806900F00100B1
:1005B000009000BF00BF00BF0846C06940F08050F7
:1005C000C8610846C06900F08050009000BF00BFBD
:1005D00000BF0549486820F0E06040F000704860C6
:1005E00000BF08BD0010024000000140014608465F
:1005F00000280DDB00BF00BF00F01F0301229A405E
:1006000043099B0003F1E023C3F8002100BF00BFB2
:1006100000BF70472DE9F05F80460D461646002763
:1006200001F040FB074639462A46334601F00700F1
:10063000C0F1070ABAF1040F02D94FF0040A01E031
:10064000C0F1070AD14600F1040ABAF1070F02D23D
:100650004FF0000A01E0A0F1030AD4464FF0010A6E
:100660000AFA09FAAAF1010A0AEA020A0AFA0CFAD3
:100670004FF0010B0BFA0CFBABF1010B0BEA030B78
:100680004AEA0B042146404601F014FBBDE8F09F06
:1006900000BF00F00702064B19684FF6FF03194030
:1006A000044B0B4343EA0221014B196000BF704722
:1006B0000CED00E00000FA0570B504460D460CB9DB
:1006C000012070BD5A48006800F00700A8420ED211
:1006D0005748006820F0070028435549086008463D
:1006E000006800F00700A84201D00120E9E7207867
:1006F00000F0020002281DD1207800F00400042838
:1007000005D14C48406840F4E0604A494860207890
:1007100000F00800082805D14648406840F46050C1
:10072000444948604348406820F0F000A16808430D
:1007300040494860207800F0010078B360680128E3
:1007400006D13C48006800F4003090B90120B8E7B9
:100750006068022806D13748006800F0007040B990
:100760000120AEE73348006800F0020008B901201C
:10077000A7E73048406820F00300616808432D492E
:100780004860FFF7BDFE064609E0FFF7B9FE801B93
:1007900041F28831884202D9032092E707E02548D8
:1007A000406800F00C006168B0EB810FEDD120488B
:1007B000006800F00700A8420ED91D48006820F02C
:1007C000070028431A4908600846006800F007003F
:1007D000A84201D0012074E7207800F0040004282A
:1007E00007D11448406820F4E060E16808431149EB
:1007F0004860207800F00800082808D10D484068BB
:1008000020F46050216940EAC1000A49486000F0C4
:100810003FF808494968C1F30311074A515CC840D1
:100820000649086006480068FFF790FE002048E788
:1008300000200240001002404E1D00080C00002065
:100840000400002001480068704700000C000020F0
:1008500000B5FFF7F7FF04494968C1F30221034AD5
:10086000515CC84000BD0000001002405E1D000841
:1008700000B5FFF7E7FF04494968C1F3C221034A05
:10088000515CC84000BD0000001002405E1D000821
:1008900070B500210022002400230020134D696858
:1008A00001F00C05F5B1042D02D0082D19D101E09D
:1008B0000F4819E00F4DC1F38346AB5D01F480355D
:1008C00055B10A4D6D68C5F340450B4E725D084D3C
:1008D0005D43B5FBF2F402E0084D03FB05F420464E
:1008E00002E000BF024800BF00BF70BD0010024020
:1008F00000127A003C1D00084C1D000800093D0054
:10090000F8B504460CB90120F8BD207800F00100CC
:10091000002878D0F848406800F00C0004280CD07B
:10092000F548406800F00C00082811D1F2484068F2
:1009300000F48030B0F5803F0AD1EF48006800F441
:10094000003000285FD0606800285CD10120DBE720
:1009500000BF6068B0F5803F06D1E748006840F40A
:100960008030E549086028E0606858B9E2480068CE
:1009700020F48030E04908600846006820F48020B8
:1009800008601AE06068B0F5A02F0BD1DA48006863
:1009900040F48020D84908600846006840F4803060
:1009A00008600AE0D448006820F48030D24908602A
:1009B0000846006820F48020086000BF606888B1A5
:1009C000FFF79EFD054606E0FFF79AFD401B6428F1
:1009D00001D9032098E7C848006800F400300028D7
:1009E000F2D010E0FFF78CFD054606E0FFF788FD2A
:1009F000401B642801D9032086E7BF48006800F443
:100A000000300028F2D1207800F00200022857D1EF
:100A1000B948406800F00C0050B1B748406800F099
:100A20000C00082818D1B448406800F4803098B908
:100A3000B148006800F0020020B12069012801D00F
:100A4000012061E7AC48006820F0F800616940EAE5
:100A5000C100A949086033E02069E8B10120A74935
:100A60000860FFF74DFD054606E0FFF749FD401B16
:100A7000022801D9032047E79F48006800F00200E0
:100A80000028F2D09C48006820F0F800616940EA34
:100A9000C1009949086013E0002098490860FFF7F9
:100AA0002FFD054606E0FFF72BFD401B022801D96C
:100AB000032029E79048006800F002000028F2D1E6
:100AC000207800F0080008282DD1A069B8B10120D5
:100AD0008B490860FFF714FD054606E0FFF710FD9F
:100AE000401B022801D903200EE78348406A00F02A
:100AF00002000028F2D0012000F07EFE13E000206A
:100B00007F490860FFF7FCFC054606E0FFF7F8FCAC
:100B1000401B022801D90320F6E67748406A00F01E
:100B200002000028F2D1207800F00400042873D1DC
:100B300000277148C06900F0805070B900BF6E484E
:100B4000C06940F080506C49C8610846C06900F037
:100B50008050009000BF00BF01276A48006800F481
:100B60008070B0B96748006840F4807065490860DB
:100B7000FFF7C6FC054606E0FFF7C2FC401B6428F1
:100B800001D90320C0E65F48006800F480700028A7
:100B9000F2D000BFE068012806D15748006A40F053
:100BA00001005549086227E0E06858B95248006AD8
:100BB00020F00100504908620846006A20F0040055
:100BC000086219E0E06805280BD14B48006A40F044
:100BD0000400494908620846006A40F001000862C2
:100BE0000AE04548006A20F00100434908620846CF
:100BF000006A20F00400086200BFE068A0B1FFF7BF
:100C00007FFC054609E0FFF77BFC401B41F2883181
:100C1000884202D9032077E622E03748006A00F0D4
:100C200002000028EFD012E0FFF76AFC054608E05A
:100C3000FFF766FC401B41F28831884201D903204E
:100C400062E62D48006A00F002000028F0D1012F72
:100C500005D12948C06920F080502749C86100BFEC
:100C6000E069C8B32448406800F00C00082860D050
:100C7000E069022848D1002020490866FFF740FCBF
:100C8000054606E0FFF73CFC401B022801D9032083
:100C90003AE61948006800F000700028F2D1206A96
:100CA000B0F5803F07D11448406820F40030A168B7
:100CB000084311494860D4E9080108430E494968CE
:100CC00021F4741108430C49486001200B4908665F
:100CD000FFF716FC054607E03DE0FFF711FC401B5F
:100CE000022801D903200FE60348006800F00070D5
:100CF0000028F2D02FE00000001002400000424225
:100D00008004424200700040002014490866FFF74A
:100D1000F7FB054606E0FFF7F3FB401B022801D96D
:100D20000320F1E50E48006800F000700028F2D1C1
:100D300011E0E069012800D1E6E50948466806F4BB
:100D40008031206A814204D106F47011606A8142C8
:100D500001D00120D8E50020D6E500000000424285
:100D60000010024070B504462546681EB0F1807F31
:100D700001D301200FE0681E4FF0E02148610F21F0
:100D80004FF0FF3000F096FF00204FF0E021886127
:100D900007200861002070BD7047704710B50346FA
:100DA000002200BF93F83C00012801D1022010BDB1
:100DB000012083F83C0000BF22F0FF00CC6840EA2D
:100DC000040222F440708C6840EA040222F480603D
:100DD0004C6840EA040222F400600C6840EA040215
:100DE00022F480500C6940EA040222F400504C695D
:100DF00040EA040222F48040CC6940EA0402186808
:100E0000426400BF002083F83C0000BF00BFCEE773
:100E100030B502460B4600BF92F83C00012801D1D4
:100E2000022030BD012082F83C0000BF022082F881
:100E30003D00106844681068816824F070041868E8
:100E4000044310684460144D1068A84213D0134D39
:100E50001068A8420FD01068B0F1804F0BD0104D31
:100E60001068A84207D00F4D1068A84203D00E4D5D
:100E70001068A84205D121F080015868014310682C
:100E80008160012082F83D0000BF002082F83C0014
:100E900000BF00BFC5E70000002C01400034014046
:100EA0000004004000080040000C004010B504465B
:100EB0000CB9012010BD94F83D0028B9002084F839
:100EC0003C00204600F026F8022084F83D00211D59
:100ED000206800F0E7FC012084F8460000BF84F899
:100EE0003E0001213F200155402001554120015580
:100EF00000BF00BF012084F8420043200155442078
:100F000001554520015500BF012084F83D00002017
:100F1000D0E7000038B504460D492068884215D155
:100F200000BF0C48806940F400600A4988610846A7
:100F3000806900F40060009000BF00BF00221146ED
:100F40001920FFF767FB1920FFF750FB38BD0000A1
:100F5000002C0140001002402DE9F04104460D46EE
:100F6000002700BF94F83C00012802D10220BDE810
:100F7000F081012084F83C0000BF022084F83D008D
:100F80002068866826F0770626F47F46206886600B
:100F90002868502833D00CDC202850D004DC0028EE
:100FA0004BD0102851D149E0302849D040284CD1AD
:100FB00039E060282DD0702807D0B0F5805F03D0CD
:100FC000B0F5005F41D10DE041E0D5E902136A6858
:100FD000206800F0CEFC2068866846F0770620681E
:100FE000866034E0D5E902136A68206800F0C1FC2D
:100FF0002068806840F480402168886027E0EA68C3
:101000006968206800F0A6FD5021206800F0BCFC53
:101010001DE0EA686968206800F0AFFD6021206883
:1010200000F0B2FC13E0EA686968206800F092FD05
:101030004021206800F0A8FC09E000BF00BF00BF0D
:101040002968206800F0A0FC01E0012700BF00BF74
:10105000012084F83D0000BF002084F83C0000BF60
:10106000384684E7704770B504462068C568206834
:10107000066906F00200022819D105F002000228D4
:1010800015D1401F21680861012020772068806900
:1010900000F0030018B12046FFF7E4FF05E020460A
:1010A00000F0D2F8204600F086F90020207706F004
:1010B0000400042819D105F00400042815D1C04308
:1010C00021680861022020772068806900F4407060
:1010D00018B12046FFF7C6FF05E0204600F0B4F83F
:1010E000204600F068F90020207706F00800082864
:1010F00019D105F00800082815D1C04321680861FE
:10110000042020772068C06900F0030018B1204651
:10111000FFF7A8FF05E0204600F096F8204600F013
:101120004AF90020207706F01000102819D105F0A8
:101130001000102815D1C0432168086108202077CD
:101140002068C06900F4407018B12046FFF78AFF9C
:1011500005E0204600F078F8204600F02CF9002049
:10116000207706F0010048B105F0010030B16FF0C2
:10117000010021680861204600F0ECF906F08000CB
:10118000802809D105F08000802805D1C04321685E
:1011900008612046FFF700FE06F04000402809D114
:1011A00005F04000402805D1C04321680861204671
:1011B00000F0E0F906F02000202809D105F0200019
:1011C000202805D1C043216808612046FFF7E5FDCE
:1011D00070BD000010B586B0044600200290039058
:1011E0000490059014492068884222D100BF13481A
:1011F000806940F04000114988610846806900F02C
:101200004000019000BF00BF4FF4407002900220E8
:101210000390059002A90A48FEF7D2FF00BF0949D2
:10122000486820F0C00040F0E06040F0C000486036
:1012300000BF06B010BD0000002C014000100240AD
:10124000001801400000014070472DE9F0410446BC
:101250000D461646002700BF94F83C00012802D135
:101260000220BDE8F081012084F83C0000BF36B1C7
:10127000042E1BD0082E31D00C2E5ED145E029461D
:10128000206800F08BFB2068806940F0080021682E
:1012900088612068806920F00400216888612068E6
:1012A0008069296908432168886148E029462068E7
:1012B00000F0ACFB2068806940F400602168886120
:1012C0002068806920F480602168886120688069D6
:1012D000296940EA01202168886130E029462068B8
:1012E00000F0D2FB2068C06940F008002168C861A6
:1012F0002068C06920F004002168C8612068C069C6
:10130000296908432168C86119E02946206800F06E
:10131000F7FB2068C06940F400602168C86120685C
:10132000C06920F480602168C8612068C0692969AB
:1013300040EA01202168C86101E0012700BF00BF29
:1013400000BF002084F83C0000BF384689E710B594
:1013500004460CB9012010BD94F83D0028B90020C6
:1013600084F83C00204600F025F8022084F83D0077
:10137000211D206800F096FA012084F8460000BF85
:1013800084F83E0001213F200155402001554120B5
:10139000015500BF00BF012084F8420043200155E1
:1013A000442001554520015500BF012084F83D002F
:1013B0000020D0E77047704770B504460D4615B958
:1013C00094F83E000BE0042D02D13F20005D06E0C2
:1013D000082D02D14020005D01E04120005D012880
:1013E00001D0012070BD1DB9022084F83E000EE03E
:1013F000042D03D102213F20015508E0082D03D11F
:1014000002214020015502E0022141200155012224
:101410002946206800F09CFA1F492068884203D0C2
:101420001E492068884201D1012000E0002028B137
:101430002068406C40F400402168486416492068E8
:10144000884213D01549206888420FD02068B0F137
:10145000804F0BD012492068884207D0114920687C
:10146000884203D01049206888420CD120688068E7
:1014700000F00706062E0CD02068006840F001003E
:101480002168086005E02068006840F001002168DC
:1014900008600020A6E70000002C01400034014055
:1014A0000004004000080040000C004030B5044635
:1014B0000D4600222946206800F04AFA2349206898
:1014C000884203D022492068884201D1012000E0EF
:1014D000002090B100BF2068006A41F2111108405D
:1014E00050B92068006A8910084028B92068406C0B
:1014F00020F400402168486400BF00BF2068006AF3
:1015000041F21111084050B92068006A8910084062
:1015100028B92068006820F001002168086000BF39
:101520001DB9012084F83E000EE0042D03D10121F5
:101530003F20015508E0082D03D10121402001552D
:1015400002E0012141200155002030BD002C014066
:101550000034014010B5044604492068884203D194
:1015600000210348FFF7A2FF10BD0000002C01403E
:1015700010000020704710B504460CB9012010BDC2
:10158000A06900B100E000BF94F8410028B9002034
:1015900084F84000204600F029F8242084F8410017
:1015A0002068C06820F400502168C860204600F020
:1015B000F9FA2068006920F49040216808612068E9
:1015C000406920F02A00216848612068C06840F422
:1015D00000502168C86000206064202084F8410029
:1015E00084F842000020606300BFC8E710B586B0F1
:1015F0000446002002900390049005901A49206848
:1016000088422ED100BF1948806940F480401749B4
:1016100088610846806900F48040019000BF00BFE7
:1016200000BF0846806940F0040088610846806970
:1016300000F00400019000BF00BF48150290022096
:1016400003900320059002A90948FEF7B9FD4FF465
:101650008060029000200390049002A90448FEF7E5
:10166000AFFD06B010BD0000003801400010024080
:101670000008014000BFFEE708B500BF13488069BD
:1016800040F01000114988610846806900F01000A0
:10169000009000BF00BF00BF0846806940F04000D6
:1016A00088610846806900F04000009000BF00BFDC
:1016B00000BF0846806940F00400886108468069E0
:1016C00000F00400009000BF00BF08BD0010024001
:1016D00000B595B0002011901290139014900F90C7
:1016E00010901C2108A8FEF748FD20216846FEF74F
:1016F00044FD2E482E49086041F61F4048600021F5
:101700002B48816041F28731C160002101610421D1
:10171000416100218161FFF7C9FB08B1FEF74DFD72
:101720004FF48050119011A92148FFF715FC08B122
:10173000FEF743FD1E48FFF70AFE08B1FEF73DFD28
:1017400000200F9010900FA91948FFF761FB08B116
:10175000FEF733FD6020089040F6C4100990002089
:101760000A900B9004200C9000200D900E90002207
:1017700008A90F48FFF769FD08B1FEF71EFD00201C
:10178000009001900290039004904FF40050059057
:101790000020079069460648FFF700FB08B1FEF7F6
:1017A0000CFD0348FFF716FD15B000BD002C0140ED
:1017B0001000002010B50B480B4908604FF4E130D1
:1017C0004860002108488160C16001610C214161CD
:1017D00000218161C161FFF7CEFE08B1FEF7EDFC8B
:1017E00010BD0000003801405800002000BFFEE797
:1017F00000BFFEE77047000008B508490968C9083E
:101800004FF47A72B1FBF2F14143009100BF00BF87
:1018100000994A1E00920029F9D108BD0C00002051
:10182000704710B5FEF772FE10BD00B58FB02821CD
:1018300005A8FEF7A2FC14216846FEF79EFC0120D5
:1018400005900004069000200790012009900220D6
:101850000C90C1030D914FF4E0110E9105A8FFF714
:101860004FF808B1FEF7A9FC0F200090022001906C
:10187000002002904FF48060039000200490022129
:101880006846FEF719FF08B1FEF797FC0FB000BDE0
:101890007047000010B50248FFF7E5FB10BD0000DF
:1018A0001000002010B50268244B98420ED0244B43
:1018B00098420BD0B0F1804F08D0224B984205D00F
:1018C000214B984202D0214B984203D122F0700262
:1018D0004B681A43194B98420ED0194B98420BD0C3
:1018E000B0F1804F08D0174B984205D0164B984264
:1018F00002D0164B984203D122F44072CB681A43AF
:1019000022F080034C6943EA040202608B68C362E0
:101910000B688362094B984202D0094B984201D16F
:101920000B69036301234361036903F001031BB1E6
:10193000036923F00103036110BD0000002C014086
:10194000003401400004004000080040000C00404A
:1019500030B501F01F05012404FA05F3046A9C4325
:101960000462046A01F01F0502FA05F52C430462C3
:1019700030BD30B50C46816821F47F4142EA032531
:1019800025432943816030BD0A46816821F07001FA
:1019900042F00703194381607047000030B5026AC6
:1019A000056A25F0010505624368846924F0700426
:1019B00024F003040D682C4322F002028D682A43B0
:1019C000104DA84200D103E00F4DA84206D100BF40
:1019D00022F00802CD682A4322F00402094DA842F1
:1019E00002D0094DA84207D123F4807323F4007379
:1019F0004D692B438D692B43436084614D6845637A
:101A0000026230BD002C01400034014030B5026A52
:101A1000056A25F0100505624368846924F4E044F2
:101A200024F440740D6844EA052422F020028D68F5
:101A300042EA0512124DA84200D103E0114DA8421E
:101A400007D100BF22F08002CD6842EA051222F0E1
:101A500040020B4DA84202D00A4DA84209D123F4FE
:101A6000806323F400634D6943EA85038D6943EA8B
:101A70008503436084614D688563026230BD000068
:101A8000002C01400034014030B5026A056A25F49B
:101A9000807505624368C46924F0700424F003046F
:101AA0000D682C4322F400728D6842EA0522124D23
:101AB000A84200D103E0114DA84207D100BF22F493
:101AC0000062CD6842EA052222F480620A4DA842F3
:101AD00002D00A4DA84209D123F4805323F40053C5
:101AE0004D6943EA05138D6943EA05134360C461F8
:101AF0004D68C563026230BD002C014000340140D6
:101B000030B5036A056A25F4805505624468C269E8
:101B100022F4E04222F440720D6842EA052223F4E6
:101B200000538D6843EA0533084DA84202D0084DA2
:101B3000A84204D124F480444D6944EA85144460E9
:101B4000C2614D680564036230BD0000002C014095
:101B50000034014030B50B461446026A056A25F090
:101B600001050562816921F0F00141EA041122F0CA
:101B70000A021A438161026230BD30B50B46144639
:101B8000026A056A25F010050562816921F4704139
:101B900041EA043122F0A00242EA031281610262AA
:101BA00030BD000070B504462168096921F4405138
:101BB000E2681143226811612269A16811436269D8
:101BC00041EA02052168C96841F20C629143294348
:101BD0002268D1602168496921F44071A2691143EA
:101BE000226851612D4A2168914202D1FEF740FEE0
:101BF00001E0FEF72DFE00EBC00101EB0011626871
:101C00009200B1FBF2F100EBC00202EB001263683C
:101C10009B00B2FBF3F26423B2FBF3F202EBC203CC
:101C200003EB0212A1EB8201322202EB01116422CA
:101C3000B1FBF2F101F0F00100EBC00202EB001287
:101C400063689B00B2FBF3F26423B2FBF3F201EB97
:101C5000021200EBC00101EB001163689B00B1FBB5
:101C6000F3F100EBC00303EB00136668B600B3FBAF
:101C7000F6F36426B3FBF6F303EBC30606EB03139C
:101C8000A1EB8301322303EB01116423B1FBF3F1D8
:101C900001F00F0111442268916070BD00380140CD
:101CA00000BFFEE702480068C0F302207047000052
:101CB0000CED00E010B5002804DB0A07130E054AFE
:101CC000135406E00A07140E034A00F00F031B1F0B
:101CD000D45410BD00E400E018ED00E002E008C8B4
:101CE000121F08C1002AFAD170477047002001E096
:101CF00001C1121F002AFBD170470000FEF712FC41
:101D0000FFF793FDFFF7B8FCFFF7E2FCFFF752FD8A
:101D10006FF0010008490968086107480068C06859
:101D200040F0010004490968C86000210248FFF73B
:101D300043FB00BFFEE70000100000200203040583
:101D4000060708090A0B0C0D0E0F10100102000007
:101D5000000000000000010203040607080900005B
:101D60000000010203040000881D0008000000209C
:101D700010000000DC1C0008981D00081000002066
:101D800090040000EC1C000800000000100000009F
:081D90000100000000127A00BE
:0400000508000131BD
:00000001FF
