:020000040800F2
:10000000D8040020490100085101000853010008EC
:1000100055010008570100085901000800000000C0
:100020000000000000000000000000005B0100086C
:100030005D010008000000005F0100086101000888
:100040006301000863010008630100086301000800
:1000500063010008630100086301000863010008F0
:1000600063010008630100086301000863010008E0
:1000700063010008630100086301000863010008D0
:1000800063010008630100086301000863010008C0
:10009000630100086301000863010008E103000830
:1000A00063010008630100086301000863010008A0
:1000B0006301000863010008630100086301000890
:1000C0006301000863010008630100086301000880
:1000D000630100080D0600085D06000863010008C2
:1000E000650300086301000863010008630100085C
:1000F0006301000863010008630100086301000850
:10010000630100086301000863010008630100083F
:10011000630100086301000863010008630100082F
:10012000630100086301000863010008630100081F
:10013000DFF810D000F034F8004800470D07000841
:10014000AFF30080D80400200648804706480047E7
:10015000FEE7FEE7FEE7FEE7FEE7FEE7FEE7FEE777
:10016000FEE7FEE7AD05000831010008D2B201E06C
:1001700000F8012B491EFBD270470022F6E710B5AC
:1001800013460A4604461946FFF7F0FF204610BD05
:10019000421C10F8011B0029FBD1801A7047000097
:1001A000064C074D06E0E06840F0010394E80700C4
:1001B00098471034AC42F6D3FFF7BEFF6007000843
:1001C0008007000800B50346184600F001F800BD9E
:1001D0001C49C96941F020011A4AD16141F61F4109
:1001E000194A118000EB80014900491E121D11803F
:1001F00015491439098841F00101134A143A118054
:10020000111F098821F00101121F11800E492839A0
:10021000098841F001010C4A283A118000BF0A49BF
:10022000091F0A8800EB80014900491E8A42F6DB5B
:1002300005492839098821F00101034A283A11802B
:100240007047000000100240281400400348C068B6
:1002500020F480700149C860704700000010014020
:100260000348C06840F480700149C86070470000CE
:1002700000100140024909680143014A11607047BA
:100280000C080140024909688143014A1160704726
:100290000C08014010B500F0C3F81F48008840F07A
:1002A00020001D4908800846008840F010000880A2
:1002B00003200246194B19684FF6FF031940184BEB
:1002C0000B4343EA0221154B196000BF262002218F
:1002D000002808DA0A07140E104A0C3200F00F0347
:1002E0001B1FD45403E00A07130E0E4A135400BF19
:1002F000262000F01F02012191404209920002F1E4
:10030000E022C2F8001100BF0348008840F400500A
:100310000149088010BD00000C4400400CED00E0D5
:100320000000FA0500E400E000BF0549098801F07B
:1003300080010029F9D00249091D0880704700009A
:100340000044004070B50546002404E0285DFFF736
:10035000EBFF601CC4B22846FFF71AFFA042F5D895
:1003600070BD00001948006840F40060174908603B
:100370001748006800F4006018B1012015490870A2
:1003800002E00020134908701048006840F48060C3
:100390000E4908600E48006800F4806018B1012022
:1003A0000D49087002E000200B49087007480068FA
:1003B00040F48050054908600548006800F480500A
:1003C00010B1012005490870704700001404014075
:1003D000081C01400200002003000020040000204F
:1003E00010B50D48006840F480700B490860052086
:1003F000FFF7E8FE0948006800F4807028B1FFF7B5
:1004000025FF0120FFF73EFF04E0FFF729FF012051
:10041000FFF730FF10BD0000140401400808014040
:100420002548C06940F400302349C8610846806906
:1004300040F0040088612148006840F440701F4982
:1004400008600846006840F40060086008460068DC
:1004500020F4806008600846006820F4405008607E
:100460000846006840F4804008600846006820F4B0
:100470000040086040F2712011490880081D008882
:1004800020F48050091D08800846008820F4806010
:100490000880081D008820F44050091D0880081FAE
:1004A000008840F00400091F08800846008840F0DA
:1004B000080008807047000000100240000801405A
:1004C0000844004010B500F001F810BD0CB5002044
:1004D000019000903348006840F480303149086052
:1004E00000BF3048006800F4003000900198401CC4
:1004F0000190009818B90198B0F5A06FF1D1294882
:10050000006800F4003010B10120009001E00020EC
:1005100000900098012843D12348006840F0100063
:10052000214908600846006820F007000860084676
:10053000006840F0020008601A48406819494860A5
:100540000846406848600846406840F4806048605B
:100550000846406820F47C1048600846406840F433
:10056000E81048600846006840F08070086000BFEE
:100570000C48006800F000700028F9D00948406875
:1005800020F00300074948600846406840F0020038
:10059000486000BF0348406800F00C000828F9D10B
:1005A0000CBD0000001002400020024010B51348AE
:1005B000006840F001001149086008464068104991
:1005C00008400E494860084600680E4908400B493B
:1005D00008600846006820F48020086008464068EB
:1005E00020F4FE0048604FF41F008860FFF76AFFA8
:1005F0004FF000600449086010BD00000010024088
:100600000000FFF8FFFFF6FE08ED00E00F4800884D
:1006100000F0200060B10D48001D00880C490D4A13
:10062000127888540B480078401C0A4908700CE086
:100630000648008800F0100038B101200649087013
:10064000024800880148001D0088704700380140BA
:100650000C00002000000020010000200F4800884E
:1006600000F0200060B10D48001D00880C490D4AC3
:10067000127888540B480078401C0A4908700CE036
:100680000648008800F0100038B1012006490870C3
:10069000024800880148001D00887047004400405F
:1006A000700000200500002006000020014A0249D9
:1006B00000F013B8FD0600080800002002E008C89A
:1006C000121F08C1002AFAD170477047002001E0CC
:1006D00001C1121F002AFBD170472DE9F0411646D7
:1006E0000F460446002503E03946B047641C6D1CE4
:1006F00020780028F8D12846BDE8F08100B50246F0
:100700000B46D0B2FFF710FE104600BDFFF7C2FD4A
:100710000BA0FFF7CBFF0CA0FFF714FE0EE00D4877
:10072000007858B10C48FFF70DFE64210A48FFF726
:1007300024FD00200749087008490870EFE7000011
:10074000313131310D0A0000627566665F557361A3
:1007500072743200060000207000002005000020A6
:1007600080070008000000200C000000BC06000804
:100770008C0700080C000020CC040000CC06000808
:0C0780000000000000000000000000006D
:0400000508000131BD
:00000001FF
