:020000040800F2
:10000000B004002049010008510100085301000814
:1000100055010008570100085901000800000000C0
:100020000000000000000000000000005B0100086C
:100030005D010008000000005F0100086101000888
:100040006301000863010008630100086301000800
:1000500063010008630100086301000863010008F0
:1000600063010008630100086301000863010008E0
:1000700063010008630100086301000863010008D0
:1000800063010008630100086301000863010008C0
:1000900063010008630100086301000863010008B0
:1000A00063010008630100086301000863010008A0
:1000B0006301000863010008630100086301000890
:1000C0006301000863010008630100086301000880
:1000D0006301000895070008630100086301000838
:1000E0006301000863010008630100086301000860
:1000F0006301000863010008630100086301000850
:10010000630100086301000863010008630100083F
:10011000630100086301000863010008630100082F
:10012000630100086301000863010008630100081F
:10013000DFF810D000F030F800480047010C00084C
:10014000AFF30080B004002006488047064800470F
:10015000FEE7FEE7FEE7FEE7FEE7FEE7FEE7FEE777
:10016000FEE7FEE7350700083101000830B50B4611
:10017000014600202022012409E021FA02F59D42D7
:1001800005D303FA02F5491B04FA02F52844151EAB
:10019000A2F10102F1DC30BD064C074D06E0E0683B
:1001A00040F0010394E8070098471034AC42F6D3BE
:1001B000FFF7C2FF1C0D00083C0D000800B5034608
:1001C00003E04FF47A7000F006F8181EA3F1010165
:1001D0008BB2F6D100BD00EBC001C9004FF0E022A8
:1001E0005161002191610521116100BF4FF0E021B3
:1001F000096901F480310029F8D04FF0E021096944
:1002000021F001014FF0E022116170471048806930
:1002100040F480700E4988610E48006840F04050FC
:100220000C4908600846006820F040400860084615
:10023000006820F0E06008600846006840F0006058
:1002400008600846C06840F04000C8607047000081
:10025000001002400020014000B500F0A5F903485D
:10026000008840F400500149088000BD0C3801406E
:1002700000BF0549098801F080010029F9D0024931
:10028000091D0880704700000038014000B500F0EB
:1002900001F800BD3048C06940F480402E49C86173
:1002A0000846806940F0280088612C48006820F4E6
:1002B00040402A4908600846006840F44050086001
:1002C0002748006827490843254908600846006810
:1002D00025490840224908600846006820F030603F
:1002E00008600846006840F0806008601F48008889
:1002F00040F004001D4908800846008840F4007062
:100300000880081D008820F00400091D0880081FCF
:10031000008840F48070091F08800846008820F09B
:10032000030008800846008820F03800088008464E
:10033000008840F0100008800846008820F4006023
:1003400008800846008820F0800008800846008861
:1003500040F0400008807047001002400014014047
:10036000040C01400000B0B0FFFFBFBF00380040E8
:1003700000B500F001F800BD0348006820F0080057
:1003800001490860704700000C14014000B500F0FE
:1003900001F800BD0348006840F00800014908600A
:1003A000704700000C14014000B50246104600F0F2
:1003B00001F800BD014600BF0A48008800F00200B5
:1003C0000028F9D00748001D018000BF05480088BB
:1003D00000F001000028F9D00248001D0088C0B2DA
:1003E000704700000838004008B51EA000F03EFA33
:1003F000042220494FF4706000F0F4F91EA000F0D0
:1004000035FA22A000F032FA042225494FF4A06008
:1004100000F0E8F923A000F029FA28A000F026FA5D
:1004200004222A49900100F0DDF929A000F01EFA0B
:100430002CA000F01BFA062231494FF4106000F0A6
:10044000D1F930A000F012FA36A000F00FFA0948F6
:10045000C078009007488378427801783AA000F08D
:1004600005FA08BD73746172742073657420495075
:10047000200D0A006C000020636F6D706C65746560
:100480006420736574204950200D0A0073746172F2
:10049000742073657420737562200D0A00000000DB
:1004A00070000020636F6D706C6574656420736507
:1004B0007420737562200D0A00000000737461726D
:1004C0007420736574207767200D0A007400002083
:1004D000636F6D706C6574656420736574207767F5
:1004E000200D0A00737461727420736574206D614D
:1004F000632061646472657373200D0A000000005C
:1005000066000020636F6D706C65746564207365B0
:1005100074206D61632061646472657373200D0AD9
:10052000000000005735353030206E6574776F72EB
:100530006B20636F6E66696720636F6D706C6574A6
:100540006564200D0A0000006970B5D8D6B73A205E
:1005500025642E25642E25642E2564200D0A0000B6
:1005600010B500F0A7FBFFF791FEFFF74FFE00F07C
:1005700003F8FFF739FF10BD10B50A48C06820F036
:1005800080000849C8604FF47A70FFF717FE0548ED
:10059000C06840F080000349C8604FF4FA70FFF76C
:1005A0000DFE10BD002001402548806940F48040C8
:1005B000234988610846806940F004008861214829
:1005C000006840F030001F4908600846006840F0AD
:1005D000800008600846006820F040000860084677
:1005E000006820F4407008600846006840F48060AD
:1005F00008600846006820F40060086040F271203E
:1006000011490880081D008820F48050091D0880C9
:100610000846008820F480600880081D008820F4C7
:100620004050091D0880081F008840F00400091F81
:1006300008800846008840F00800088070470000E5
:1006400000100240040801400838014010B500F0D5
:1006500001F810BD0CB500200190009033480068EF
:1006600040F480303149086000BF3048006800F431
:10067000003000900198401C0190009818B9019832
:10068000B0F5A06FF1D12948006800F4003010B136
:100690000120009001E0002000900098012843D143
:1006A0002348006840F010002149086008460068AF
:1006B00020F0070008600846006840F0020008606B
:1006C0001A4840681949486008464068486008462A
:1006D000406840F4806048600846406820F47C1020
:1006E00048600846406840F4E810486008460068E2
:1006F00040F08070086000BF0C48006800F0007097
:100700000028F9D00948406820F0030007494860F4
:100710000846406840F00200486000BF0348406857
:1007200000F00C000828F9D10CBD000000100240B8
:100730000020024010B51348006840F00100114944
:10074000086008464068104908400E49486008465D
:1007500000680E4908400B4908600846006820F40C
:10076000802008600846406820F4FE0048604FF48E
:100770001F008860FFF76AFF4FF0006004490860BF
:1007800010BD0000001002400000FFF8FFFFF6FE61
:1007900008ED00E00F48008800F0200058B10D4837
:1007A000001D00880C490D4A127888540B480078C7
:1007B000401C0A4908700748008800F0100038B152
:1007C000044800880348001D00880120044908707F
:1007D0007047000000380140000000206400002045
:1007E00065000020F8B504460E4617461E49C86845
:1007F00080471D494869804744F004041A48806ACC
:10080000C0B91948016AC4F3074088471648016A0D
:10081000C4F307208847E0B2134A116A88470025CD
:1008200005E0705D104A116A8847681C85B2BD42B8
:10083000F7DB12E0200C8DF80000200A8DF8010093
:10084000E0B28DF8020008480321826A68469047AA
:1008500005483946826A304690470349886980478F
:10086000014908698047F8BD780000200FB4054BA6
:1008700010B503A9044A029800F018F810BC5DF8FE
:1008800014FB0000EF0B0008AC00002002E008C8D9
:10089000121F08C1002AFAD170477047002001E0FA
:1008A00001C1121F002AFBD1704700002DE9FF4F44
:1008B0008BB088460546002606E025280BD0DDE9EA
:1008C0000D1290476D1C761C28780028F5D10FB0CA
:1008D0003046BDE8F08F0024A146A2460122AE4971
:1008E00000E0044315F8013F203B02FA03F0084200
:1008F000F7D128782A2810D06FF02F022878A0F19D
:100900003001092915D809EB890102EB410144F0B6
:10091000020400EB01096D1CF0E758F8041B5FEAC4
:10092000010903D544F40054C9F1000944F002045C
:100930006D1C28782E2817D115F8010F44F00404F7
:100940002A280ED06FF02F022878A0F13001092953
:100950000AD80AEB8A0102EB410100EB010A6D1C87
:10096000F2E758F804AB6D1C28786C280FD006DC31
:100970004C2817D068280DD06A2814D104E07428B8
:1009800010D07A280FD10DE044F400140AE044F4AA
:10099000801401E044F440146978814202D104F5E6
:1009A00080146D1C6D1C2878692865D006DC002831
:1009B0008DD0632827D0642806D15DE06E2808D04A
:1009C00073282AD0752877D0DDE90D129047761C60
:1009D000E0E0C4F30250022809D003280DD0D8F873
:1009E000001004280DD00E6008F10408D2E0D8F8F9
:1009F0000010F217C1E90062F6E7D8F800100E8087
:100A0000F2E70E70F0E718F8041B8DF800100020D4
:100A10008DF80100EB46012003E058F804BB4FF0CD
:100A2000FF3061074FF0000701D40AE07F1C5745F3
:100A30000DDA8742FADB1BF807100029F6D106E031
:100A40007F1C8742FCDB1BF807100029F8D1DDE989
:100A50000D23A9EB07008146214600F0B1F8304490
:100A6000C61904E0DDE90D121BF8010B90477F1E4B
:100A7000F8D22146484688E058F8040BC4F30251E6
:100A80004FF00A0B032900D100B2042900D140B273
:100A9000002802DA40422D2102E0210505D52B2154
:100AA0008DF82410012104E006E0E10710D0202198
:100AB000F6E708AF089113E058F8040BC4F30251AD
:100AC0004FF00A0B032900D180B2042900D1C0B233
:100AD0000021EEE75946FFF749FB303107F8011DC9
:100AE0000028F7D1ADEB070000F1200B600702D51D
:100AF00024F4803401E04FF0010ADA4502DDAAEB6C
:100B00000B0000E00020824600EB0B010898014436
:100B1000A9EB01000A90E00306D4DDE90D2321468C
:100B20000A9800F04DF806444FF0000908E009A9C2
:100B300011F80900DDE90D12904709F10109761C51
:100B400008998945F3DBE0030CD5DDE90D23214647
:100B50000A9800F035F8064404E0DDE90D12302073
:100B60009047761CBAF10001AAF1010AF5DC05E014
:100B7000DDE90D1217F8010B9047761CBBF100015F
:100B8000ABF1010BF4DC0A982146DDE90D2300F0FE
:100B900005F806446D1C97E6092801002DE9F0418F
:100BA000044600251E461746880404D405E039464D
:100BB0002020B0476D1C641EF9D52846BDE8F081A1
:100BC0002DE9F041044600251E469046C80301D594
:100BD000302700E02027880404D505E04146384648
:100BE000B0476D1C641EF9D52846BDE8F08100B5FC
:100BF00002460B46D0B2FFF73BFB104600BD00009B
:100C0000FFF72AFB03A0FFF731FEFFF7A9FC00BFA7
:100C1000FEE700004E6574576F726B2050696E6777
:100C20002074657374202E2E2E2E2E2E2E0D0A006B
:100C300000B131B9054A064BDA60064B044A13612C
:100C400002E0034AD060116170470000F30C000815
:100C500078000020F50C000800B131B9054A064BB8
:100C60005A61064B044A936102E0034A5061916164
:100C700070470000FF0C000878000020F70C000807
:100C800000BF094A128802F40072002AF9D000B1AC
:100C900031B9064A044BDA61054B034A136202E09C
:100CA000014AD0611162704778000020070D0008EA
:100CB000110D000800B506490648FFF7B9FF0649BF
:100CC0000648FFF7C9FF06490648FFF7D9FF00BDF0
:100CD000F50C0008F30C0008F70C0008FF0C0008E6
:100CE000110D0008070D00080146087870470170D3
:100CF00070477047704710B5FFF748FB10BD10B53F
:100D0000FFF736FB10BD10B5FF20FFF74DFB10BD00
:100D100010B504462046FFF747FB10BD3C0D000808
:100D200000000020B00000008C080008EC0D000856
:100D3000B0000020000400009C0800083000000003
:100D400000000000000000000000000000000000A3
:100D50000000000000000000000000000000000093
:100D60000000000000000000000000000000000083
:100D70000000000000000000000000000000000073
:100D80000000000000000000000000000000000063
:100D90000000000000000000000000000000000053
:100DA00000006E78828C96A0C0A80163FFFFFF0050
:100DB000C0A80101010257353530300000000000A5
:100DC000F30C0008F50C0008FF0C0008F70C0008F5
:100DD000E90C0008EF0C0008000000000000000013
:0C0DE00000000000000000000000000007
:0400000508000131BD
:00000001FF
