:020000040800F2
:100000007004002049010008510100085301000854
:1000100055010008570100085901000800000000C0
:100020000000000000000000000000005B0100086C
:100030005D010008000000005F0100085505000890
:100040006301000863010008630100086301000800
:1000500063010008630100086301000863010008F0
:1000600063010008630100086301000863010008E0
:1000700063010008630100086301000863010008D0
:1000800063010008630100086301000863010008C0
:1000900063010008630100086301000863010008B0
:1000A00063010008630100086301000863010008A0
:1000B0006301000863010008630100086301000890
:1000C0006301000863010008630100086301000880
:1000D00063010008F50500086301000863010008DA
:1000E0006301000863010008630100086301000860
:1000F0006301000863010008630100086301000850
:10010000630100086301000863010008630100083F
:100110006301000863010008D905000863010008B5
:10012000630100086301000863010008630100081F
:10013000DFF810D000F01AF800480047A5060008C4
:10014000AFF300807004002006488047064800474F
:10015000FEE7FEE7FEE7FEE7FEE7FEE7FEE7FEE777
:10016000FEE7FEE77905000831010008064C074D5F
:1001700006E0E06840F0010394E807009847103477
:10018000AC42F6D3FFF7D8FFD0060008F00600080F
:1001900000B51348806940F0040011498861114896
:1001A000006840F033000F4908600846006820F0FE
:1001B000CC000860081D006840F00300091D0860BD
:1001C0000846006820F00C000860012000F00CF8E0
:1001D000022000F009F84FF4807000F005F800BD2F
:1001E0000010024000080140024909680143014A29
:1001F000116070470C080140024909688143014AB7
:10020000116070470C08014000B5034605480068BE
:10021000184018B91846FFF7E7FF02E01846FFF745
:10022000EBFF00BD0808014010B500F0CDF81F48F5
:10023000008840F020001D4908800846008840F0F2
:100240001000088003200246194B19684FF6FF037F
:100250001940184B0B4343EA0221154B196000BFAC
:1002600025200321002808DA0A07140E104A0C3250
:1002700000F00F031B1FD45403E00A07130E0E4AAD
:10028000135400BF252000F01F02012191404209B4
:10029000920002F1E022C2F8001100BF034800887A
:1002A00040F400500149088010BD00000C380140A6
:1002B0000CED00E00000FA0500E400E000BF054995
:1002C000098801F080010029F9D00249091D088040
:1002D00070470000003801404FF0E020006940F016
:1002E00004004FF0E02108610846006940F0020078
:1002F0000861044848610846006940F0010008614F
:10030000704700003F19010010B52A48C06940F04D
:1003100010002849C86141F61F402749088542F26C
:100320000F7088850846008840F004000880084661
:10033000808A40F0010088820846808940F00100F0
:1003400088810846008820F080000880032002464B
:100350001A4B19684FF6FF031940194B0B4343EA38
:100360000221164B196000BF36200121002808DA4F
:100370000A07140E114A0C3200F00F031B1FD4544D
:1003800003E00A07130E0F4A135400BF362000F093
:100390001F02012191404209920002F1E022C2F8BD
:1003A000001100BF0448008840F0010002490880A5
:1003B00010BD000000100240001000400CED00E0F5
:1003C0000000FA0500E400E02548806940F4804020
:1003D000234988610846806940F00400886121480B
:1003E000006840F030001F4908600846006840F08F
:1003F000800008600846006820F040000860084659
:10040000006820F4407008600846006840F480608E
:1004100008600846006820F40060086040F271201F
:1004200011490880081D008820F48050091D0880AB
:100430000846008820F480600880081D008820F4A9
:100440004050091D0880081F008840F00400091F63
:1004500008800846008840F00800088070470000C7
:1004600000100240040801400838014010B500F0B7
:1004700001F810BD0CB500200190009033480068D1
:1004800040F480303149086000BF3048006800F413
:10049000003000900198401C0190009818B9019814
:1004A000B0F5A06FF1D12948006800F4003010B118
:1004B0000120009001E0002000900098012843D125
:1004C0002348006840F01000214908600846006891
:1004D00020F0070008600846006840F0020008604D
:1004E0001A4840681949486008464068486008460C
:1004F000406840F4806048600846406820F47C1002
:1005000048600846406840F4E810486008460068C3
:1005100040F08070086000BF0C48006800F0007078
:100520000028F9D00948406820F0030007494860D6
:100530000846406840F00200486000BF0348406839
:1005400000F00C000828F9D10CBD0000001002409A
:100550000020024010B507480088401C054908806B
:1005600008460088022804D1002008800220FFF7F6
:100570004BFE10BD0000002010B51348006840F08D
:1005800001001149086008464068104908400E49BA
:100590004860084600680E4908400B490860084654
:1005A000006820F4802008600846406820F4FE00BF
:1005B00048604FF41F008860FFF758FF4FF000605D
:1005C0000449086010BD0000001002400000FFF860
:1005D000FFFFF6FE08ED00E010B50548008A20F0A8
:1005E0000100034908828815FFF70EFE10BD0000C8
:1005F000001000400F48008800F0200058B10D485E
:10060000001D00880C490D4A127888540B48007868
:10061000401C0A4908700748008800F0100038B1F3
:10062000044800880348001D008801200449087020
:1006300070470000003801400300002067000020E0
:1006400068000020014A024900F013B8950600082E
:100650006C00002002E008C8121F08C1002AFAD16D
:1006600070477047002001E001C1121F002AFBD132
:1006700070472DE9F04116460F460446002503E079
:100680003946B047641C6D1C20780028F8D12846F4
:10069000BDE8F08100B502460B46D0B2FFF70EFE72
:1006A000104600BDFFF7C0FD05A0FFF7CBFFFFF729
:1006B0006FFDFFF711FEFFF727FE00BFFEE700000A
:1006C00073656E642073756363657373210D0A002F
:1006D000F00600080000002070000000540600082A
:1006E0006007000870000020000400006406000895
:1006F00000000030000000000000000000000000CA
:1007000000000000000000000000000000000000E9
:1007100000000000000000000000000000000000D9
:1007200000000000000000000000000000000000C9
:1007300000000000000000000000000000000000B9
:1007400000000000000000000000000000000000A9
:100750000000000000000000000000000000000099
:0400000508000131BD
:00000001FF
